{
  "_format": "hh-sol-artifact-1",
  "contractName": "MyOFT",
  "sourceName": "contracts/MyOFT.sol",
  "abi": [
    {
      "inputs": [
        {
          "internalType": "string",
          "name": "_name",
          "type": "string"
        },
        {
          "internalType": "string",
          "name": "_symbol",
          "type": "string"
        },
        {
          "internalType": "address",
          "name": "_lzEndpoint",
          "type": "address"
        },
        {
          "internalType": "address",
          "name": "_delegate",
          "type": "address"
        }
      ],
      "stateMutability": "nonpayable",
      "type": "constructor"
    },
    {
      "inputs": [
        {
          "internalType": "address",
          "name": "spender",
          "type": "address"
        },
        {
          "internalType": "uint256",
          "name": "allowance",
          "type": "uint256"
        },
        {
          "internalType": "uint256",
          "name": "needed",
          "type": "uint256"
        }
      ],
      "name": "ERC20InsufficientAllowance",
      "type": "error"
    },
    {
      "inputs": [
        {
          "internalType": "address",
          "name": "sender",
          "type": "address"
        },
        {
          "internalType": "uint256",
          "name": "balance",
          "type": "uint256"
        },
        {
          "internalType": "uint256",
          "name": "needed",
          "type": "uint256"
        }
      ],
      "name": "ERC20InsufficientBalance",
      "type": "error"
    },
    {
      "inputs": [
        {
          "internalType": "address",
          "name": "approver",
          "type": "address"
        }
      ],
      "name": "ERC20InvalidApprover",
      "type": "error"
    },
    {
      "inputs": [
        {
          "internalType": "address",
          "name": "receiver",
          "type": "address"
        }
      ],
      "name": "ERC20InvalidReceiver",
      "type": "error"
    },
    {
      "inputs": [
        {
          "internalType": "address",
          "name": "sender",
          "type": "address"
        }
      ],
      "name": "ERC20InvalidSender",
      "type": "error"
    },
    {
      "inputs": [
        {
          "internalType": "address",
          "name": "spender",
          "type": "address"
        }
      ],
      "name": "ERC20InvalidSpender",
      "type": "error"
    },
    {
      "inputs": [],
      "name": "InvalidDelegate",
      "type": "error"
    },
    {
      "inputs": [],
      "name": "InvalidEndpointCall",
      "type": "error"
    },
    {
      "inputs": [],
      "name": "InvalidLocalDecimals",
      "type": "error"
    },
    {
      "inputs": [
        {
          "internalType": "bytes",
          "name": "options",
          "type": "bytes"
        }
      ],
      "name": "InvalidOptions",
      "type": "error"
    },
    {
      "inputs": [],
      "name": "LzTokenUnavailable",
      "type": "error"
    },
    {
      "inputs": [
        {
          "internalType": "uint32",
          "name": "eid",
          "type": "uint32"
        }
      ],
      "name": "NoPeer",
      "type": "error"
    },
    {
      "inputs": [
        {
          "internalType": "uint256",
          "name": "msgValue",
          "type": "uint256"
        }
      ],
      "name": "NotEnoughNative",
      "type": "error"
    },
    {
      "inputs": [
        {
          "internalType": "address",
          "name": "addr",
          "type": "address"
        }
      ],
      "name": "OnlyEndpoint",
      "type": "error"
    },
    {
      "inputs": [
        {
          "internalType": "uint32",
          "name": "eid",
          "type": "uint32"
        },
        {
          "internalType": "bytes32",
          "name": "sender",
          "type": "bytes32"
        }
      ],
      "name": "OnlyPeer",
      "type": "error"
    },
    {
      "inputs": [],
      "name": "OnlySelf",
      "type": "error"
    },
    {
      "inputs": [
        {
          "internalType": "address",
          "name": "owner",
          "type": "address"
        }
      ],
      "name": "OwnableInvalidOwner",
      "type": "error"
    },
    {
      "inputs": [
        {
          "internalType": "address",
          "name": "account",
          "type": "address"
        }
      ],
      "name": "OwnableUnauthorizedAccount",
      "type": "error"
    },
    {
      "inputs": [
        {
          "internalType": "address",
          "name": "token",
          "type": "address"
        }
      ],
      "name": "SafeERC20FailedOperation",
      "type": "error"
    },
    {
      "inputs": [
        {
          "internalType": "bytes",
          "name": "result",
          "type": "bytes"
        }
      ],
      "name": "SimulationResult",
      "type": "error"
    },
    {
      "inputs": [
        {
          "internalType": "uint256",
          "name": "amountLD",
          "type": "uint256"
        },
        {
          "internalType": "uint256",
          "name": "minAmountLD",
          "type": "uint256"
        }
      ],
      "name": "SlippageExceeded",
      "type": "error"
    },
    {
      "anonymous": false,
      "inputs": [
        {
          "indexed": true,
          "internalType": "address",
          "name": "owner",
          "type": "address"
        },
        {
          "indexed": true,
          "internalType": "address",
          "name": "spender",
          "type": "address"
        },
        {
          "indexed": false,
          "internalType": "uint256",
          "name": "value",
          "type": "uint256"
        }
      ],
      "name": "Approval",
      "type": "event"
    },
    {
      "anonymous": false,
      "inputs": [
        {
          "indexed": false,
          "internalType": "address",
          "name": "to",
          "type": "address"
        },
        {
          "indexed": false,
          "internalType": "uint256",
          "name": "amount",
          "type": "uint256"
        }
      ],
      "name": "DonationSent",
      "type": "event"
    },
    {
      "anonymous": false,
      "inputs": [
        {
          "components": [
            {
              "internalType": "uint32",
              "name": "eid",
              "type": "uint32"
            },
            {
              "internalType": "uint16",
              "name": "msgType",
              "type": "uint16"
            },
            {
              "internalType": "bytes",
              "name": "options",
              "type": "bytes"
            }
          ],
          "indexed": false,
          "internalType": "struct EnforcedOptionParam[]",
          "name": "_enforcedOptions",
          "type": "tuple[]"
        }
      ],
      "name": "EnforcedOptionSet",
      "type": "event"
    },
    {
      "anonymous": false,
      "inputs": [
        {
          "indexed": false,
          "internalType": "bytes32",
          "name": "guid",
          "type": "bytes32"
        },
        {
          "indexed": false,
          "internalType": "bytes",
          "name": "message",
          "type": "bytes"
        }
      ],
      "name": "MessageReceived",
      "type": "event"
    },
    {
      "anonymous": false,
      "inputs": [
        {
          "indexed": false,
          "internalType": "address",
          "name": "inspector",
          "type": "address"
        }
      ],
      "name": "MsgInspectorSet",
      "type": "event"
    },
    {
      "anonymous": false,
      "inputs": [
        {
          "indexed": true,
          "internalType": "bytes32",
          "name": "guid",
          "type": "bytes32"
        },
        {
          "indexed": false,
          "internalType": "uint32",
          "name": "srcEid",
          "type": "uint32"
        },
        {
          "indexed": true,
          "internalType": "address",
          "name": "toAddress",
          "type": "address"
        },
        {
          "indexed": false,
          "internalType": "uint256",
          "name": "amountReceivedLD",
          "type": "uint256"
        }
      ],
      "name": "OFTReceived",
      "type": "event"
    },
    {
      "anonymous": false,
      "inputs": [
        {
          "indexed": true,
          "internalType": "bytes32",
          "name": "guid",
          "type": "bytes32"
        },
        {
          "indexed": false,
          "internalType": "uint32",
          "name": "dstEid",
          "type": "uint32"
        },
        {
          "indexed": true,
          "internalType": "address",
          "name": "fromAddress",
          "type": "address"
        },
        {
          "indexed": false,
          "internalType": "uint256",
          "name": "amountSentLD",
          "type": "uint256"
        },
        {
          "indexed": false,
          "internalType": "uint256",
          "name": "amountReceivedLD",
          "type": "uint256"
        }
      ],
      "name": "OFTSent",
      "type": "event"
    },
    {
      "anonymous": false,
      "inputs": [
        {
          "indexed": true,
          "internalType": "address",
          "name": "previousOwner",
          "type": "address"
        },
        {
          "indexed": true,
          "internalType": "address",
          "name": "newOwner",
          "type": "address"
        }
      ],
      "name": "OwnershipTransferred",
      "type": "event"
    },
    {
      "anonymous": false,
      "inputs": [
        {
          "indexed": false,
          "internalType": "uint32",
          "name": "eid",
          "type": "uint32"
        },
        {
          "indexed": false,
          "internalType": "bytes32",
          "name": "peer",
          "type": "bytes32"
        }
      ],
      "name": "PeerSet",
      "type": "event"
    },
    {
      "anonymous": false,
      "inputs": [
        {
          "indexed": false,
          "internalType": "address",
          "name": "preCrimeAddress",
          "type": "address"
        }
      ],
      "name": "PreCrimeSet",
      "type": "event"
    },
    {
      "anonymous": false,
      "inputs": [
        {
          "indexed": true,
          "internalType": "address",
          "name": "from",
          "type": "address"
        },
        {
          "indexed": true,
          "internalType": "address",
          "name": "to",
          "type": "address"
        },
        {
          "indexed": false,
          "internalType": "uint256",
          "name": "value",
          "type": "uint256"
        }
      ],
      "name": "Transfer",
      "type": "event"
    },
    {
      "stateMutability": "payable",
      "type": "fallback"
    },
    {
      "inputs": [],
      "name": "SEND",
      "outputs": [
        {
          "internalType": "uint16",
          "name": "",
          "type": "uint16"
        }
      ],
      "stateMutability": "view",
      "type": "function"
    },
    {
      "inputs": [],
      "name": "SEND_AND_CALL",
      "outputs": [
        {
          "internalType": "uint16",
          "name": "",
          "type": "uint16"
        }
      ],
      "stateMutability": "view",
      "type": "function"
    },
    {
      "inputs": [
        {
          "components": [
            {
              "internalType": "uint32",
              "name": "srcEid",
              "type": "uint32"
            },
            {
              "internalType": "bytes32",
              "name": "sender",
              "type": "bytes32"
            },
            {
              "internalType": "uint64",
              "name": "nonce",
              "type": "uint64"
            }
          ],
          "internalType": "struct Origin",
          "name": "origin",
          "type": "tuple"
        }
      ],
      "name": "allowInitializePath",
      "outputs": [
        {
          "internalType": "bool",
          "name": "",
          "type": "bool"
        }
      ],
      "stateMutability": "view",
      "type": "function"
    },
    {
      "inputs": [
        {
          "internalType": "address",
          "name": "owner",
          "type": "address"
        },
        {
          "internalType": "address",
          "name": "spender",
          "type": "address"
        }
      ],
      "name": "allowance",
      "outputs": [
        {
          "internalType": "uint256",
          "name": "",
          "type": "uint256"
        }
      ],
      "stateMutability": "view",
      "type": "function"
    },
    {
      "inputs": [],
      "name": "approvalRequired",
      "outputs": [
        {
          "internalType": "bool",
          "name": "",
          "type": "bool"
        }
      ],
      "stateMutability": "pure",
      "type": "function"
    },
    {
      "inputs": [
        {
          "internalType": "address",
          "name": "spender",
          "type": "address"
        },
        {
          "internalType": "uint256",
          "name": "value",
          "type": "uint256"
        }
      ],
      "name": "approve",
      "outputs": [
        {
          "internalType": "bool",
          "name": "",
          "type": "bool"
        }
      ],
      "stateMutability": "nonpayable",
      "type": "function"
    },
    {
      "inputs": [
        {
          "internalType": "address",
          "name": "account",
          "type": "address"
        }
      ],
      "name": "balanceOf",
      "outputs": [
        {
          "internalType": "uint256",
          "name": "",
          "type": "uint256"
        }
      ],
      "stateMutability": "view",
      "type": "function"
    },
    {
      "inputs": [
        {
          "internalType": "uint32",
          "name": "_eid",
          "type": "uint32"
        },
        {
          "internalType": "uint16",
          "name": "_msgType",
          "type": "uint16"
        },
        {
          "internalType": "bytes",
          "name": "_extraOptions",
          "type": "bytes"
        }
      ],
      "name": "combineOptions",
      "outputs": [
        {
          "internalType": "bytes",
          "name": "",
          "type": "bytes"
        }
      ],
      "stateMutability": "view",
      "type": "function"
    },
    {
      "inputs": [],
      "name": "decimalConversionRate",
      "outputs": [
        {
          "internalType": "uint256",
          "name": "",
          "type": "uint256"
        }
      ],
      "stateMutability": "view",
      "type": "function"
    },
    {
      "inputs": [],
      "name": "decimals",
      "outputs": [
        {
          "internalType": "uint8",
          "name": "",
          "type": "uint8"
        }
      ],
      "stateMutability": "view",
      "type": "function"
    },
    {
      "inputs": [],
      "name": "donationAddress",
      "outputs": [
        {
          "internalType": "address",
          "name": "",
          "type": "address"
        }
      ],
      "stateMutability": "view",
      "type": "function"
    },
    {
      "inputs": [],
      "name": "endpoint",
      "outputs": [
        {
          "internalType": "contract ILayerZeroEndpointV2",
          "name": "",
          "type": "address"
        }
      ],
      "stateMutability": "view",
      "type": "function"
    },
    {
      "inputs": [
        {
          "internalType": "uint32",
          "name": "eid",
          "type": "uint32"
        },
        {
          "internalType": "uint16",
          "name": "msgType",
          "type": "uint16"
        }
      ],
      "name": "enforcedOptions",
      "outputs": [
        {
          "internalType": "bytes",
          "name": "enforcedOption",
          "type": "bytes"
        }
      ],
      "stateMutability": "view",
      "type": "function"
    },
    {
      "inputs": [
        {
          "components": [
            {
              "internalType": "uint32",
              "name": "srcEid",
              "type": "uint32"
            },
            {
              "internalType": "bytes32",
              "name": "sender",
              "type": "bytes32"
            },
            {
              "internalType": "uint64",
              "name": "nonce",
              "type": "uint64"
            }
          ],
          "internalType": "struct Origin",
          "name": "",
          "type": "tuple"
        },
        {
          "internalType": "bytes",
          "name": "",
          "type": "bytes"
        },
        {
          "internalType": "address",
          "name": "_sender",
          "type": "address"
        }
      ],
      "name": "isComposeMsgSender",
      "outputs": [
        {
          "internalType": "bool",
          "name": "",
          "type": "bool"
        }
      ],
      "stateMutability": "view",
      "type": "function"
    },
    {
      "inputs": [
        {
          "internalType": "uint32",
          "name": "_eid",
          "type": "uint32"
        },
        {
          "internalType": "bytes32",
          "name": "_peer",
          "type": "bytes32"
        }
      ],
      "name": "isPeer",
      "outputs": [
        {
          "internalType": "bool",
          "name": "",
          "type": "bool"
        }
      ],
      "stateMutability": "view",
      "type": "function"
    },
    {
      "inputs": [
        {
          "components": [
            {
              "internalType": "uint32",
              "name": "srcEid",
              "type": "uint32"
            },
            {
              "internalType": "bytes32",
              "name": "sender",
              "type": "bytes32"
            },
            {
              "internalType": "uint64",
              "name": "nonce",
              "type": "uint64"
            }
          ],
          "internalType": "struct Origin",
          "name": "_origin",
          "type": "tuple"
        },
        {
          "internalType": "bytes32",
          "name": "_guid",
          "type": "bytes32"
        },
        {
          "internalType": "bytes",
          "name": "_message",
          "type": "bytes"
        },
        {
          "internalType": "address",
          "name": "_executor",
          "type": "address"
        },
        {
          "internalType": "bytes",
          "name": "_extraData",
          "type": "bytes"
        }
      ],
      "name": "lzReceive",
      "outputs": [],
      "stateMutability": "payable",
      "type": "function"
    },
    {
      "inputs": [
        {
          "components": [
            {
              "components": [
                {
                  "internalType": "uint32",
                  "name": "srcEid",
                  "type": "uint32"
                },
                {
                  "internalType": "bytes32",
                  "name": "sender",
                  "type": "bytes32"
                },
                {
                  "internalType": "uint64",
                  "name": "nonce",
                  "type": "uint64"
                }
              ],
              "internalType": "struct Origin",
              "name": "origin",
              "type": "tuple"
            },
            {
              "internalType": "uint32",
              "name": "dstEid",
              "type": "uint32"
            },
            {
              "internalType": "address",
              "name": "receiver",
              "type": "address"
            },
            {
              "internalType": "bytes32",
              "name": "guid",
              "type": "bytes32"
            },
            {
              "internalType": "uint256",
              "name": "value",
              "type": "uint256"
            },
            {
              "internalType": "address",
              "name": "executor",
              "type": "address"
            },
            {
              "internalType": "bytes",
              "name": "message",
              "type": "bytes"
            },
            {
              "internalType": "bytes",
              "name": "extraData",
              "type": "bytes"
            }
          ],
          "internalType": "struct InboundPacket[]",
          "name": "_packets",
          "type": "tuple[]"
        }
      ],
      "name": "lzReceiveAndRevert",
      "outputs": [],
      "stateMutability": "payable",
      "type": "function"
    },
    {
      "inputs": [
        {
          "components": [
            {
              "internalType": "uint32",
              "name": "srcEid",
              "type": "uint32"
            },
            {
              "internalType": "bytes32",
              "name": "sender",
              "type": "bytes32"
            },
            {
              "internalType": "uint64",
              "name": "nonce",
              "type": "uint64"
            }
          ],
          "internalType": "struct Origin",
          "name": "_origin",
          "type": "tuple"
        },
        {
          "internalType": "bytes32",
          "name": "_guid",
          "type": "bytes32"
        },
        {
          "internalType": "bytes",
          "name": "_message",
          "type": "bytes"
        },
        {
          "internalType": "address",
          "name": "_executor",
          "type": "address"
        },
        {
          "internalType": "bytes",
          "name": "_extraData",
          "type": "bytes"
        }
      ],
      "name": "lzReceiveSimulate",
      "outputs": [],
      "stateMutability": "payable",
      "type": "function"
    },
    {
      "inputs": [
        {
          "internalType": "address",
          "name": "_to",
          "type": "address"
        },
        {
          "internalType": "uint256",
          "name": "_amount",
          "type": "uint256"
        }
      ],
      "name": "mint",
      "outputs": [],
      "stateMutability": "nonpayable",
      "type": "function"
    },
    {
      "inputs": [],
      "name": "msgInspector",
      "outputs": [
        {
          "internalType": "address",
          "name": "",
          "type": "address"
        }
      ],
      "stateMutability": "view",
      "type": "function"
    },
    {
      "inputs": [],
      "name": "name",
      "outputs": [
        {
          "internalType": "string",
          "name": "",
          "type": "string"
        }
      ],
      "stateMutability": "view",
      "type": "function"
    },
    {
      "inputs": [
        {
          "internalType": "uint32",
          "name": "",
          "type": "uint32"
        },
        {
          "internalType": "bytes32",
          "name": "",
          "type": "bytes32"
        }
      ],
      "name": "nextNonce",
      "outputs": [
        {
          "internalType": "uint64",
          "name": "nonce",
          "type": "uint64"
        }
      ],
      "stateMutability": "view",
      "type": "function"
    },
    {
      "inputs": [],
      "name": "oApp",
      "outputs": [
        {
          "internalType": "address",
          "name": "",
          "type": "address"
        }
      ],
      "stateMutability": "view",
      "type": "function"
    },
    {
      "inputs": [],
      "name": "oAppVersion",
      "outputs": [
        {
          "internalType": "uint64",
          "name": "senderVersion",
          "type": "uint64"
        },
        {
          "internalType": "uint64",
          "name": "receiverVersion",
          "type": "uint64"
        }
      ],
      "stateMutability": "pure",
      "type": "function"
    },
    {
      "inputs": [],
      "name": "oftVersion",
      "outputs": [
        {
          "internalType": "bytes4",
          "name": "interfaceId",
          "type": "bytes4"
        },
        {
          "internalType": "uint64",
          "name": "version",
          "type": "uint64"
        }
      ],
      "stateMutability": "pure",
      "type": "function"
    },
    {
      "inputs": [],
      "name": "owner",
      "outputs": [
        {
          "internalType": "address",
          "name": "",
          "type": "address"
        }
      ],
      "stateMutability": "view",
      "type": "function"
    },
    {
      "inputs": [
        {
          "internalType": "uint32",
          "name": "eid",
          "type": "uint32"
        }
      ],
      "name": "peers",
      "outputs": [
        {
          "internalType": "bytes32",
          "name": "peer",
          "type": "bytes32"
        }
      ],
      "stateMutability": "view",
      "type": "function"
    },
    {
      "inputs": [],
      "name": "preCrime",
      "outputs": [
        {
          "internalType": "address",
          "name": "",
          "type": "address"
        }
      ],
      "stateMutability": "view",
      "type": "function"
    },
    {
      "inputs": [
        {
          "components": [
            {
              "internalType": "uint32",
              "name": "dstEid",
              "type": "uint32"
            },
            {
              "internalType": "bytes32",
              "name": "to",
              "type": "bytes32"
            },
            {
              "internalType": "uint256",
              "name": "amountLD",
              "type": "uint256"
            },
            {
              "internalType": "uint256",
              "name": "minAmountLD",
              "type": "uint256"
            },
            {
              "internalType": "bytes",
              "name": "extraOptions",
              "type": "bytes"
            },
            {
              "internalType": "bytes",
              "name": "composeMsg",
              "type": "bytes"
            },
            {
              "internalType": "bytes",
              "name": "oftCmd",
              "type": "bytes"
            }
          ],
          "internalType": "struct SendParam",
          "name": "_sendParam",
          "type": "tuple"
        }
      ],
      "name": "quoteOFT",
      "outputs": [
        {
          "components": [
            {
              "internalType": "uint256",
              "name": "minAmountLD",
              "type": "uint256"
            },
            {
              "internalType": "uint256",
              "name": "maxAmountLD",
              "type": "uint256"
            }
          ],
          "internalType": "struct OFTLimit",
          "name": "oftLimit",
          "type": "tuple"
        },
        {
          "components": [
            {
              "internalType": "int256",
              "name": "feeAmountLD",
              "type": "int256"
            },
            {
              "internalType": "string",
              "name": "description",
              "type": "string"
            }
          ],
          "internalType": "struct OFTFeeDetail[]",
          "name": "oftFeeDetails",
          "type": "tuple[]"
        },
        {
          "components": [
            {
              "internalType": "uint256",
              "name": "amountSentLD",
              "type": "uint256"
            },
            {
              "internalType": "uint256",
              "name": "amountReceivedLD",
              "type": "uint256"
            }
          ],
          "internalType": "struct OFTReceipt",
          "name": "oftReceipt",
          "type": "tuple"
        }
      ],
      "stateMutability": "view",
      "type": "function"
    },
    {
      "inputs": [
        {
          "components": [
            {
              "internalType": "uint32",
              "name": "dstEid",
              "type": "uint32"
            },
            {
              "internalType": "bytes32",
              "name": "to",
              "type": "bytes32"
            },
            {
              "internalType": "uint256",
              "name": "amountLD",
              "type": "uint256"
            },
            {
              "internalType": "uint256",
              "name": "minAmountLD",
              "type": "uint256"
            },
            {
              "internalType": "bytes",
              "name": "extraOptions",
              "type": "bytes"
            },
            {
              "internalType": "bytes",
              "name": "composeMsg",
              "type": "bytes"
            },
            {
              "internalType": "bytes",
              "name": "oftCmd",
              "type": "bytes"
            }
          ],
          "internalType": "struct SendParam",
          "name": "_sendParam",
          "type": "tuple"
        },
        {
          "internalType": "bool",
          "name": "_payInLzToken",
          "type": "bool"
        }
      ],
      "name": "quoteSend",
      "outputs": [
        {
          "components": [
            {
              "internalType": "uint256",
              "name": "nativeFee",
              "type": "uint256"
            },
            {
              "internalType": "uint256",
              "name": "lzTokenFee",
              "type": "uint256"
            }
          ],
          "internalType": "struct MessagingFee",
          "name": "msgFee",
          "type": "tuple"
        }
      ],
      "stateMutability": "view",
      "type": "function"
    },
    {
      "inputs": [],
      "name": "renounceOwnership",
      "outputs": [],
      "stateMutability": "nonpayable",
      "type": "function"
    },
    {
      "inputs": [
        {
          "components": [
            {
              "internalType": "uint32",
              "name": "dstEid",
              "type": "uint32"
            },
            {
              "internalType": "bytes32",
              "name": "to",
              "type": "bytes32"
            },
            {
              "internalType": "uint256",
              "name": "amountLD",
              "type": "uint256"
            },
            {
              "internalType": "uint256",
              "name": "minAmountLD",
              "type": "uint256"
            },
            {
              "internalType": "bytes",
              "name": "extraOptions",
              "type": "bytes"
            },
            {
              "internalType": "bytes",
              "name": "composeMsg",
              "type": "bytes"
            },
            {
              "internalType": "bytes",
              "name": "oftCmd",
              "type": "bytes"
            }
          ],
          "internalType": "struct SendParam",
          "name": "_sendParam",
          "type": "tuple"
        },
        {
          "components": [
            {
              "internalType": "uint256",
              "name": "nativeFee",
              "type": "uint256"
            },
            {
              "internalType": "uint256",
              "name": "lzTokenFee",
              "type": "uint256"
            }
          ],
          "internalType": "struct MessagingFee",
          "name": "_fee",
          "type": "tuple"
        },
        {
          "internalType": "address",
          "name": "_refundAddress",
          "type": "address"
        }
      ],
      "name": "send",
      "outputs": [
        {
          "components": [
            {
              "internalType": "bytes32",
              "name": "guid",
              "type": "bytes32"
            },
            {
              "internalType": "uint64",
              "name": "nonce",
              "type": "uint64"
            },
            {
              "components": [
                {
                  "internalType": "uint256",
                  "name": "nativeFee",
                  "type": "uint256"
                },
                {
                  "internalType": "uint256",
                  "name": "lzTokenFee",
                  "type": "uint256"
                }
              ],
              "internalType": "struct MessagingFee",
              "name": "fee",
              "type": "tuple"
            }
          ],
          "internalType": "struct MessagingReceipt",
          "name": "msgReceipt",
          "type": "tuple"
        },
        {
          "components": [
            {
              "internalType": "uint256",
              "name": "amountSentLD",
              "type": "uint256"
            },
            {
              "internalType": "uint256",
              "name": "amountReceivedLD",
              "type": "uint256"
            }
          ],
          "internalType": "struct OFTReceipt",
          "name": "oftReceipt",
          "type": "tuple"
        }
      ],
      "stateMutability": "payable",
      "type": "function"
    },
    {
      "inputs": [
        {
          "internalType": "address",
          "name": "_delegate",
          "type": "address"
        }
      ],
      "name": "setDelegate",
      "outputs": [],
      "stateMutability": "nonpayable",
      "type": "function"
    },
    {
      "inputs": [
        {
          "components": [
            {
              "internalType": "uint32",
              "name": "eid",
              "type": "uint32"
            },
            {
              "internalType": "uint16",
              "name": "msgType",
              "type": "uint16"
            },
            {
              "internalType": "bytes",
              "name": "options",
              "type": "bytes"
            }
          ],
          "internalType": "struct EnforcedOptionParam[]",
          "name": "_enforcedOptions",
          "type": "tuple[]"
        }
      ],
      "name": "setEnforcedOptions",
      "outputs": [],
      "stateMutability": "nonpayable",
      "type": "function"
    },
    {
      "inputs": [
        {
          "internalType": "address",
          "name": "_msgInspector",
          "type": "address"
        }
      ],
      "name": "setMsgInspector",
      "outputs": [],
      "stateMutability": "nonpayable",
      "type": "function"
    },
    {
      "inputs": [
        {
          "internalType": "uint32",
          "name": "_eid",
          "type": "uint32"
        },
        {
          "internalType": "bytes32",
          "name": "_peer",
          "type": "bytes32"
        }
      ],
      "name": "setPeer",
      "outputs": [],
      "stateMutability": "nonpayable",
      "type": "function"
    },
    {
      "inputs": [
        {
          "internalType": "address",
          "name": "_preCrime",
          "type": "address"
        }
      ],
      "name": "setPreCrime",
      "outputs": [],
      "stateMutability": "nonpayable",
      "type": "function"
    },
    {
      "inputs": [],
      "name": "sharedDecimals",
      "outputs": [
        {
          "internalType": "uint8",
          "name": "",
          "type": "uint8"
        }
      ],
      "stateMutability": "view",
      "type": "function"
    },
    {
      "inputs": [],
      "name": "symbol",
      "outputs": [
        {
          "internalType": "string",
          "name": "",
          "type": "string"
        }
      ],
      "stateMutability": "view",
      "type": "function"
    },
    {
      "inputs": [],
      "name": "token",
      "outputs": [
        {
          "internalType": "address",
          "name": "",
          "type": "address"
        }
      ],
      "stateMutability": "view",
      "type": "function"
    },
    {
      "inputs": [],
      "name": "totalSupply",
      "outputs": [
        {
          "internalType": "uint256",
          "name": "",
          "type": "uint256"
        }
      ],
      "stateMutability": "view",
      "type": "function"
    },
    {
      "inputs": [
        {
          "internalType": "address",
          "name": "to",
          "type": "address"
        },
        {
          "internalType": "uint256",
          "name": "value",
          "type": "uint256"
        }
      ],
      "name": "transfer",
      "outputs": [
        {
          "internalType": "bool",
          "name": "",
          "type": "bool"
        }
      ],
      "stateMutability": "nonpayable",
      "type": "function"
    },
    {
      "inputs": [
        {
          "internalType": "address",
          "name": "from",
          "type": "address"
        },
        {
          "internalType": "address",
          "name": "to",
          "type": "address"
        },
        {
          "internalType": "uint256",
          "name": "value",
          "type": "uint256"
        }
      ],
      "name": "transferFrom",
      "outputs": [
        {
          "internalType": "bool",
          "name": "",
          "type": "bool"
        }
      ],
      "stateMutability": "nonpayable",
      "type": "function"
    },
    {
      "inputs": [
        {
          "internalType": "address",
          "name": "newOwner",
          "type": "address"
        }
      ],
      "name": "transferOwnership",
      "outputs": [],
      "stateMutability": "nonpayable",
      "type": "function"
    },
    {
      "stateMutability": "payable",
      "type": "receive"
    }
  ],
  "bytecode": "0x60c0604052600a80546001600160a01b03191673be058ee0884696653e01cfc6f34678f2762d84db1790553480156200003757600080fd5b50604051620038a2380380620038a28339810160408190526200005a91620002f8565b83838383838360128484818181818d6001600160a01b0381166200009857604051631e4fbdf760e01b81526000600482015260240160405180910390fd5b620000a381620001be565b506001600160a01b038083166080528116620000d257604051632d618d8160e21b815260040160405180910390fd5b60805160405163ca5eb5e160e01b81526001600160a01b0383811660048301529091169063ca5eb5e190602401600060405180830381600087803b1580156200011a57600080fd5b505af11580156200012f573d6000803e3d6000fd5b5050505050505050620001476200020e60201b60201c565b60ff168360ff1610156200016e576040516301e9714b60e41b815260040160405180910390fd5b6200017b6006846200039d565b6200018890600a620004bc565b60a05250600891506200019e9050838262000565565b506009620001ad828262000565565b505050505050505050505062000631565b600080546001600160a01b038381166001600160a01b0319831681178455604051919092169283917f8be0079c531659141344cd1fd0a4f28419497f9722a3daafe3b4186f6b6457e09190a35050565b600690565b634e487b7160e01b600052604160045260246000fd5b600082601f8301126200023b57600080fd5b81516001600160401b038082111562000258576200025862000213565b604051601f8301601f19908116603f0116810190828211818310171562000283576200028362000213565b8160405283815260209250866020858801011115620002a157600080fd5b600091505b83821015620002c55785820183015181830184015290820190620002a6565b6000602085830101528094505050505092915050565b80516001600160a01b0381168114620002f357600080fd5b919050565b600080600080608085870312156200030f57600080fd5b84516001600160401b03808211156200032757600080fd5b620003358883890162000229565b955060208701519150808211156200034c57600080fd5b506200035b8782880162000229565b9350506200036c60408601620002db565b91506200037c60608601620002db565b905092959194509250565b634e487b7160e01b600052601160045260246000fd5b60ff8281168282160390811115620003b957620003b962000387565b92915050565b600181815b8085111562000400578160001904821115620003e457620003e462000387565b80851615620003f257918102915b93841c9390800290620003c4565b509250929050565b6000826200041957506001620003b9565b816200042857506000620003b9565b81600181146200044157600281146200044c576200046c565b6001915050620003b9565b60ff84111562000460576200046062000387565b50506001821b620003b9565b5060208310610133831016604e8410600b841016171562000491575081810a620003b9565b6200049d8383620003bf565b8060001904821115620004b457620004b462000387565b029392505050565b6000620004cd60ff84168362000408565b9392505050565b600181811c90821680620004e957607f821691505b6020821081036200050a57634e487b7160e01b600052602260045260246000fd5b50919050565b601f82111562000560576000816000526020600020601f850160051c810160208610156200053b5750805b601f850160051c820191505b818110156200055c5782815560010162000547565b5050505b505050565b81516001600160401b0381111562000581576200058162000213565b6200059981620005928454620004d4565b8462000510565b602080601f831160018114620005d15760008415620005b85750858301515b600019600386901b1c1916600185901b1785556200055c565b600085815260208120601f198616915b828110156200060257888601518255948401946001909101908401620005e1565b5085821015620006215787850151600019600388901b60f8161c191681555b5050505050600190811b01905550565b60805160a0516132056200069d6000396000818161064201528181611a8e01528181611d590152611f6b01526000818161050101528181610a91015281816110eb0152818161163601528181611b5601528181611e51015281816120a0015261215701526132056000f3fe6080604052600436106102535760003560e01c80637d25a05e11610138578063bc70b354116100b0578063d424388511610077578063d42438851461078c578063dd62ed3e146107ac578063ec034bed146107f2578063f2fde38b14610812578063fc0c546a14610485578063ff7bd03d1461083257005b8063bc70b35414610705578063bd815db014610725578063c7c7f5b314610738578063ca5eb5e114610759578063d045a0dc1461077957005b8063963efcaa116100ff578063963efcaa146106305780639f68b96414610664578063a9059cbb14610678578063b731ea0a14610698578063b98bd070146106b8578063bb0b6a53146106d857005b80637d25a05e1461058e57806382413eac146105c9578063857749b0146105e95780638da5cb5b146105fd57806395d89b411461061b57005b8063313ce567116101cb5780635535d461116101925780635535d461146104985780635a0dfe4d146104b85780635e280f11146104ef5780636fc1b31e1461052357806370a0823114610543578063715018a61461057957005b8063313ce567146103f65780633400288b146104185780633b6f743b1461043857806340c10f191461046557806352ae28791461048557005b8063134d4f251161021a578063134d4f2514610331578063156a0d0f1461035957806317442b701461038057806318160ddd146103a25780631f5e1334146103c157806323b872dd146103d657005b806306fdde031461025c578063095ea7b3146102875780630d35b415146102b7578063111ecdad146102e657806313137d651461031e57005b3661025a57005b005b34801561026857600080fd5b50610271610852565b60405161027e91906122cf565b60405180910390f35b34801561029357600080fd5b506102a76102a23660046122f7565b6108e4565b604051901515815260200161027e565b3480156102c357600080fd5b506102d76102d236600461233b565b6108fe565b60405161027e9392919061236f565b3480156102f257600080fd5b50600454610306906001600160a01b031681565b6040516001600160a01b03909116815260200161027e565b61025a61032c366004612462565b610a8f565b34801561033d57600080fd5b50610346600281565b60405161ffff909116815260200161027e565b34801561036557600080fd5b506040805162b9270b60e21b8152600160208201520161027e565b34801561038c57600080fd5b506040805160018152600260208201520161027e565b3480156103ae57600080fd5b506007545b60405190815260200161027e565b3480156103cd57600080fd5b50610346600181565b3480156103e257600080fd5b506102a76103f1366004612501565b610b4f565b34801561040257600080fd5b5060125b60405160ff909116815260200161027e565b34801561042457600080fd5b5061025a61043336600461255b565b610b75565b34801561044457600080fd5b50610458610453366004612585565b610b8b565b60405161027e91906125d6565b34801561047157600080fd5b5061025a6104803660046122f7565b610bf2565b34801561049157600080fd5b5030610306565b3480156104a457600080fd5b506102716104b33660046125ff565b610bfc565b3480156104c457600080fd5b506102a76104d336600461255b565b63ffffffff919091166000908152600160205260409020541490565b3480156104fb57600080fd5b506103067f000000000000000000000000000000000000000000000000000000000000000081565b34801561052f57600080fd5b5061025a61053e366004612632565b610ca1565b34801561054f57600080fd5b506103b361055e366004612632565b6001600160a01b031660009081526005602052604090205490565b34801561058557600080fd5b5061025a610cfe565b34801561059a57600080fd5b506105b16105a936600461255b565b600092915050565b6040516001600160401b03909116815260200161027e565b3480156105d557600080fd5b506102a76105e436600461264f565b610d12565b3480156105f557600080fd5b506006610406565b34801561060957600080fd5b506000546001600160a01b0316610306565b34801561062757600080fd5b50610271610d27565b34801561063c57600080fd5b506103b37f000000000000000000000000000000000000000000000000000000000000000081565b34801561067057600080fd5b5060006102a7565b34801561068457600080fd5b506102a76106933660046122f7565b610d36565b3480156106a457600080fd5b50600254610306906001600160a01b031681565b3480156106c457600080fd5b5061025a6106d33660046126f9565b610d44565b3480156106e457600080fd5b506103b36106f336600461273a565b60016020526000908152604090205481565b34801561071157600080fd5b50610271610720366004612755565b610d5e565b61025a6107333660046126f9565b610f06565b61074b6107463660046127b5565b611090565b60405161027e929190612822565b34801561076557600080fd5b5061025a610774366004612632565b6110c4565b61025a610787366004612462565b61114a565b34801561079857600080fd5b5061025a6107a7366004612632565b611179565b3480156107b857600080fd5b506103b36107c7366004612874565b6001600160a01b03918216600090815260066020908152604080832093909416825291909152205490565b3480156107fe57600080fd5b50600a54610306906001600160a01b031681565b34801561081e57600080fd5b5061025a61082d366004612632565b6111cf565b34801561083e57600080fd5b506102a761084d3660046128a2565b61120d565b606060088054610861906128be565b80601f016020809104026020016040519081016040528092919081815260200182805461088d906128be565b80156108da5780601f106108af576101008083540402835291602001916108da565b820191906000526020600020905b8154815290600101906020018083116108bd57829003601f168201915b5050505050905090565b6000336108f2818585611243565b60019150505b92915050565b60408051808201909152600080825260208201526060610931604051806040016040528060008152602001600081525090565b600080306001600160a01b031663fc0c546a6040518163ffffffff1660e01b8152600401602060405180830381865afa158015610972573d6000803e3d6000fd5b505050506040513d601f19601f8201168201806040525081019061099691906128f2565b6001600160a01b03166318160ddd6040518163ffffffff1660e01b8152600401602060405180830381865afa1580156109d3573d6000803e3d6000fd5b505050506040513d601f19601f820116820180604052508101906109f7919061290f565b60408051808201825284815260208082018490528251600080825291810190935290975091925090610a4c565b604080518082019091526000815260606020820152815260200190600190039081610a245790505b509350600080610a71604089013560608a0135610a6c60208c018c61273a565b611255565b60408051808201909152918252602082015296989597505050505050565b7f00000000000000000000000000000000000000000000000000000000000000006001600160a01b03163314610adf576040516391ac5e4f60e01b81523360048201526024015b60405180910390fd5b60208701803590610af990610af4908a61273a565b611291565b14610b3757610b0b602088018861273a565b60405163309afaf360e21b815263ffffffff909116600482015260208801356024820152604401610ad6565b610b46878787878787876112cd565b50505050505050565b600033610b5d85828561139d565b610b6885858561141c565b60019150505b9392505050565b610b7d61147b565b610b8782826114a8565b5050565b60408051808201909152600080825260208201526000610bbb60408501356060860135610a6c602088018861273a565b915050600080610bcb86846114fd565b9092509050610be8610be0602088018861273a565b838388611620565b9695505050505050565b610b878282611701565b600360209081526000928352604080842090915290825290208054610c20906128be565b80601f0160208091040260200160405190810160405280929190818152602001828054610c4c906128be565b8015610c995780601f10610c6e57610100808354040283529160200191610c99565b820191906000526020600020905b815481529060010190602001808311610c7c57829003601f168201915b505050505081565b610ca961147b565b600480546001600160a01b0319166001600160a01b0383169081179091556040519081527ff0be4f1e87349231d80c36b33f9e8639658eeaf474014dee15a3e6a4d4414197906020015b60405180910390a150565b610d0661147b565b610d106000611737565b565b6001600160a01b03811630145b949350505050565b606060098054610861906128be565b6000336108f281858561141c565b610d4c61147b565b610b87610d5982846129df565b611787565b63ffffffff8416600090815260036020908152604080832061ffff87168452909152812080546060929190610d92906128be565b80601f0160208091040260200160405190810160405280929190818152602001828054610dbe906128be565b8015610e0b5780601f10610de057610100808354040283529160200191610e0b565b820191906000526020600020905b815481529060010190602001808311610dee57829003601f168201915b505050505090508051600003610e5b5783838080601f016020809104026020016040519081016040528093929190818152602001838380828437600092019190915250929450610d1f9350505050565b6000839003610e6b579050610d1f565b60028310610ee957610eb284848080601f01602080910402602001604051908101604052809392919081815260200183838082843760009201919091525061188e92505050565b80610ec08460028188612af4565b604051602001610ed293929190612b1e565b604051602081830303815290604052915050610d1f565b8383604051639a6d49cd60e01b8152600401610ad6929190612b6f565b60005b8181101561100f5736838383818110610f2457610f24612b83565b9050602002810190610f369190612b99565b9050610f69610f48602083018361273a565b602083013563ffffffff919091166000908152600160205260409020541490565b610f735750611007565b3063d045a0dc60c08301358360a0810135610f92610100830183612bba565b610fa3610100890160e08a01612632565b610fb16101208a018a612bba565b6040518963ffffffff1660e01b8152600401610fd39796959493929190612c15565b6000604051808303818588803b158015610fec57600080fd5b505af1158015611000573d6000803e3d6000fd5b5050505050505b600101610f09565b50336001600160a01b0316638e9e70996040518163ffffffff1660e01b8152600401600060405180830381865afa15801561104e573d6000803e3d6000fd5b505050506040513d6000823e601f3d908101601f191682016040526110769190810190612c9b565b604051638351eea760e01b8152600401610ad691906122cf565b611098612238565b60408051808201909152600080825260208201526110b78585856118ba565b915091505b935093915050565b6110cc61147b565b60405163ca5eb5e160e01b81526001600160a01b0382811660048301527f0000000000000000000000000000000000000000000000000000000000000000169063ca5eb5e190602401600060405180830381600087803b15801561112f57600080fd5b505af1158015611143573d6000803e3d6000fd5b5050505050565b33301461116a5760405163029a949d60e31b815260040160405180910390fd5b610b4687878787878787610b37565b61118161147b565b600280546001600160a01b0319166001600160a01b0383169081179091556040519081527fd48d879cef83a1c0bdda516f27b13ddb1b3f8bbac1c9e1511bb2a659c242776090602001610cf3565b6111d761147b565b6001600160a01b03811661120157604051631e4fbdf760e01b815260006004820152602401610ad6565b61120a81611737565b50565b6000602082018035906001908390611225908661273a565b63ffffffff1681526020810191909152604001600020541492915050565b61125083838360016119b5565b505050565b60008061126185611a8a565b9150819050838110156110bc576040516371c4efed60e01b81526004810182905260248101859052604401610ad6565b63ffffffff8116600090815260016020526040812054806108f85760405163f6ff4fb760e01b815263ffffffff84166004820152602401610ad6565b7f915533958a6ea84059c1e9af4fdeab1eb5c1b2ac3b8b0498dae77eae7b88b37586868660405161130093929190612d08565b60405180910390a1600a471061138e57600a80546040516001600160a01b039091169160009182818181858883f19350505050158015611344573d6000803e3d6000fd5b50600a8054604080516001600160a01b03909216825260208201929092527f67a9bd2734eac78f1ac30823ea3d8e3c8b2be225836b3a4917ed0c15508f40aa910160405180910390a15b610b4687878787878787611ac1565b6001600160a01b03838116600090815260066020908152604080832093861683529290522054600019811015611416578181101561140757604051637dc7a0d960e11b81526001600160a01b03841660048201526024810182905260448101839052606401610ad6565b611416848484840360006119b5565b50505050565b6001600160a01b03831661144657604051634b637e8f60e11b815260006004820152602401610ad6565b6001600160a01b0382166114705760405163ec442f0560e01b815260006004820152602401610ad6565b611250838383611c28565b6000546001600160a01b03163314610d105760405163118cdaa760e01b8152336004820152602401610ad6565b63ffffffff8216600081815260016020908152604091829020849055815192835282018390527f238399d427b947898edb290f5ff0f9109849b1c3ba196a42e35f00c50a54b98b910160405180910390a15050565b606080600061155a856020013561151386611d52565b61152060a0890189612bba565b8080601f016020809104026020016040519081016040528093929190818152602001838380828437600092019190915250611d7e92505050565b909350905060008161156d576001611570565b60025b9050611590611582602088018861273a565b8261072060808a018a612bba565b6004549093506001600160a01b031680156116165760405163043a78eb60e01b81526001600160a01b0382169063043a78eb906115d39088908890600401612d22565b602060405180830381865afa1580156115f0573d6000803e3d6000fd5b505050506040513d601f19601f820116820180604052508101906116149190612d47565b505b5050509250929050565b60408051808201909152600080825260208201527f00000000000000000000000000000000000000000000000000000000000000006001600160a01b031663ddc28c586040518060a001604052808863ffffffff16815260200161168389611291565b8152602001878152602001868152602001851515815250306040518363ffffffff1660e01b81526004016116b8929190612d64565b6040805180830381865afa1580156116d4573d6000803e3d6000fd5b505050506040513d601f19601f820116820180604052508101906116f89190612e0d565b95945050505050565b6001600160a01b03821661172b5760405163ec442f0560e01b815260006004820152602401610ad6565b610b8760008383611c28565b600080546001600160a01b038381166001600160a01b0319831681178455604051919092169283917f8be0079c531659141344cd1fd0a4f28419497f9722a3daafe3b4186f6b6457e09190a35050565b60005b815181101561185e576117b98282815181106117a8576117a8612b83565b60200260200101516040015161188e565b8181815181106117cb576117cb612b83565b602002602001015160400151600360008484815181106117ed576117ed612b83565b60200260200101516000015163ffffffff1663ffffffff168152602001908152602001600020600084848151811061182757611827612b83565b60200260200101516020015161ffff1661ffff16815260200190815260200160002090816118559190612e79565b5060010161178a565b507fbe4864a8e820971c0247f5992e2da559595f7bf076a21cb5928d443d2a13b67481604051610cf39190612f38565b600281015161ffff8116600314610b875781604051639a6d49cd60e01b8152600401610ad691906122cf565b6118c2612238565b60408051808201909152600080825260208201526000806118f933604089013560608a01356118f460208c018c61273a565b611df8565b9150915060008061190a89846114fd565b909250905061193661191f60208b018b61273a565b8383611930368d90038d018d612fc3565b8b611e1e565b60408051808201909152858152602080820186905282519298509096503391907f85496b760a4b7f8d66384b9df21b381f5d1b1e79f229a47aaf4c232edc2fe59a90611984908d018d61273a565b6040805163ffffffff909216825260208201899052810187905260600160405180910390a350505050935093915050565b6001600160a01b0384166119df5760405163e602df0560e01b815260006004820152602401610ad6565b6001600160a01b038316611a0957604051634a1406b160e11b815260006004820152602401610ad6565b6001600160a01b038085166000908152600660209081526040808320938716835292905220829055801561141657826001600160a01b0316846001600160a01b03167f8c5be1e5ebec7d5bd14f71427d1e84f3dd0314c0f7b2291e5b200ac8c7c3b92584604051611a7c91815260200190565b60405180910390a350505050565b60007f0000000000000000000000000000000000000000000000000000000000000000611ab7818461300b565b6108f8919061302d565b6000611ad3611ad08787611f29565b90565b90506000611aff82611aed611ae88a8a611f41565b611f64565b611afa60208d018d61273a565b611f99565b90506028861115611bc6576000611b3c611b1f60608c0160408d01613044565b611b2c60208d018d61273a565b84611b378c8c611fc1565b61200c565b604051633e5ac80960e11b81529091506001600160a01b037f00000000000000000000000000000000000000000000000000000000000000001690637cb5901290611b929086908d906000908790600401613061565b600060405180830381600087803b158015611bac57600080fd5b505af1158015611bc0573d6000803e3d6000fd5b50505050505b6001600160a01b038216887fefed6d3500546b29533b128a29e3a94d70788727f0507505ac12eaf2e578fd9c611bff60208d018d61273a565b6040805163ffffffff9092168252602082018690520160405180910390a3505050505050505050565b6001600160a01b038316611c53578060076000828254611c489190613092565b90915550611cc59050565b6001600160a01b03831660009081526005602052604090205481811015611ca65760405163391434e360e21b81526001600160a01b03851660048201526024810182905260448101839052606401610ad6565b6001600160a01b03841660009081526005602052604090209082900390555b6001600160a01b038216611ce157600780548290039055611d00565b6001600160a01b03821660009081526005602052604090208054820190555b816001600160a01b0316836001600160a01b03167fddf252ad1be2c89b69c2b068fc378daa952ba7f163c4a11628f55a4df523b3ef83604051611d4591815260200190565b60405180910390a3505050565b60006108f87f00000000000000000000000000000000000000000000000000000000000000008361300b565b8051606090151580611dc7578484604051602001611db392919091825260c01b6001600160c01b031916602082015260280190565b604051602081830303815290604052611dee565b84843385604051602001611dde94939291906130a5565b6040516020818303038152906040525b9150935093915050565b600080611e06858585611255565b9092509050611e15868361203e565b94509492505050565b611e26612238565b6000611e358460000151612074565b602085015190915015611e4f57611e4f846020015161209c565b7f00000000000000000000000000000000000000000000000000000000000000006001600160a01b0316632637a450826040518060a001604052808b63ffffffff168152602001611e9f8c611291565b81526020018a815260200189815260200160008960200151111515815250866040518463ffffffff1660e01b8152600401611edb929190612d64565b60806040518083038185885af1158015611ef9573d6000803e3d6000fd5b50505050506040513d601f19601f82011682018060405250810190611f1e91906130e8565b979650505050505050565b6000611f386020828486612af4565b610b6e91613132565b6000611f51602860208486612af4565b611f5a91613150565b60c01c9392505050565b60006108f87f00000000000000000000000000000000000000000000000000000000000000006001600160401b03841661302d565b60006001600160a01b038416611faf5761dead93505b611fb98484611701565b509092915050565b6060611fd08260288186612af4565b8080601f016020809104026020016040519081016040528093929190818152602001838380828437600092019190915250929695505050505050565b6060848484846040516020016120259493929190613180565b6040516020818303038152906040529050949350505050565b6001600160a01b03821661206857604051634b637e8f60e11b815260006004820152602401610ad6565b610b8782600083611c28565b6000813414612098576040516304fb820960e51b8152346004820152602401610ad6565b5090565b60007f00000000000000000000000000000000000000000000000000000000000000006001600160a01b031663e4fe1d946040518163ffffffff1660e01b8152600401602060405180830381865afa1580156120fc573d6000803e3d6000fd5b505050506040513d601f19601f8201168201806040525081019061212091906128f2565b90506001600160a01b038116612149576040516329b99a9560e11b815260040160405180910390fd5b6040805133602482018190527f00000000000000000000000000000000000000000000000000000000000000006001600160a01b0381811660448501526064808501889052855180860390910181526084909401909452602080840180516001600160e01b03166323b872dd60e01b1781528451610b8796881695899361141693889360009283929091839182885af1806121ea576040513d6000823e3d81fd5b50506000513d9150811561220257806001141561220f565b6001600160a01b0384163b155b1561141657604051635274afe760e01b81526001600160a01b0385166004820152602401610ad6565b60405180606001604052806000801916815260200160006001600160401b0316815260200161227a604051806040016040528060008152602001600081525090565b905290565b60005b8381101561229a578181015183820152602001612282565b50506000910152565b600081518084526122bb81602086016020860161227f565b601f01601f19169290920160200192915050565b602081526000610b6e60208301846122a3565b6001600160a01b038116811461120a57600080fd5b6000806040838503121561230a57600080fd5b8235612315816122e2565b946020939093013593505050565b600060e0828403121561233557600080fd5b50919050565b60006020828403121561234d57600080fd5b81356001600160401b0381111561236357600080fd5b610d1f84828501612323565b8351815260208085015190820152600060a08201604060a0604085015281865180845260c08601915060c08160051b8701019350602080890160005b838110156123ea5788870360bf190185528151805188528301518388018790526123d7878901826122a3565b97505093820193908201906001016123ab565b50508751606088015250505060208501516080850152509050610d1f565b60006060828403121561233557600080fd5b60008083601f84011261242c57600080fd5b5081356001600160401b0381111561244357600080fd5b60208301915083602082850101111561245b57600080fd5b9250929050565b600080600080600080600060e0888a03121561247d57600080fd5b6124878989612408565b96506060880135955060808801356001600160401b03808211156124aa57600080fd5b6124b68b838c0161241a565b909750955060a08a013591506124cb826122e2565b90935060c089013590808211156124e157600080fd5b506124ee8a828b0161241a565b989b979a50959850939692959293505050565b60008060006060848603121561251657600080fd5b8335612521816122e2565b92506020840135612531816122e2565b929592945050506040919091013590565b803563ffffffff8116811461255657600080fd5b919050565b6000806040838503121561256e57600080fd5b61231583612542565b801515811461120a57600080fd5b6000806040838503121561259857600080fd5b82356001600160401b038111156125ae57600080fd5b6125ba85828601612323565b92505060208301356125cb81612577565b809150509250929050565b8151815260208083015190820152604081016108f8565b803561ffff8116811461255657600080fd5b6000806040838503121561261257600080fd5b61261b83612542565b9150612629602084016125ed565b90509250929050565b60006020828403121561264457600080fd5b8135610b6e816122e2565b60008060008060a0858703121561266557600080fd5b61266f8686612408565b935060608501356001600160401b0381111561268a57600080fd5b6126968782880161241a565b90945092505060808501356126aa816122e2565b939692955090935050565b60008083601f8401126126c757600080fd5b5081356001600160401b038111156126de57600080fd5b6020830191508360208260051b850101111561245b57600080fd5b6000806020838503121561270c57600080fd5b82356001600160401b0381111561272257600080fd5b61272e858286016126b5565b90969095509350505050565b60006020828403121561274c57600080fd5b610b6e82612542565b6000806000806060858703121561276b57600080fd5b61277485612542565b9350612782602086016125ed565b925060408501356001600160401b0381111561279d57600080fd5b6127a98782880161241a565b95989497509550505050565b600080600083850360808112156127cb57600080fd5b84356001600160401b038111156127e157600080fd5b6127ed87828801612323565b9450506040601f198201121561280257600080fd5b506020840191506060840135612817816122e2565b809150509250925092565b600060c082019050835182526001600160401b036020850151166020830152604084015161285d604084018280518252602090810151910152565b5082516080830152602083015160a0830152610b6e565b6000806040838503121561288757600080fd5b8235612892816122e2565b915060208301356125cb816122e2565b6000606082840312156128b457600080fd5b610b6e8383612408565b600181811c908216806128d257607f821691505b60208210810361233557634e487b7160e01b600052602260045260246000fd5b60006020828403121561290457600080fd5b8151610b6e816122e2565b60006020828403121561292157600080fd5b5051919050565b634e487b7160e01b600052604160045260246000fd5b604051606081016001600160401b038111828210171561296057612960612928565b60405290565b604080519081016001600160401b038111828210171561296057612960612928565b604051601f8201601f191681016001600160401b03811182821017156129b0576129b0612928565b604052919050565b60006001600160401b038211156129d1576129d1612928565b50601f01601f191660200190565b60006001600160401b03808411156129f9576129f9612928565b8360051b6020612a0a818301612988565b868152918501918181019036841115612a2257600080fd5b865b84811015612ae857803586811115612a3c5760008081fd5b88016060368290031215612a505760008081fd5b612a5861293e565b612a6182612542565b8152612a6e8683016125ed565b8682015260408083013589811115612a865760008081fd5b929092019136601f840112612a9b5760008081fd5b8235612aae612aa9826129b8565b612988565b8181523689838701011115612ac35760008081fd5b818986018a830137600091810189019190915290820152845250918301918301612a24565b50979650505050505050565b60008085851115612b0457600080fd5b83861115612b1157600080fd5b5050820193919092039150565b60008451612b3081846020890161227f565b8201838582376000930192835250909392505050565b81835281816020850137506000828201602090810191909152601f909101601f19169091010190565b602081526000610d1f602083018486612b46565b634e487b7160e01b600052603260045260246000fd5b6000823561013e19833603018112612bb057600080fd5b9190910192915050565b6000808335601e19843603018112612bd157600080fd5b8301803591506001600160401b03821115612beb57600080fd5b60200191503681900382131561245b57600080fd5b6001600160401b038116811461120a57600080fd5b63ffffffff612c2389612542565b1681526020880135602082015260006040890135612c4081612c00565b6001600160401b03811660408401525087606083015260e06080830152612c6b60e083018789612b46565b6001600160a01b03861660a084015282810360c0840152612c8d818587612b46565b9a9950505050505050505050565b600060208284031215612cad57600080fd5b81516001600160401b03811115612cc357600080fd5b8201601f81018413612cd457600080fd5b8051612ce2612aa9826129b8565b818152856020838501011115612cf757600080fd5b6116f882602083016020860161227f565b8381526040602082015260006116f8604083018486612b46565b604081526000612d3560408301856122a3565b82810360208401526116f881856122a3565b600060208284031215612d5957600080fd5b8151610b6e81612577565b6040815263ffffffff8351166040820152602083015160608201526000604084015160a06080840152612d9a60e08401826122a3565b90506060850151603f198483030160a0850152612db782826122a3565b60809690960151151560c08501525050506001600160a01b039190911660209091015290565b600060408284031215612def57600080fd5b612df7612966565b9050815181526020820151602082015292915050565b600060408284031215612e1f57600080fd5b610b6e8383612ddd565b601f821115611250576000816000526020600020601f850160051c81016020861015612e525750805b601f850160051c820191505b81811015612e7157828155600101612e5e565b505050505050565b81516001600160401b03811115612e9257612e92612928565b612ea681612ea084546128be565b84612e29565b602080601f831160018114612edb5760008415612ec35750858301515b600019600386901b1c1916600185901b178555612e71565b600085815260208120601f198616915b82811015612f0a57888601518255948401946001909101908401612eeb565b5085821015612f285787850151600019600388901b60f8161c191681555b5050505050600190811b01905550565b600060208083018184528085518083526040925060408601915060408160051b87010184880160005b83811015612fb557888303603f190185528151805163ffffffff1684528781015161ffff16888501528601516060878501819052612fa1818601836122a3565b968901969450505090860190600101612f61565b509098975050505050505050565b600060408284031215612fd557600080fd5b612fdd612966565b82358152602083013560208201528091505092915050565b634e487b7160e01b600052601160045260246000fd5b60008261302857634e487b7160e01b600052601260045260246000fd5b500490565b80820281158282048414176108f8576108f8612ff5565b60006020828403121561305657600080fd5b8135610b6e81612c00565b60018060a01b038516815283602082015261ffff83166040820152608060608201526000610be860808301846122a3565b808201808211156108f8576108f8612ff5565b8481526001600160401b0360c01b8460c01b166020820152826028820152600082516130d881604885016020870161227f565b9190910160480195945050505050565b6000608082840312156130fa57600080fd5b61310261293e565b82518152602083015161311481612c00565b60208201526131268460408501612ddd565b60408201529392505050565b803560208310156108f857600019602084900360031b1b1692915050565b6001600160c01b031981358181169160088510156131785780818660080360031b1b83161692505b505092915050565b6001600160401b0360c01b8560c01b16815263ffffffff60e01b8460e01b16600882015282600c820152600082516131bf81602c85016020870161227f565b91909101602c019594505050505056fea2646970667358221220794c4a97618caaac7f9a6f3132c5c7132babe6b4b1afce3b9951f818c059f21364736f6c63430008160033",
  "linkReferences": {},
  "deployedLinkReferences": {}
}