{
  "_format": "hh-sol-artifact-1",
  "contractName": "BaseOFTAdapter",
  "sourceName": "contracts/BaseOFTAdapter.sol",
  "abi": [
    {
      "inputs": [
        {
          "internalType": "address",
          "name": "_token",
          "type": "address"
        },
        {
          "internalType": "address",
          "name": "_lzEndpoint",
          "type": "address"
        },
        {
          "internalType": "address",
          "name": "_owner",
          "type": "address"
        }
      ],
      "stateMutability": "nonpayable",
      "type": "constructor"
    },
    {
      "inputs": [],
      "name": "InvalidDelegate",
      "type": "error"
    },
    {
      "inputs": [],
      "name": "InvalidEndpointCall",
      "type": "error"
    },
    {
      "inputs": [],
      "name": "InvalidLocalDecimals",
      "type": "error"
    },
    {
      "inputs": [
        {
          "internalType": "bytes",
          "name": "options",
          "type": "bytes"
        }
      ],
      "name": "InvalidOptions",
      "type": "error"
    },
    {
      "inputs": [],
      "name": "LzTokenUnavailable",
      "type": "error"
    },
    {
      "inputs": [
        {
          "internalType": "uint32",
          "name": "eid",
          "type": "uint32"
        }
      ],
      "name": "NoPeer",
      "type": "error"
    },
    {
      "inputs": [
        {
          "internalType": "uint256",
          "name": "msgValue",
          "type": "uint256"
        }
      ],
      "name": "NotEnoughNative",
      "type": "error"
    },
    {
      "inputs": [
        {
          "internalType": "address",
          "name": "addr",
          "type": "address"
        }
      ],
      "name": "OnlyEndpoint",
      "type": "error"
    },
    {
      "inputs": [
        {
          "internalType": "uint32",
          "name": "eid",
          "type": "uint32"
        },
        {
          "internalType": "bytes32",
          "name": "sender",
          "type": "bytes32"
        }
      ],
      "name": "OnlyPeer",
      "type": "error"
    },
    {
      "inputs": [],
      "name": "OnlySelf",
      "type": "error"
    },
    {
      "inputs": [
        {
          "internalType": "address",
          "name": "owner",
          "type": "address"
        }
      ],
      "name": "OwnableInvalidOwner",
      "type": "error"
    },
    {
      "inputs": [
        {
          "internalType": "address",
          "name": "account",
          "type": "address"
        }
      ],
      "name": "OwnableUnauthorizedAccount",
      "type": "error"
    },
    {
      "inputs": [
        {
          "internalType": "address",
          "name": "token",
          "type": "address"
        }
      ],
      "name": "SafeERC20FailedOperation",
      "type": "error"
    },
    {
      "inputs": [
        {
          "internalType": "bytes",
          "name": "result",
          "type": "bytes"
        }
      ],
      "name": "SimulationResult",
      "type": "error"
    },
    {
      "inputs": [
        {
          "internalType": "uint256",
          "name": "amountLD",
          "type": "uint256"
        },
        {
          "internalType": "uint256",
          "name": "minAmountLD",
          "type": "uint256"
        }
      ],
      "name": "SlippageExceeded",
      "type": "error"
    },
    {
      "anonymous": false,
      "inputs": [
        {
          "components": [
            {
              "internalType": "uint32",
              "name": "eid",
              "type": "uint32"
            },
            {
              "internalType": "uint16",
              "name": "msgType",
              "type": "uint16"
            },
            {
              "internalType": "bytes",
              "name": "options",
              "type": "bytes"
            }
          ],
          "indexed": false,
          "internalType": "struct EnforcedOptionParam[]",
          "name": "_enforcedOptions",
          "type": "tuple[]"
        }
      ],
      "name": "EnforcedOptionSet",
      "type": "event"
    },
    {
      "anonymous": false,
      "inputs": [
        {
          "indexed": false,
          "internalType": "address",
          "name": "inspector",
          "type": "address"
        }
      ],
      "name": "MsgInspectorSet",
      "type": "event"
    },
    {
      "anonymous": false,
      "inputs": [
        {
          "indexed": true,
          "internalType": "bytes32",
          "name": "guid",
          "type": "bytes32"
        },
        {
          "indexed": false,
          "internalType": "uint32",
          "name": "srcEid",
          "type": "uint32"
        },
        {
          "indexed": true,
          "internalType": "address",
          "name": "toAddress",
          "type": "address"
        },
        {
          "indexed": false,
          "internalType": "uint256",
          "name": "amountReceivedLD",
          "type": "uint256"
        }
      ],
      "name": "OFTReceived",
      "type": "event"
    },
    {
      "anonymous": false,
      "inputs": [
        {
          "indexed": true,
          "internalType": "bytes32",
          "name": "guid",
          "type": "bytes32"
        },
        {
          "indexed": false,
          "internalType": "uint32",
          "name": "dstEid",
          "type": "uint32"
        },
        {
          "indexed": true,
          "internalType": "address",
          "name": "fromAddress",
          "type": "address"
        },
        {
          "indexed": false,
          "internalType": "uint256",
          "name": "amountSentLD",
          "type": "uint256"
        },
        {
          "indexed": false,
          "internalType": "uint256",
          "name": "amountReceivedLD",
          "type": "uint256"
        }
      ],
      "name": "OFTSent",
      "type": "event"
    },
    {
      "anonymous": false,
      "inputs": [
        {
          "indexed": true,
          "internalType": "address",
          "name": "previousOwner",
          "type": "address"
        },
        {
          "indexed": true,
          "internalType": "address",
          "name": "newOwner",
          "type": "address"
        }
      ],
      "name": "OwnershipTransferred",
      "type": "event"
    },
    {
      "anonymous": false,
      "inputs": [
        {
          "indexed": false,
          "internalType": "uint32",
          "name": "eid",
          "type": "uint32"
        },
        {
          "indexed": false,
          "internalType": "bytes32",
          "name": "peer",
          "type": "bytes32"
        }
      ],
      "name": "PeerSet",
      "type": "event"
    },
    {
      "anonymous": false,
      "inputs": [
        {
          "indexed": false,
          "internalType": "address",
          "name": "preCrimeAddress",
          "type": "address"
        }
      ],
      "name": "PreCrimeSet",
      "type": "event"
    },
    {
      "anonymous": false,
      "inputs": [
        {
          "indexed": true,
          "internalType": "bytes32",
          "name": "lzMsgId",
          "type": "bytes32"
        },
        {
          "indexed": true,
          "internalType": "address",
          "name": "sender",
          "type": "address"
        },
        {
          "indexed": false,
          "internalType": "uint256",
          "name": "amount",
          "type": "uint256"
        }
      ],
      "name": "TransferLocked",
      "type": "event"
    },
    {
      "anonymous": false,
      "inputs": [
        {
          "indexed": true,
          "internalType": "bytes32",
          "name": "lzMsgId",
          "type": "bytes32"
        },
        {
          "indexed": true,
          "internalType": "address",
          "name": "sender",
          "type": "address"
        },
        {
          "indexed": false,
          "internalType": "uint256",
          "name": "amount",
          "type": "uint256"
        }
      ],
      "name": "TransferRefunded",
      "type": "event"
    },
    {
      "inputs": [],
      "name": "SEND",
      "outputs": [
        {
          "internalType": "uint16",
          "name": "",
          "type": "uint16"
        }
      ],
      "stateMutability": "view",
      "type": "function"
    },
    {
      "inputs": [],
      "name": "SEND_AND_CALL",
      "outputs": [
        {
          "internalType": "uint16",
          "name": "",
          "type": "uint16"
        }
      ],
      "stateMutability": "view",
      "type": "function"
    },
    {
      "inputs": [
        {
          "components": [
            {
              "internalType": "uint32",
              "name": "srcEid",
              "type": "uint32"
            },
            {
              "internalType": "bytes32",
              "name": "sender",
              "type": "bytes32"
            },
            {
              "internalType": "uint64",
              "name": "nonce",
              "type": "uint64"
            }
          ],
          "internalType": "struct Origin",
          "name": "origin",
          "type": "tuple"
        }
      ],
      "name": "allowInitializePath",
      "outputs": [
        {
          "internalType": "bool",
          "name": "",
          "type": "bool"
        }
      ],
      "stateMutability": "view",
      "type": "function"
    },
    {
      "inputs": [],
      "name": "approvalRequired",
      "outputs": [
        {
          "internalType": "bool",
          "name": "",
          "type": "bool"
        }
      ],
      "stateMutability": "pure",
      "type": "function"
    },
    {
      "inputs": [
        {
          "internalType": "uint32",
          "name": "_eid",
          "type": "uint32"
        },
        {
          "internalType": "uint16",
          "name": "_msgType",
          "type": "uint16"
        },
        {
          "internalType": "bytes",
          "name": "_extraOptions",
          "type": "bytes"
        }
      ],
      "name": "combineOptions",
      "outputs": [
        {
          "internalType": "bytes",
          "name": "",
          "type": "bytes"
        }
      ],
      "stateMutability": "view",
      "type": "function"
    },
    {
      "inputs": [],
      "name": "decimalConversionRate",
      "outputs": [
        {
          "internalType": "uint256",
          "name": "",
          "type": "uint256"
        }
      ],
      "stateMutability": "view",
      "type": "function"
    },
    {
      "inputs": [],
      "name": "endpoint",
      "outputs": [
        {
          "internalType": "contract ILayerZeroEndpointV2",
          "name": "",
          "type": "address"
        }
      ],
      "stateMutability": "view",
      "type": "function"
    },
    {
      "inputs": [
        {
          "internalType": "uint32",
          "name": "eid",
          "type": "uint32"
        },
        {
          "internalType": "uint16",
          "name": "msgType",
          "type": "uint16"
        }
      ],
      "name": "enforcedOptions",
      "outputs": [
        {
          "internalType": "bytes",
          "name": "enforcedOption",
          "type": "bytes"
        }
      ],
      "stateMutability": "view",
      "type": "function"
    },
    {
      "inputs": [
        {
          "components": [
            {
              "internalType": "uint32",
              "name": "srcEid",
              "type": "uint32"
            },
            {
              "internalType": "bytes32",
              "name": "sender",
              "type": "bytes32"
            },
            {
              "internalType": "uint64",
              "name": "nonce",
              "type": "uint64"
            }
          ],
          "internalType": "struct Origin",
          "name": "",
          "type": "tuple"
        },
        {
          "internalType": "bytes",
          "name": "",
          "type": "bytes"
        },
        {
          "internalType": "address",
          "name": "_sender",
          "type": "address"
        }
      ],
      "name": "isComposeMsgSender",
      "outputs": [
        {
          "internalType": "bool",
          "name": "",
          "type": "bool"
        }
      ],
      "stateMutability": "view",
      "type": "function"
    },
    {
      "inputs": [
        {
          "internalType": "uint32",
          "name": "_eid",
          "type": "uint32"
        },
        {
          "internalType": "bytes32",
          "name": "_peer",
          "type": "bytes32"
        }
      ],
      "name": "isPeer",
      "outputs": [
        {
          "internalType": "bool",
          "name": "",
          "type": "bool"
        }
      ],
      "stateMutability": "view",
      "type": "function"
    },
    {
      "inputs": [
        {
          "internalType": "bytes32",
          "name": "",
          "type": "bytes32"
        }
      ],
      "name": "lockedTransfers",
      "outputs": [
        {
          "internalType": "address",
          "name": "sender",
          "type": "address"
        },
        {
          "internalType": "uint256",
          "name": "amount",
          "type": "uint256"
        },
        {
          "internalType": "bool",
          "name": "refunded",
          "type": "bool"
        }
      ],
      "stateMutability": "view",
      "type": "function"
    },
    {
      "inputs": [
        {
          "components": [
            {
              "internalType": "uint32",
              "name": "srcEid",
              "type": "uint32"
            },
            {
              "internalType": "bytes32",
              "name": "sender",
              "type": "bytes32"
            },
            {
              "internalType": "uint64",
              "name": "nonce",
              "type": "uint64"
            }
          ],
          "internalType": "struct Origin",
          "name": "_origin",
          "type": "tuple"
        },
        {
          "internalType": "bytes32",
          "name": "_guid",
          "type": "bytes32"
        },
        {
          "internalType": "bytes",
          "name": "_message",
          "type": "bytes"
        },
        {
          "internalType": "address",
          "name": "_executor",
          "type": "address"
        },
        {
          "internalType": "bytes",
          "name": "_extraData",
          "type": "bytes"
        }
      ],
      "name": "lzReceive",
      "outputs": [],
      "stateMutability": "payable",
      "type": "function"
    },
    {
      "inputs": [
        {
          "components": [
            {
              "components": [
                {
                  "internalType": "uint32",
                  "name": "srcEid",
                  "type": "uint32"
                },
                {
                  "internalType": "bytes32",
                  "name": "sender",
                  "type": "bytes32"
                },
                {
                  "internalType": "uint64",
                  "name": "nonce",
                  "type": "uint64"
                }
              ],
              "internalType": "struct Origin",
              "name": "origin",
              "type": "tuple"
            },
            {
              "internalType": "uint32",
              "name": "dstEid",
              "type": "uint32"
            },
            {
              "internalType": "address",
              "name": "receiver",
              "type": "address"
            },
            {
              "internalType": "bytes32",
              "name": "guid",
              "type": "bytes32"
            },
            {
              "internalType": "uint256",
              "name": "value",
              "type": "uint256"
            },
            {
              "internalType": "address",
              "name": "executor",
              "type": "address"
            },
            {
              "internalType": "bytes",
              "name": "message",
              "type": "bytes"
            },
            {
              "internalType": "bytes",
              "name": "extraData",
              "type": "bytes"
            }
          ],
          "internalType": "struct InboundPacket[]",
          "name": "_packets",
          "type": "tuple[]"
        }
      ],
      "name": "lzReceiveAndRevert",
      "outputs": [],
      "stateMutability": "payable",
      "type": "function"
    },
    {
      "inputs": [
        {
          "components": [
            {
              "internalType": "uint32",
              "name": "srcEid",
              "type": "uint32"
            },
            {
              "internalType": "bytes32",
              "name": "sender",
              "type": "bytes32"
            },
            {
              "internalType": "uint64",
              "name": "nonce",
              "type": "uint64"
            }
          ],
          "internalType": "struct Origin",
          "name": "_origin",
          "type": "tuple"
        },
        {
          "internalType": "bytes32",
          "name": "_guid",
          "type": "bytes32"
        },
        {
          "internalType": "bytes",
          "name": "_message",
          "type": "bytes"
        },
        {
          "internalType": "address",
          "name": "_executor",
          "type": "address"
        },
        {
          "internalType": "bytes",
          "name": "_extraData",
          "type": "bytes"
        }
      ],
      "name": "lzReceiveSimulate",
      "outputs": [],
      "stateMutability": "payable",
      "type": "function"
    },
    {
      "inputs": [],
      "name": "msgInspector",
      "outputs": [
        {
          "internalType": "address",
          "name": "",
          "type": "address"
        }
      ],
      "stateMutability": "view",
      "type": "function"
    },
    {
      "inputs": [
        {
          "internalType": "uint32",
          "name": "",
          "type": "uint32"
        },
        {
          "internalType": "bytes32",
          "name": "",
          "type": "bytes32"
        }
      ],
      "name": "nextNonce",
      "outputs": [
        {
          "internalType": "uint64",
          "name": "nonce",
          "type": "uint64"
        }
      ],
      "stateMutability": "view",
      "type": "function"
    },
    {
      "inputs": [],
      "name": "oApp",
      "outputs": [
        {
          "internalType": "address",
          "name": "",
          "type": "address"
        }
      ],
      "stateMutability": "view",
      "type": "function"
    },
    {
      "inputs": [],
      "name": "oAppVersion",
      "outputs": [
        {
          "internalType": "uint64",
          "name": "senderVersion",
          "type": "uint64"
        },
        {
          "internalType": "uint64",
          "name": "receiverVersion",
          "type": "uint64"
        }
      ],
      "stateMutability": "pure",
      "type": "function"
    },
    {
      "inputs": [],
      "name": "oftVersion",
      "outputs": [
        {
          "internalType": "bytes4",
          "name": "interfaceId",
          "type": "bytes4"
        },
        {
          "internalType": "uint64",
          "name": "version",
          "type": "uint64"
        }
      ],
      "stateMutability": "pure",
      "type": "function"
    },
    {
      "inputs": [],
      "name": "owner",
      "outputs": [
        {
          "internalType": "address",
          "name": "",
          "type": "address"
        }
      ],
      "stateMutability": "view",
      "type": "function"
    },
    {
      "inputs": [
        {
          "internalType": "uint32",
          "name": "eid",
          "type": "uint32"
        }
      ],
      "name": "peers",
      "outputs": [
        {
          "internalType": "bytes32",
          "name": "peer",
          "type": "bytes32"
        }
      ],
      "stateMutability": "view",
      "type": "function"
    },
    {
      "inputs": [],
      "name": "preCrime",
      "outputs": [
        {
          "internalType": "address",
          "name": "",
          "type": "address"
        }
      ],
      "stateMutability": "view",
      "type": "function"
    },
    {
      "inputs": [
        {
          "components": [
            {
              "internalType": "uint32",
              "name": "dstEid",
              "type": "uint32"
            },
            {
              "internalType": "bytes32",
              "name": "to",
              "type": "bytes32"
            },
            {
              "internalType": "uint256",
              "name": "amountLD",
              "type": "uint256"
            },
            {
              "internalType": "uint256",
              "name": "minAmountLD",
              "type": "uint256"
            },
            {
              "internalType": "bytes",
              "name": "extraOptions",
              "type": "bytes"
            },
            {
              "internalType": "bytes",
              "name": "composeMsg",
              "type": "bytes"
            },
            {
              "internalType": "bytes",
              "name": "oftCmd",
              "type": "bytes"
            }
          ],
          "internalType": "struct SendParam",
          "name": "_sendParam",
          "type": "tuple"
        }
      ],
      "name": "quoteOFT",
      "outputs": [
        {
          "components": [
            {
              "internalType": "uint256",
              "name": "minAmountLD",
              "type": "uint256"
            },
            {
              "internalType": "uint256",
              "name": "maxAmountLD",
              "type": "uint256"
            }
          ],
          "internalType": "struct OFTLimit",
          "name": "oftLimit",
          "type": "tuple"
        },
        {
          "components": [
            {
              "internalType": "int256",
              "name": "feeAmountLD",
              "type": "int256"
            },
            {
              "internalType": "string",
              "name": "description",
              "type": "string"
            }
          ],
          "internalType": "struct OFTFeeDetail[]",
          "name": "oftFeeDetails",
          "type": "tuple[]"
        },
        {
          "components": [
            {
              "internalType": "uint256",
              "name": "amountSentLD",
              "type": "uint256"
            },
            {
              "internalType": "uint256",
              "name": "amountReceivedLD",
              "type": "uint256"
            }
          ],
          "internalType": "struct OFTReceipt",
          "name": "oftReceipt",
          "type": "tuple"
        }
      ],
      "stateMutability": "view",
      "type": "function"
    },
    {
      "inputs": [
        {
          "components": [
            {
              "internalType": "uint32",
              "name": "dstEid",
              "type": "uint32"
            },
            {
              "internalType": "bytes32",
              "name": "to",
              "type": "bytes32"
            },
            {
              "internalType": "uint256",
              "name": "amountLD",
              "type": "uint256"
            },
            {
              "internalType": "uint256",
              "name": "minAmountLD",
              "type": "uint256"
            },
            {
              "internalType": "bytes",
              "name": "extraOptions",
              "type": "bytes"
            },
            {
              "internalType": "bytes",
              "name": "composeMsg",
              "type": "bytes"
            },
            {
              "internalType": "bytes",
              "name": "oftCmd",
              "type": "bytes"
            }
          ],
          "internalType": "struct SendParam",
          "name": "_sendParam",
          "type": "tuple"
        },
        {
          "internalType": "bool",
          "name": "_payInLzToken",
          "type": "bool"
        }
      ],
      "name": "quoteSend",
      "outputs": [
        {
          "components": [
            {
              "internalType": "uint256",
              "name": "nativeFee",
              "type": "uint256"
            },
            {
              "internalType": "uint256",
              "name": "lzTokenFee",
              "type": "uint256"
            }
          ],
          "internalType": "struct MessagingFee",
          "name": "msgFee",
          "type": "tuple"
        }
      ],
      "stateMutability": "view",
      "type": "function"
    },
    {
      "inputs": [
        {
          "internalType": "bytes32",
          "name": "lzMsgId",
          "type": "bytes32"
        }
      ],
      "name": "refundLockedTransfer",
      "outputs": [],
      "stateMutability": "nonpayable",
      "type": "function"
    },
    {
      "inputs": [],
      "name": "renounceOwnership",
      "outputs": [],
      "stateMutability": "nonpayable",
      "type": "function"
    },
    {
      "inputs": [
        {
          "components": [
            {
              "internalType": "uint32",
              "name": "dstEid",
              "type": "uint32"
            },
            {
              "internalType": "bytes32",
              "name": "to",
              "type": "bytes32"
            },
            {
              "internalType": "uint256",
              "name": "amountLD",
              "type": "uint256"
            },
            {
              "internalType": "uint256",
              "name": "minAmountLD",
              "type": "uint256"
            },
            {
              "internalType": "bytes",
              "name": "extraOptions",
              "type": "bytes"
            },
            {
              "internalType": "bytes",
              "name": "composeMsg",
              "type": "bytes"
            },
            {
              "internalType": "bytes",
              "name": "oftCmd",
              "type": "bytes"
            }
          ],
          "internalType": "struct SendParam",
          "name": "_sendParam",
          "type": "tuple"
        },
        {
          "components": [
            {
              "internalType": "uint256",
              "name": "nativeFee",
              "type": "uint256"
            },
            {
              "internalType": "uint256",
              "name": "lzTokenFee",
              "type": "uint256"
            }
          ],
          "internalType": "struct MessagingFee",
          "name": "_fee",
          "type": "tuple"
        },
        {
          "internalType": "address",
          "name": "_refundAddress",
          "type": "address"
        }
      ],
      "name": "send",
      "outputs": [
        {
          "components": [
            {
              "internalType": "bytes32",
              "name": "guid",
              "type": "bytes32"
            },
            {
              "internalType": "uint64",
              "name": "nonce",
              "type": "uint64"
            },
            {
              "components": [
                {
                  "internalType": "uint256",
                  "name": "nativeFee",
                  "type": "uint256"
                },
                {
                  "internalType": "uint256",
                  "name": "lzTokenFee",
                  "type": "uint256"
                }
              ],
              "internalType": "struct MessagingFee",
              "name": "fee",
              "type": "tuple"
            }
          ],
          "internalType": "struct MessagingReceipt",
          "name": "msgReceipt",
          "type": "tuple"
        },
        {
          "components": [
            {
              "internalType": "uint256",
              "name": "amountSentLD",
              "type": "uint256"
            },
            {
              "internalType": "uint256",
              "name": "amountReceivedLD",
              "type": "uint256"
            }
          ],
          "internalType": "struct OFTReceipt",
          "name": "oftReceipt",
          "type": "tuple"
        }
      ],
      "stateMutability": "payable",
      "type": "function"
    },
    {
      "inputs": [
        {
          "internalType": "address",
          "name": "_delegate",
          "type": "address"
        }
      ],
      "name": "setDelegate",
      "outputs": [],
      "stateMutability": "nonpayable",
      "type": "function"
    },
    {
      "inputs": [
        {
          "components": [
            {
              "internalType": "uint32",
              "name": "eid",
              "type": "uint32"
            },
            {
              "internalType": "uint16",
              "name": "msgType",
              "type": "uint16"
            },
            {
              "internalType": "bytes",
              "name": "options",
              "type": "bytes"
            }
          ],
          "internalType": "struct EnforcedOptionParam[]",
          "name": "_enforcedOptions",
          "type": "tuple[]"
        }
      ],
      "name": "setEnforcedOptions",
      "outputs": [],
      "stateMutability": "nonpayable",
      "type": "function"
    },
    {
      "inputs": [
        {
          "internalType": "address",
          "name": "_msgInspector",
          "type": "address"
        }
      ],
      "name": "setMsgInspector",
      "outputs": [],
      "stateMutability": "nonpayable",
      "type": "function"
    },
    {
      "inputs": [
        {
          "internalType": "uint32",
          "name": "_eid",
          "type": "uint32"
        },
        {
          "internalType": "bytes32",
          "name": "_peer",
          "type": "bytes32"
        }
      ],
      "name": "setPeer",
      "outputs": [],
      "stateMutability": "nonpayable",
      "type": "function"
    },
    {
      "inputs": [
        {
          "internalType": "address",
          "name": "_preCrime",
          "type": "address"
        }
      ],
      "name": "setPreCrime",
      "outputs": [],
      "stateMutability": "nonpayable",
      "type": "function"
    },
    {
      "inputs": [],
      "name": "sharedDecimals",
      "outputs": [
        {
          "internalType": "uint8",
          "name": "",
          "type": "uint8"
        }
      ],
      "stateMutability": "view",
      "type": "function"
    },
    {
      "inputs": [],
      "name": "token",
      "outputs": [
        {
          "internalType": "address",
          "name": "",
          "type": "address"
        }
      ],
      "stateMutability": "view",
      "type": "function"
    },
    {
      "inputs": [
        {
          "internalType": "address",
          "name": "newOwner",
          "type": "address"
        }
      ],
      "name": "transferOwnership",
      "outputs": [],
      "stateMutability": "nonpayable",
      "type": "function"
    }
  ],
  "bytecode": "0x60e06040523480156200001157600080fd5b506040516200328038038062003280833981016040819052620000349162000254565b828282826001600160a01b031663313ce5676040518163ffffffff1660e01b8152600401602060405180830381865afa15801562000076573d6000803e3d6000fd5b505050506040513d601f19601f820116820180604052508101906200009c91906200029e565b8282818181818a6001600160a01b038116620000d257604051631e4fbdf760e01b81526000600482015260240160405180910390fd5b620000dd81620001e2565b506001600160a01b0380831660805281166200010c57604051632d618d8160e21b815260040160405180910390fd5b60805160405163ca5eb5e160e01b81526001600160a01b0383811660048301529091169063ca5eb5e190602401600060405180830381600087803b1580156200015457600080fd5b505af115801562000169573d6000803e3d6000fd5b5050505050505050620001816200023260201b60201c565b60ff168360ff161015620001a8576040516301e9714b60e41b815260040160405180910390fd5b620001b5600684620002e0565b620001c290600a620003ff565b60a0525050506001600160a01b0390921660c05250620004109350505050565b600080546001600160a01b038381166001600160a01b0319831681178455604051919092169283917f8be0079c531659141344cd1fd0a4f28419497f9722a3daafe3b4186f6b6457e09190a35050565b600690565b80516001600160a01b03811681146200024f57600080fd5b919050565b6000806000606084860312156200026a57600080fd5b620002758462000237565b9250620002856020850162000237565b9150620002956040850162000237565b90509250925092565b600060208284031215620002b157600080fd5b815160ff81168114620002c357600080fd5b9392505050565b634e487b7160e01b600052601160045260246000fd5b60ff8281168282160390811115620002fc57620002fc620002ca565b92915050565b600181815b8085111562000343578160001904821115620003275762000327620002ca565b808516156200033557918102915b93841c939080029062000307565b509250929050565b6000826200035c57506001620002fc565b816200036b57506000620002fc565b81600181146200038457600281146200038f57620003af565b6001915050620002fc565b60ff841115620003a357620003a3620002ca565b50506001821b620002fc565b5060208310610133831016604e8410600b8410161715620003d4575081810a620002fc565b620003e0838362000302565b8060001904821115620003f757620003f7620002ca565b029392505050565b6000620002c360ff8416836200034b565b60805160a05160c051612de56200049b6000396000818161070f01528181610c1901528181611a4f0152611c380152600081816105180152818161199601528181611a120152611b020152600081816103fa015281816108e6015281816110f301528181611358015281816115e501528181611c9c01528181611dd90152611e920152612de56000f3fe6080604052600436106102045760003560e01c806382413eac11610118578063bc70b354116100a0578063d045a0dc1161006f578063d045a0dc146106ad578063d4243885146106c0578063f2fde38b146106e0578063fc0c546a14610700578063ff7bd03d1461073357600080fd5b8063bc70b35414610639578063bd815db014610659578063c7c7f5b31461066c578063ca5eb5e11461068d57600080fd5b80639f68b964116100e75780639f68b96414610548578063a1de4c821461055c578063b731ea0a146105cc578063b98bd070146105ec578063bb0b6a531461060c57600080fd5b806382413eac146104ac578063857749b0146104cc5780638da5cb5b146104e8578063963efcaa1461050657600080fd5b80633b6f743b1161019b5780635e280f111161016a5780635e280f11146103e85780636fc1b31e1461041c578063715018a61461043c5780637150a8fb146104515780637d25a05e1461047157600080fd5b80633b6f743b1461033457806352ae2879146103615780635535d461146103745780635a0dfe4d146103a157600080fd5b8063156a0d0f116101d7578063156a0d0f146102b657806317442b70146102dd5780631f5e1334146102ff5780633400288b1461031457600080fd5b80630d35b41514610209578063111ecdad1461024157806313137d6514610279578063134d4f251461028e575b600080fd5b34801561021557600080fd5b50610229610224366004611f16565b610753565b60405161023893929190611f9a565b60405180910390f35b34801561024d57600080fd5b50600454610261906001600160a01b031681565b6040516001600160a01b039091168152602001610238565b61028c6102873660046120a2565b6108e4565b005b34801561029a57600080fd5b506102a3600281565b60405161ffff9091168152602001610238565b3480156102c257600080fd5b506040805162b9270b60e21b81526001602082015201610238565b3480156102e957600080fd5b5060408051600181526002602082015201610238565b34801561030b57600080fd5b506102a3600181565b34801561032057600080fd5b5061028c61032f36600461215a565b6109a4565b34801561034057600080fd5b5061035461034f366004612192565b6109ba565b60405161023891906121e3565b34801561036d57600080fd5b5030610261565b34801561038057600080fd5b5061039461038f36600461220c565b610a23565b604051610238919061223f565b3480156103ad57600080fd5b506103d86103bc36600461215a565b63ffffffff919091166000908152600160205260409020541490565b6040519015158152602001610238565b3480156103f457600080fd5b506102617f000000000000000000000000000000000000000000000000000000000000000081565b34801561042857600080fd5b5061028c610437366004612252565b610ac8565b34801561044857600080fd5b5061028c610b25565b34801561045d57600080fd5b5061028c61046c36600461226f565b610b39565b34801561047d57600080fd5b5061049461048c36600461215a565b600092915050565b6040516001600160401b039091168152602001610238565b3480156104b857600080fd5b506103d86104c7366004612288565b610c97565b3480156104d857600080fd5b5060405160068152602001610238565b3480156104f457600080fd5b506000546001600160a01b0316610261565b34801561051257600080fd5b5061053a7f000000000000000000000000000000000000000000000000000000000000000081565b604051908152602001610238565b34801561055457600080fd5b5060016103d8565b34801561056857600080fd5b506105a561057736600461226f565b6005602052600090815260409020805460018201546002909201546001600160a01b03909116919060ff1683565b604080516001600160a01b0390941684526020840192909252151590820152606001610238565b3480156105d857600080fd5b50600254610261906001600160a01b031681565b3480156105f857600080fd5b5061028c610607366004612332565b610cac565b34801561061857600080fd5b5061053a610627366004612373565b60016020526000908152604090205481565b34801561064557600080fd5b5061039461065436600461238e565b610cc6565b61028c610667366004612332565b610e6e565b61067f61067a3660046123ee565b610ff8565b60405161023892919061245b565b34801561069957600080fd5b5061028c6106a8366004612252565b6110cc565b61028c6106bb3660046120a2565b611152565b3480156106cc57600080fd5b5061028c6106db366004612252565b611181565b3480156106ec57600080fd5b5061028c6106fb366004612252565b6111d7565b34801561070c57600080fd5b507f0000000000000000000000000000000000000000000000000000000000000000610261565b34801561073f57600080fd5b506103d861074e3660046124ad565b611215565b60408051808201909152600080825260208201526060610786604051806040016040528060008152602001600081525090565b600080306001600160a01b031663fc0c546a6040518163ffffffff1660e01b8152600401602060405180830381865afa1580156107c7573d6000803e3d6000fd5b505050506040513d601f19601f820116820180604052508101906107eb91906124c9565b6001600160a01b03166318160ddd6040518163ffffffff1660e01b8152600401602060405180830381865afa158015610828573d6000803e3d6000fd5b505050506040513d601f19601f8201168201806040525081019061084c91906124e6565b604080518082018252848152602080820184905282516000808252918101909352909750919250906108a1565b6040805180820190915260008152606060208201528152602001906001900390816108795790505b5093506000806108c6604089013560608a01356108c160208c018c612373565b61124b565b60408051808201909152918252602082015296989597505050505050565b7f00000000000000000000000000000000000000000000000000000000000000006001600160a01b03163314610934576040516391ac5e4f60e01b81523360048201526024015b60405180910390fd5b6020870180359061094e90610949908a612373565b611287565b1461098c576109606020880188612373565b60405163309afaf360e21b815263ffffffff90911660048201526020880135602482015260440161092b565b61099b878787878787876112c3565b50505050505050565b6109ac61142a565b6109b68282611457565b5050565b604080518082019091526000808252602082015260006109ea604085013560608601356108c16020880188612373565b9150506000806109fa86846114ac565b9092509050610a17610a0f6020880188612373565b8383886115cf565b93505050505b92915050565b600360209081526000928352604080842090915290825290208054610a4790612515565b80601f0160208091040260200160405190810160405280929190818152602001828054610a7390612515565b8015610ac05780601f10610a9557610100808354040283529160200191610ac0565b820191906000526020600020905b815481529060010190602001808311610aa357829003601f168201915b505050505081565b610ad061142a565b600480546001600160a01b0319166001600160a01b0383169081179091556040519081527ff0be4f1e87349231d80c36b33f9e8639658eeaf474014dee15a3e6a4d4414197906020015b60405180910390a150565b610b2d61142a565b610b3760006116b0565b565b610b4161142a565b600081815260056020526040902080546001600160a01b0316610ba65760405162461bcd60e51b815260206004820152601760248201527f5472616e7366657220646f6573206e6f74206578697374000000000000000000604482015260640161092b565b600281015460ff1615610bee5760405162461bcd60e51b815260206004820152601060248201526f105b1c9958591e481c99599d5b99195960821b604482015260640161092b565b60028101805460ff19166001908117909155815490820154610c4b916001600160a01b031690610c3b7f000000000000000000000000000000000000000000000000000000000000000090565b6001600160a01b03169190611700565b805460018201546040519081526001600160a01b039091169083907f04f52f70a574c3facc8188d13efa4536b1ab3b9571e5ed36201886191c4686ce9060200160405180910390a35050565b6001600160a01b03811630145b949350505050565b610cb461142a565b6109b6610cc182846125ea565b611764565b63ffffffff8416600090815260036020908152604080832061ffff87168452909152812080546060929190610cfa90612515565b80601f0160208091040260200160405190810160405280929190818152602001828054610d2690612515565b8015610d735780601f10610d4857610100808354040283529160200191610d73565b820191906000526020600020905b815481529060010190602001808311610d5657829003601f168201915b505050505090508051600003610dc35783838080601f016020809104026020016040519081016040528093929190818152602001838380828437600092019190915250929450610ca49350505050565b6000839003610dd3579050610ca4565b60028310610e5157610e1a84848080601f01602080910402602001604051908101604052809392919081815260200183838082843760009201919091525061186b92505050565b80610e2884600281886126ff565b604051602001610e3a93929190612729565b604051602081830303815290604052915050610ca4565b8383604051639a6d49cd60e01b815260040161092b92919061277a565b60005b81811015610f775736838383818110610e8c57610e8c61278e565b9050602002810190610e9e91906127a4565b9050610ed1610eb06020830183612373565b602083013563ffffffff919091166000908152600160205260409020541490565b610edb5750610f6f565b3063d045a0dc60c08301358360a0810135610efa6101008301836127c5565b610f0b610100890160e08a01612252565b610f196101208a018a6127c5565b6040518963ffffffff1660e01b8152600401610f3b9796959493929190612820565b6000604051808303818588803b158015610f5457600080fd5b505af1158015610f68573d6000803e3d6000fd5b5050505050505b600101610e71565b50336001600160a01b0316638e9e70996040518163ffffffff1660e01b8152600401600060405180830381865afa158015610fb6573d6000803e3d6000fd5b505050506040513d6000823e601f3d908101601f19168201604052610fde91908101906128a6565b604051638351eea760e01b815260040161092b919061223f565b611000611eb7565b604080518082019091526000808252602082015261101f858585611897565b815160408051606081018252338082528a830135602080840182815260008587018181528882526005845290879020955186546001600160a01b0319166001600160a01b0390911617865590516001860155516002909401805460ff191694151594909417909355925192835294965092945090929183917f23e130dd4f559327be4dda1610ddd007df851f723ac83e1fbbaccd8d4d7ec5a0910160405180910390a3505b935093915050565b6110d461142a565b60405163ca5eb5e160e01b81526001600160a01b0382811660048301527f0000000000000000000000000000000000000000000000000000000000000000169063ca5eb5e190602401600060405180830381600087803b15801561113757600080fd5b505af115801561114b573d6000803e3d6000fd5b5050505050565b3330146111725760405163029a949d60e31b815260040160405180910390fd5b61099b8787878787878761098c565b61118961142a565b600280546001600160a01b0319166001600160a01b0383169081179091556040519081527fd48d879cef83a1c0bdda516f27b13ddb1b3f8bbac1c9e1511bb2a659c242776090602001610b1a565b6111df61142a565b6001600160a01b03811661120957604051631e4fbdf760e01b81526000600482015260240161092b565b611212816116b0565b50565b600060208201803590600190839061122d9086612373565b63ffffffff1681526020810191909152604001600020541492915050565b60008061125785611992565b9150819050838110156110c4576040516371c4efed60e01b8152600481018290526024810185905260440161092b565b63ffffffff811660009081526001602052604081205480610a1d5760405163f6ff4fb760e01b815263ffffffff8416600482015260240161092b565b60006112d56112d287876119c9565b90565b90506000611301826112ef6112ea8a8a6119e8565b611a0b565b6112fc60208d018d612373565b611a40565b905060288611156113c857600061133e61132160608c0160408d01612913565b61132e60208d018d612373565b846113398c8c611a7e565b611ac9565b604051633e5ac80960e11b81529091506001600160a01b037f00000000000000000000000000000000000000000000000000000000000000001690637cb59012906113949086908d906000908790600401612930565b600060405180830381600087803b1580156113ae57600080fd5b505af11580156113c2573d6000803e3d6000fd5b50505050505b6001600160a01b038216887fefed6d3500546b29533b128a29e3a94d70788727f0507505ac12eaf2e578fd9c61140160208d018d612373565b6040805163ffffffff9092168252602082018690520160405180910390a3505050505050505050565b6000546001600160a01b03163314610b375760405163118cdaa760e01b815233600482015260240161092b565b63ffffffff8216600081815260016020908152604091829020849055815192835282018390527f238399d427b947898edb290f5ff0f9109849b1c3ba196a42e35f00c50a54b98b910160405180910390a15050565b606080600061150985602001356114c286611afb565b6114cf60a08901896127c5565b8080601f016020809104026020016040519081016040528093929190818152602001838380828437600092019190915250611b2792505050565b909350905060008161151c57600161151f565b60025b905061153f6115316020880188612373565b8261065460808a018a6127c5565b6004549093506001600160a01b031680156115c55760405163043a78eb60e01b81526001600160a01b0382169063043a78eb90611582908890889060040161296b565b602060405180830381865afa15801561159f573d6000803e3d6000fd5b505050506040513d601f19601f820116820180604052508101906115c39190612990565b505b5050509250929050565b60408051808201909152600080825260208201527f00000000000000000000000000000000000000000000000000000000000000006001600160a01b031663ddc28c586040518060a001604052808863ffffffff16815260200161163289611287565b8152602001878152602001868152602001851515815250306040518363ffffffff1660e01b81526004016116679291906129ad565b6040805180830381865afa158015611683573d6000803e3d6000fd5b505050506040513d601f19601f820116820180604052508101906116a79190612a56565b95945050505050565b600080546001600160a01b038381166001600160a01b0319831681178455604051919092169283917f8be0079c531659141344cd1fd0a4f28419497f9722a3daafe3b4186f6b6457e09190a35050565b6040516001600160a01b0383811660248301526044820183905261175f91859182169063a9059cbb906064015b604051602081830303815290604052915060e01b6020820180516001600160e01b038381831617835250505050611ba1565b505050565b60005b815181101561183b576117968282815181106117855761178561278e565b60200260200101516040015161186b565b8181815181106117a8576117a861278e565b602002602001015160400151600360008484815181106117ca576117ca61278e565b60200260200101516000015163ffffffff1663ffffffff16815260200190815260200160002060008484815181106118045761180461278e565b60200260200101516020015161ffff1661ffff16815260200190815260200160002090816118329190612ac2565b50600101611767565b507fbe4864a8e820971c0247f5992e2da559595f7bf076a21cb5928d443d2a13b67481604051610b1a9190612b81565b600281015161ffff81166003146109b65781604051639a6d49cd60e01b815260040161092b919061223f565b61189f611eb7565b60408051808201909152600080825260208201526000806118d633604089013560608a01356118d160208c018c612373565b611c18565b915091506000806118e789846114ac565b90925090506119136118fc60208b018b612373565b838361190d368d90038d018d612c0c565b8b611c69565b60408051808201909152858152602080820186905282519298509096503391907f85496b760a4b7f8d66384b9df21b381f5d1b1e79f229a47aaf4c232edc2fe59a90611961908d018d612373565b6040805163ffffffff909216825260208201899052810187905260600160405180910390a350505050935093915050565b60007f00000000000000000000000000000000000000000000000000000000000000006119bf8184612c3e565b610a1d9190612c60565b60006119d860208284866126ff565b6119e191612c85565b9392505050565b60006119f86028602084866126ff565b611a0191612ca3565b60c01c9392505050565b6000610a1d7f00000000000000000000000000000000000000000000000000000000000000006001600160401b038416612c60565b6000611a766001600160a01b037f0000000000000000000000000000000000000000000000000000000000000000168585611700565b509092915050565b6060611a8d82602881866126ff565b8080601f016020809104026020016040519081016040528093929190818152602001838380828437600092019190915250929695505050505050565b606084848484604051602001611ae29493929190612cd3565b6040516020818303038152906040529050949350505050565b6000610a1d7f000000000000000000000000000000000000000000000000000000000000000083612c3e565b8051606090151580611b70578484604051602001611b5c92919091825260c01b6001600160c01b031916602082015260280190565b604051602081830303815290604052611b97565b84843385604051602001611b879493929190612d22565b6040516020818303038152906040525b9150935093915050565b600080602060008451602086016000885af180611bc4576040513d6000823e3d81fd5b50506000513d91508115611bdc578060011415611be9565b6001600160a01b0384163b155b15611c1257604051635274afe760e01b81526001600160a01b038516600482015260240161092b565b50505050565b600080611c2685858561124b565b9092509050611c606001600160a01b037f000000000000000000000000000000000000000000000000000000000000000016873085611d74565b94509492505050565b611c71611eb7565b6000611c808460000151611dad565b602085015190915015611c9a57611c9a8460200151611dd5565b7f00000000000000000000000000000000000000000000000000000000000000006001600160a01b0316632637a450826040518060a001604052808b63ffffffff168152602001611cea8c611287565b81526020018a815260200189815260200160008960200151111515815250866040518463ffffffff1660e01b8152600401611d269291906129ad565b60806040518083038185885af1158015611d44573d6000803e3d6000fd5b50505050506040513d601f19601f82011682018060405250810190611d699190612d65565b979650505050505050565b6040516001600160a01b038481166024830152838116604483015260648201839052611c129186918216906323b872dd9060840161172d565b6000813414611dd1576040516304fb820960e51b815234600482015260240161092b565b5090565b60007f00000000000000000000000000000000000000000000000000000000000000006001600160a01b031663e4fe1d946040518163ffffffff1660e01b8152600401602060405180830381865afa158015611e35573d6000803e3d6000fd5b505050506040513d601f19601f82011682018060405250810190611e5991906124c9565b90506001600160a01b038116611e82576040516329b99a9560e11b815260040160405180910390fd5b6109b66001600160a01b038216337f000000000000000000000000000000000000000000000000000000000000000085611d74565b60405180606001604052806000801916815260200160006001600160401b03168152602001611ef9604051806040016040528060008152602001600081525090565b905290565b600060e08284031215611f1057600080fd5b50919050565b600060208284031215611f2857600080fd5b81356001600160401b03811115611f3e57600080fd5b610ca484828501611efe565b60005b83811015611f65578181015183820152602001611f4d565b50506000910152565b60008151808452611f86816020860160208601611f4a565b601f01601f19169290920160200192915050565b8351815260208085015190820152600060a08201604060a0604085015281865180845260c08601915060c08160051b8701019350602080890160005b838110156120155788870360bf1901855281518051885283015183880187905261200287890182611f6e565b9750509382019390820190600101611fd6565b50508751606088015250505060208501516080850152509050610ca4565b600060608284031215611f1057600080fd5b60008083601f84011261205757600080fd5b5081356001600160401b0381111561206e57600080fd5b60208301915083602082850101111561208657600080fd5b9250929050565b6001600160a01b038116811461121257600080fd5b600080600080600080600060e0888a0312156120bd57600080fd5b6120c78989612033565b96506060880135955060808801356001600160401b03808211156120ea57600080fd5b6120f68b838c01612045565b909750955060a08a0135915061210b8261208d565b90935060c0890135908082111561212157600080fd5b5061212e8a828b01612045565b989b979a50959850939692959293505050565b803563ffffffff8116811461215557600080fd5b919050565b6000806040838503121561216d57600080fd5b61217683612141565b946020939093013593505050565b801515811461121257600080fd5b600080604083850312156121a557600080fd5b82356001600160401b038111156121bb57600080fd5b6121c785828601611efe565b92505060208301356121d881612184565b809150509250929050565b815181526020808301519082015260408101610a1d565b803561ffff8116811461215557600080fd5b6000806040838503121561221f57600080fd5b61222883612141565b9150612236602084016121fa565b90509250929050565b6020815260006119e16020830184611f6e565b60006020828403121561226457600080fd5b81356119e18161208d565b60006020828403121561228157600080fd5b5035919050565b60008060008060a0858703121561229e57600080fd5b6122a88686612033565b935060608501356001600160401b038111156122c357600080fd5b6122cf87828801612045565b90945092505060808501356122e38161208d565b939692955090935050565b60008083601f84011261230057600080fd5b5081356001600160401b0381111561231757600080fd5b6020830191508360208260051b850101111561208657600080fd5b6000806020838503121561234557600080fd5b82356001600160401b0381111561235b57600080fd5b612367858286016122ee565b90969095509350505050565b60006020828403121561238557600080fd5b6119e182612141565b600080600080606085870312156123a457600080fd5b6123ad85612141565b93506123bb602086016121fa565b925060408501356001600160401b038111156123d657600080fd5b6123e287828801612045565b95989497509550505050565b6000806000838503608081121561240457600080fd5b84356001600160401b0381111561241a57600080fd5b61242687828801611efe565b9450506040601f198201121561243b57600080fd5b5060208401915060608401356124508161208d565b809150509250925092565b600060c082019050835182526001600160401b0360208501511660208301526040840151612496604084018280518252602090810151910152565b5082516080830152602083015160a08301526119e1565b6000606082840312156124bf57600080fd5b6119e18383612033565b6000602082840312156124db57600080fd5b81516119e18161208d565b6000602082840312156124f857600080fd5b5051919050565b634e487b7160e01b600052604160045260246000fd5b600181811c9082168061252957607f821691505b602082108103611f1057634e487b7160e01b600052602260045260246000fd5b604051606081016001600160401b038111828210171561256b5761256b6124ff565b60405290565b604080519081016001600160401b038111828210171561256b5761256b6124ff565b604051601f8201601f191681016001600160401b03811182821017156125bb576125bb6124ff565b604052919050565b60006001600160401b038211156125dc576125dc6124ff565b50601f01601f191660200190565b60006001600160401b0380841115612604576126046124ff565b8360051b6020612615818301612593565b86815291850191818101903684111561262d57600080fd5b865b848110156126f3578035868111156126475760008081fd5b8801606036829003121561265b5760008081fd5b612663612549565b61266c82612141565b81526126798683016121fa565b86820152604080830135898111156126915760008081fd5b929092019136601f8401126126a65760008081fd5b82356126b96126b4826125c3565b612593565b81815236898387010111156126ce5760008081fd5b818986018a83013760009181018901919091529082015284525091830191830161262f565b50979650505050505050565b6000808585111561270f57600080fd5b8386111561271c57600080fd5b5050820193919092039150565b6000845161273b818460208901611f4a565b8201838582376000930192835250909392505050565b81835281816020850137506000828201602090810191909152601f909101601f19169091010190565b602081526000610ca4602083018486612751565b634e487b7160e01b600052603260045260246000fd5b6000823561013e198336030181126127bb57600080fd5b9190910192915050565b6000808335601e198436030181126127dc57600080fd5b8301803591506001600160401b038211156127f657600080fd5b60200191503681900382131561208657600080fd5b6001600160401b038116811461121257600080fd5b63ffffffff61282e89612141565b168152602088013560208201526000604089013561284b8161280b565b6001600160401b03811660408401525087606083015260e0608083015261287660e083018789612751565b6001600160a01b03861660a084015282810360c0840152612898818587612751565b9a9950505050505050505050565b6000602082840312156128b857600080fd5b81516001600160401b038111156128ce57600080fd5b8201601f810184136128df57600080fd5b80516128ed6126b4826125c3565b81815285602083850101111561290257600080fd5b6116a7826020830160208601611f4a565b60006020828403121561292557600080fd5b81356119e18161280b565b60018060a01b038516815283602082015261ffff831660408201526080606082015260006129616080830184611f6e565b9695505050505050565b60408152600061297e6040830185611f6e565b82810360208401526116a78185611f6e565b6000602082840312156129a257600080fd5b81516119e181612184565b6040815263ffffffff8351166040820152602083015160608201526000604084015160a060808401526129e360e0840182611f6e565b90506060850151603f198483030160a0850152612a008282611f6e565b60809690960151151560c08501525050506001600160a01b039190911660209091015290565b600060408284031215612a3857600080fd5b612a40612571565b9050815181526020820151602082015292915050565b600060408284031215612a6857600080fd5b6119e18383612a26565b601f82111561175f576000816000526020600020601f850160051c81016020861015612a9b5750805b601f850160051c820191505b81811015612aba57828155600101612aa7565b505050505050565b81516001600160401b03811115612adb57612adb6124ff565b612aef81612ae98454612515565b84612a72565b602080601f831160018114612b245760008415612b0c5750858301515b600019600386901b1c1916600185901b178555612aba565b600085815260208120601f198616915b82811015612b5357888601518255948401946001909101908401612b34565b5085821015612b715787850151600019600388901b60f8161c191681555b5050505050600190811b01905550565b600060208083018184528085518083526040925060408601915060408160051b87010184880160005b83811015612bfe57888303603f190185528151805163ffffffff1684528781015161ffff16888501528601516060878501819052612bea81860183611f6e565b968901969450505090860190600101612baa565b509098975050505050505050565b600060408284031215612c1e57600080fd5b612c26612571565b82358152602083013560208201528091505092915050565b600082612c5b57634e487b7160e01b600052601260045260246000fd5b500490565b8082028115828204841417610a1d57634e487b7160e01b600052601160045260246000fd5b80356020831015610a1d57600019602084900360031b1b1692915050565b6001600160c01b03198135818116916008851015612ccb5780818660080360031b1b83161692505b505092915050565b6001600160401b0360c01b8560c01b16815263ffffffff60e01b8460e01b16600882015282600c82015260008251612d1281602c850160208701611f4a565b91909101602c0195945050505050565b8481526001600160401b0360c01b8460c01b16602082015282602882015260008251612d55816048850160208701611f4a565b9190910160480195945050505050565b600060808284031215612d7757600080fd5b612d7f612549565b825181526020830151612d918161280b565b6020820152612da38460408501612a26565b6040820152939250505056fea264697066735822122021e9c1024e7b17a54d95ad7570f9c08b400b4a86f66df574a11dd12de31cea0d64736f6c63430008180033",
  "linkReferences": {},
  "deployedLinkReferences": {}
}