{
  "_format": "hh-sol-artifact-1",
  "contractName": "BaseOFTAdapter",
  "sourceName": "contracts/BaseOFTAdapter.sol",
  "abi": [
    {
      "inputs": [
        {
          "internalType": "address",
          "name": "_token",
          "type": "address"
        },
        {
          "internalType": "address",
          "name": "_lzEndpoint",
          "type": "address"
        },
        {
          "internalType": "address",
          "name": "_owner",
          "type": "address"
        }
      ],
      "stateMutability": "nonpayable",
      "type": "constructor"
    },
    {
      "inputs": [],
      "name": "EnforcedPause",
      "type": "error"
    },
    {
      "inputs": [],
      "name": "ExpectedPause",
      "type": "error"
    },
    {
      "inputs": [],
      "name": "InvalidDelegate",
      "type": "error"
    },
    {
      "inputs": [],
      "name": "InvalidEndpointCall",
      "type": "error"
    },
    {
      "inputs": [],
      "name": "InvalidLocalDecimals",
      "type": "error"
    },
    {
      "inputs": [
        {
          "internalType": "bytes",
          "name": "options",
          "type": "bytes"
        }
      ],
      "name": "InvalidOptions",
      "type": "error"
    },
    {
      "inputs": [],
      "name": "LzTokenUnavailable",
      "type": "error"
    },
    {
      "inputs": [
        {
          "internalType": "uint32",
          "name": "eid",
          "type": "uint32"
        }
      ],
      "name": "NoPeer",
      "type": "error"
    },
    {
      "inputs": [
        {
          "internalType": "uint256",
          "name": "msgValue",
          "type": "uint256"
        }
      ],
      "name": "NotEnoughNative",
      "type": "error"
    },
    {
      "inputs": [
        {
          "internalType": "address",
          "name": "addr",
          "type": "address"
        }
      ],
      "name": "OnlyEndpoint",
      "type": "error"
    },
    {
      "inputs": [
        {
          "internalType": "uint32",
          "name": "eid",
          "type": "uint32"
        },
        {
          "internalType": "bytes32",
          "name": "sender",
          "type": "bytes32"
        }
      ],
      "name": "OnlyPeer",
      "type": "error"
    },
    {
      "inputs": [],
      "name": "OnlySelf",
      "type": "error"
    },
    {
      "inputs": [
        {
          "internalType": "address",
          "name": "owner",
          "type": "address"
        }
      ],
      "name": "OwnableInvalidOwner",
      "type": "error"
    },
    {
      "inputs": [
        {
          "internalType": "address",
          "name": "account",
          "type": "address"
        }
      ],
      "name": "OwnableUnauthorizedAccount",
      "type": "error"
    },
    {
      "inputs": [],
      "name": "ReentrancyGuardReentrantCall",
      "type": "error"
    },
    {
      "inputs": [
        {
          "internalType": "address",
          "name": "token",
          "type": "address"
        }
      ],
      "name": "SafeERC20FailedOperation",
      "type": "error"
    },
    {
      "inputs": [
        {
          "internalType": "bytes",
          "name": "result",
          "type": "bytes"
        }
      ],
      "name": "SimulationResult",
      "type": "error"
    },
    {
      "inputs": [
        {
          "internalType": "uint256",
          "name": "amountLD",
          "type": "uint256"
        },
        {
          "internalType": "uint256",
          "name": "minAmountLD",
          "type": "uint256"
        }
      ],
      "name": "SlippageExceeded",
      "type": "error"
    },
    {
      "anonymous": false,
      "inputs": [
        {
          "components": [
            {
              "internalType": "uint32",
              "name": "eid",
              "type": "uint32"
            },
            {
              "internalType": "uint16",
              "name": "msgType",
              "type": "uint16"
            },
            {
              "internalType": "bytes",
              "name": "options",
              "type": "bytes"
            }
          ],
          "indexed": false,
          "internalType": "struct EnforcedOptionParam[]",
          "name": "_enforcedOptions",
          "type": "tuple[]"
        }
      ],
      "name": "EnforcedOptionSet",
      "type": "event"
    },
    {
      "anonymous": false,
      "inputs": [
        {
          "indexed": false,
          "internalType": "address",
          "name": "inspector",
          "type": "address"
        }
      ],
      "name": "MsgInspectorSet",
      "type": "event"
    },
    {
      "anonymous": false,
      "inputs": [
        {
          "indexed": true,
          "internalType": "bytes32",
          "name": "guid",
          "type": "bytes32"
        },
        {
          "indexed": false,
          "internalType": "uint32",
          "name": "srcEid",
          "type": "uint32"
        },
        {
          "indexed": true,
          "internalType": "address",
          "name": "toAddress",
          "type": "address"
        },
        {
          "indexed": false,
          "internalType": "uint256",
          "name": "amountReceivedLD",
          "type": "uint256"
        }
      ],
      "name": "OFTReceived",
      "type": "event"
    },
    {
      "anonymous": false,
      "inputs": [
        {
          "indexed": true,
          "internalType": "bytes32",
          "name": "guid",
          "type": "bytes32"
        },
        {
          "indexed": false,
          "internalType": "uint32",
          "name": "dstEid",
          "type": "uint32"
        },
        {
          "indexed": true,
          "internalType": "address",
          "name": "fromAddress",
          "type": "address"
        },
        {
          "indexed": false,
          "internalType": "uint256",
          "name": "amountSentLD",
          "type": "uint256"
        },
        {
          "indexed": false,
          "internalType": "uint256",
          "name": "amountReceivedLD",
          "type": "uint256"
        }
      ],
      "name": "OFTSent",
      "type": "event"
    },
    {
      "anonymous": false,
      "inputs": [
        {
          "indexed": true,
          "internalType": "address",
          "name": "previousOwner",
          "type": "address"
        },
        {
          "indexed": true,
          "internalType": "address",
          "name": "newOwner",
          "type": "address"
        }
      ],
      "name": "OwnershipTransferred",
      "type": "event"
    },
    {
      "anonymous": false,
      "inputs": [
        {
          "indexed": false,
          "internalType": "address",
          "name": "account",
          "type": "address"
        }
      ],
      "name": "Paused",
      "type": "event"
    },
    {
      "anonymous": false,
      "inputs": [
        {
          "indexed": false,
          "internalType": "uint32",
          "name": "eid",
          "type": "uint32"
        },
        {
          "indexed": false,
          "internalType": "bytes32",
          "name": "peer",
          "type": "bytes32"
        }
      ],
      "name": "PeerSet",
      "type": "event"
    },
    {
      "anonymous": false,
      "inputs": [
        {
          "indexed": false,
          "internalType": "address",
          "name": "preCrimeAddress",
          "type": "address"
        }
      ],
      "name": "PreCrimeSet",
      "type": "event"
    },
    {
      "anonymous": false,
      "inputs": [
        {
          "indexed": true,
          "internalType": "address",
          "name": "user",
          "type": "address"
        },
        {
          "indexed": false,
          "internalType": "uint256",
          "name": "count",
          "type": "uint256"
        }
      ],
      "name": "TransferHistoryCleared",
      "type": "event"
    },
    {
      "anonymous": false,
      "inputs": [
        {
          "indexed": true,
          "internalType": "bytes32",
          "name": "lzMsgId",
          "type": "bytes32"
        },
        {
          "indexed": true,
          "internalType": "address",
          "name": "sender",
          "type": "address"
        },
        {
          "indexed": false,
          "internalType": "uint256",
          "name": "amount",
          "type": "uint256"
        }
      ],
      "name": "TransferLocked",
      "type": "event"
    },
    {
      "anonymous": false,
      "inputs": [
        {
          "indexed": true,
          "internalType": "bytes32",
          "name": "lzMsgId",
          "type": "bytes32"
        },
        {
          "indexed": true,
          "internalType": "address",
          "name": "sender",
          "type": "address"
        },
        {
          "indexed": false,
          "internalType": "uint256",
          "name": "amount",
          "type": "uint256"
        }
      ],
      "name": "TransferRefunded",
      "type": "event"
    },
    {
      "anonymous": false,
      "inputs": [
        {
          "indexed": false,
          "internalType": "address",
          "name": "account",
          "type": "address"
        }
      ],
      "name": "Unpaused",
      "type": "event"
    },
    {
      "inputs": [],
      "name": "SEND",
      "outputs": [
        {
          "internalType": "uint16",
          "name": "",
          "type": "uint16"
        }
      ],
      "stateMutability": "view",
      "type": "function"
    },
    {
      "inputs": [],
      "name": "SEND_AND_CALL",
      "outputs": [
        {
          "internalType": "uint16",
          "name": "",
          "type": "uint16"
        }
      ],
      "stateMutability": "view",
      "type": "function"
    },
    {
      "inputs": [
        {
          "components": [
            {
              "internalType": "uint32",
              "name": "srcEid",
              "type": "uint32"
            },
            {
              "internalType": "bytes32",
              "name": "sender",
              "type": "bytes32"
            },
            {
              "internalType": "uint64",
              "name": "nonce",
              "type": "uint64"
            }
          ],
          "internalType": "struct Origin",
          "name": "origin",
          "type": "tuple"
        }
      ],
      "name": "allowInitializePath",
      "outputs": [
        {
          "internalType": "bool",
          "name": "",
          "type": "bool"
        }
      ],
      "stateMutability": "view",
      "type": "function"
    },
    {
      "inputs": [],
      "name": "approvalRequired",
      "outputs": [
        {
          "internalType": "bool",
          "name": "",
          "type": "bool"
        }
      ],
      "stateMutability": "pure",
      "type": "function"
    },
    {
      "inputs": [
        {
          "internalType": "address",
          "name": "user",
          "type": "address"
        },
        {
          "internalType": "uint256",
          "name": "count",
          "type": "uint256"
        }
      ],
      "name": "clearOldTransferRecords",
      "outputs": [],
      "stateMutability": "nonpayable",
      "type": "function"
    },
    {
      "inputs": [
        {
          "internalType": "uint32",
          "name": "_eid",
          "type": "uint32"
        },
        {
          "internalType": "uint16",
          "name": "_msgType",
          "type": "uint16"
        },
        {
          "internalType": "bytes",
          "name": "_extraOptions",
          "type": "bytes"
        }
      ],
      "name": "combineOptions",
      "outputs": [
        {
          "internalType": "bytes",
          "name": "",
          "type": "bytes"
        }
      ],
      "stateMutability": "view",
      "type": "function"
    },
    {
      "inputs": [],
      "name": "decimalConversionRate",
      "outputs": [
        {
          "internalType": "uint256",
          "name": "",
          "type": "uint256"
        }
      ],
      "stateMutability": "view",
      "type": "function"
    },
    {
      "inputs": [],
      "name": "endpoint",
      "outputs": [
        {
          "internalType": "contract ILayerZeroEndpointV2",
          "name": "",
          "type": "address"
        }
      ],
      "stateMutability": "view",
      "type": "function"
    },
    {
      "inputs": [
        {
          "internalType": "uint32",
          "name": "eid",
          "type": "uint32"
        },
        {
          "internalType": "uint16",
          "name": "msgType",
          "type": "uint16"
        }
      ],
      "name": "enforcedOptions",
      "outputs": [
        {
          "internalType": "bytes",
          "name": "enforcedOption",
          "type": "bytes"
        }
      ],
      "stateMutability": "view",
      "type": "function"
    },
    {
      "inputs": [
        {
          "internalType": "address",
          "name": "user",
          "type": "address"
        }
      ],
      "name": "getActiveTransfersByUser",
      "outputs": [
        {
          "internalType": "bytes32[]",
          "name": "activeIds",
          "type": "bytes32[]"
        },
        {
          "internalType": "uint256[]",
          "name": "amounts",
          "type": "uint256[]"
        }
      ],
      "stateMutability": "view",
      "type": "function"
    },
    {
      "inputs": [
        {
          "internalType": "address",
          "name": "user",
          "type": "address"
        }
      ],
      "name": "getTransfersByUser",
      "outputs": [
        {
          "internalType": "bytes32[]",
          "name": "",
          "type": "bytes32[]"
        }
      ],
      "stateMutability": "view",
      "type": "function"
    },
    {
      "inputs": [
        {
          "components": [
            {
              "internalType": "uint32",
              "name": "srcEid",
              "type": "uint32"
            },
            {
              "internalType": "bytes32",
              "name": "sender",
              "type": "bytes32"
            },
            {
              "internalType": "uint64",
              "name": "nonce",
              "type": "uint64"
            }
          ],
          "internalType": "struct Origin",
          "name": "",
          "type": "tuple"
        },
        {
          "internalType": "bytes",
          "name": "",
          "type": "bytes"
        },
        {
          "internalType": "address",
          "name": "_sender",
          "type": "address"
        }
      ],
      "name": "isComposeMsgSender",
      "outputs": [
        {
          "internalType": "bool",
          "name": "",
          "type": "bool"
        }
      ],
      "stateMutability": "view",
      "type": "function"
    },
    {
      "inputs": [
        {
          "internalType": "uint32",
          "name": "_eid",
          "type": "uint32"
        },
        {
          "internalType": "bytes32",
          "name": "_peer",
          "type": "bytes32"
        }
      ],
      "name": "isPeer",
      "outputs": [
        {
          "internalType": "bool",
          "name": "",
          "type": "bool"
        }
      ],
      "stateMutability": "view",
      "type": "function"
    },
    {
      "inputs": [
        {
          "internalType": "bytes32",
          "name": "",
          "type": "bytes32"
        }
      ],
      "name": "lockedTransfers",
      "outputs": [
        {
          "internalType": "address",
          "name": "sender",
          "type": "address"
        },
        {
          "internalType": "uint256",
          "name": "amount",
          "type": "uint256"
        },
        {
          "internalType": "bool",
          "name": "refunded",
          "type": "bool"
        }
      ],
      "stateMutability": "view",
      "type": "function"
    },
    {
      "inputs": [
        {
          "components": [
            {
              "internalType": "uint32",
              "name": "srcEid",
              "type": "uint32"
            },
            {
              "internalType": "bytes32",
              "name": "sender",
              "type": "bytes32"
            },
            {
              "internalType": "uint64",
              "name": "nonce",
              "type": "uint64"
            }
          ],
          "internalType": "struct Origin",
          "name": "_origin",
          "type": "tuple"
        },
        {
          "internalType": "bytes32",
          "name": "_guid",
          "type": "bytes32"
        },
        {
          "internalType": "bytes",
          "name": "_message",
          "type": "bytes"
        },
        {
          "internalType": "address",
          "name": "_executor",
          "type": "address"
        },
        {
          "internalType": "bytes",
          "name": "_extraData",
          "type": "bytes"
        }
      ],
      "name": "lzReceive",
      "outputs": [],
      "stateMutability": "payable",
      "type": "function"
    },
    {
      "inputs": [
        {
          "components": [
            {
              "components": [
                {
                  "internalType": "uint32",
                  "name": "srcEid",
                  "type": "uint32"
                },
                {
                  "internalType": "bytes32",
                  "name": "sender",
                  "type": "bytes32"
                },
                {
                  "internalType": "uint64",
                  "name": "nonce",
                  "type": "uint64"
                }
              ],
              "internalType": "struct Origin",
              "name": "origin",
              "type": "tuple"
            },
            {
              "internalType": "uint32",
              "name": "dstEid",
              "type": "uint32"
            },
            {
              "internalType": "address",
              "name": "receiver",
              "type": "address"
            },
            {
              "internalType": "bytes32",
              "name": "guid",
              "type": "bytes32"
            },
            {
              "internalType": "uint256",
              "name": "value",
              "type": "uint256"
            },
            {
              "internalType": "address",
              "name": "executor",
              "type": "address"
            },
            {
              "internalType": "bytes",
              "name": "message",
              "type": "bytes"
            },
            {
              "internalType": "bytes",
              "name": "extraData",
              "type": "bytes"
            }
          ],
          "internalType": "struct InboundPacket[]",
          "name": "_packets",
          "type": "tuple[]"
        }
      ],
      "name": "lzReceiveAndRevert",
      "outputs": [],
      "stateMutability": "payable",
      "type": "function"
    },
    {
      "inputs": [
        {
          "components": [
            {
              "internalType": "uint32",
              "name": "srcEid",
              "type": "uint32"
            },
            {
              "internalType": "bytes32",
              "name": "sender",
              "type": "bytes32"
            },
            {
              "internalType": "uint64",
              "name": "nonce",
              "type": "uint64"
            }
          ],
          "internalType": "struct Origin",
          "name": "_origin",
          "type": "tuple"
        },
        {
          "internalType": "bytes32",
          "name": "_guid",
          "type": "bytes32"
        },
        {
          "internalType": "bytes",
          "name": "_message",
          "type": "bytes"
        },
        {
          "internalType": "address",
          "name": "_executor",
          "type": "address"
        },
        {
          "internalType": "bytes",
          "name": "_extraData",
          "type": "bytes"
        }
      ],
      "name": "lzReceiveSimulate",
      "outputs": [],
      "stateMutability": "payable",
      "type": "function"
    },
    {
      "inputs": [],
      "name": "msgInspector",
      "outputs": [
        {
          "internalType": "address",
          "name": "",
          "type": "address"
        }
      ],
      "stateMutability": "view",
      "type": "function"
    },
    {
      "inputs": [
        {
          "internalType": "uint32",
          "name": "",
          "type": "uint32"
        },
        {
          "internalType": "bytes32",
          "name": "",
          "type": "bytes32"
        }
      ],
      "name": "nextNonce",
      "outputs": [
        {
          "internalType": "uint64",
          "name": "nonce",
          "type": "uint64"
        }
      ],
      "stateMutability": "view",
      "type": "function"
    },
    {
      "inputs": [
        {
          "internalType": "address",
          "name": "",
          "type": "address"
        }
      ],
      "name": "nonces",
      "outputs": [
        {
          "internalType": "uint256",
          "name": "",
          "type": "uint256"
        }
      ],
      "stateMutability": "view",
      "type": "function"
    },
    {
      "inputs": [],
      "name": "oApp",
      "outputs": [
        {
          "internalType": "address",
          "name": "",
          "type": "address"
        }
      ],
      "stateMutability": "view",
      "type": "function"
    },
    {
      "inputs": [],
      "name": "oAppVersion",
      "outputs": [
        {
          "internalType": "uint64",
          "name": "senderVersion",
          "type": "uint64"
        },
        {
          "internalType": "uint64",
          "name": "receiverVersion",
          "type": "uint64"
        }
      ],
      "stateMutability": "pure",
      "type": "function"
    },
    {
      "inputs": [],
      "name": "oftVersion",
      "outputs": [
        {
          "internalType": "bytes4",
          "name": "interfaceId",
          "type": "bytes4"
        },
        {
          "internalType": "uint64",
          "name": "version",
          "type": "uint64"
        }
      ],
      "stateMutability": "pure",
      "type": "function"
    },
    {
      "inputs": [],
      "name": "owner",
      "outputs": [
        {
          "internalType": "address",
          "name": "",
          "type": "address"
        }
      ],
      "stateMutability": "view",
      "type": "function"
    },
    {
      "inputs": [],
      "name": "pause",
      "outputs": [],
      "stateMutability": "nonpayable",
      "type": "function"
    },
    {
      "inputs": [],
      "name": "paused",
      "outputs": [
        {
          "internalType": "bool",
          "name": "",
          "type": "bool"
        }
      ],
      "stateMutability": "view",
      "type": "function"
    },
    {
      "inputs": [
        {
          "internalType": "uint32",
          "name": "eid",
          "type": "uint32"
        }
      ],
      "name": "peers",
      "outputs": [
        {
          "internalType": "bytes32",
          "name": "peer",
          "type": "bytes32"
        }
      ],
      "stateMutability": "view",
      "type": "function"
    },
    {
      "inputs": [],
      "name": "preCrime",
      "outputs": [
        {
          "internalType": "address",
          "name": "",
          "type": "address"
        }
      ],
      "stateMutability": "view",
      "type": "function"
    },
    {
      "inputs": [
        {
          "components": [
            {
              "internalType": "uint32",
              "name": "dstEid",
              "type": "uint32"
            },
            {
              "internalType": "bytes32",
              "name": "to",
              "type": "bytes32"
            },
            {
              "internalType": "uint256",
              "name": "amountLD",
              "type": "uint256"
            },
            {
              "internalType": "uint256",
              "name": "minAmountLD",
              "type": "uint256"
            },
            {
              "internalType": "bytes",
              "name": "extraOptions",
              "type": "bytes"
            },
            {
              "internalType": "bytes",
              "name": "composeMsg",
              "type": "bytes"
            },
            {
              "internalType": "bytes",
              "name": "oftCmd",
              "type": "bytes"
            }
          ],
          "internalType": "struct SendParam",
          "name": "_sendParam",
          "type": "tuple"
        }
      ],
      "name": "quoteOFT",
      "outputs": [
        {
          "components": [
            {
              "internalType": "uint256",
              "name": "minAmountLD",
              "type": "uint256"
            },
            {
              "internalType": "uint256",
              "name": "maxAmountLD",
              "type": "uint256"
            }
          ],
          "internalType": "struct OFTLimit",
          "name": "oftLimit",
          "type": "tuple"
        },
        {
          "components": [
            {
              "internalType": "int256",
              "name": "feeAmountLD",
              "type": "int256"
            },
            {
              "internalType": "string",
              "name": "description",
              "type": "string"
            }
          ],
          "internalType": "struct OFTFeeDetail[]",
          "name": "oftFeeDetails",
          "type": "tuple[]"
        },
        {
          "components": [
            {
              "internalType": "uint256",
              "name": "amountSentLD",
              "type": "uint256"
            },
            {
              "internalType": "uint256",
              "name": "amountReceivedLD",
              "type": "uint256"
            }
          ],
          "internalType": "struct OFTReceipt",
          "name": "oftReceipt",
          "type": "tuple"
        }
      ],
      "stateMutability": "view",
      "type": "function"
    },
    {
      "inputs": [
        {
          "components": [
            {
              "internalType": "uint32",
              "name": "dstEid",
              "type": "uint32"
            },
            {
              "internalType": "bytes32",
              "name": "to",
              "type": "bytes32"
            },
            {
              "internalType": "uint256",
              "name": "amountLD",
              "type": "uint256"
            },
            {
              "internalType": "uint256",
              "name": "minAmountLD",
              "type": "uint256"
            },
            {
              "internalType": "bytes",
              "name": "extraOptions",
              "type": "bytes"
            },
            {
              "internalType": "bytes",
              "name": "composeMsg",
              "type": "bytes"
            },
            {
              "internalType": "bytes",
              "name": "oftCmd",
              "type": "bytes"
            }
          ],
          "internalType": "struct SendParam",
          "name": "_sendParam",
          "type": "tuple"
        },
        {
          "internalType": "bool",
          "name": "_payInLzToken",
          "type": "bool"
        }
      ],
      "name": "quoteSend",
      "outputs": [
        {
          "components": [
            {
              "internalType": "uint256",
              "name": "nativeFee",
              "type": "uint256"
            },
            {
              "internalType": "uint256",
              "name": "lzTokenFee",
              "type": "uint256"
            }
          ],
          "internalType": "struct MessagingFee",
          "name": "msgFee",
          "type": "tuple"
        }
      ],
      "stateMutability": "view",
      "type": "function"
    },
    {
      "inputs": [
        {
          "internalType": "bytes32",
          "name": "lzMsgId",
          "type": "bytes32"
        }
      ],
      "name": "refundTransfer",
      "outputs": [],
      "stateMutability": "nonpayable",
      "type": "function"
    },
    {
      "inputs": [],
      "name": "renounceOwnership",
      "outputs": [],
      "stateMutability": "nonpayable",
      "type": "function"
    },
    {
      "inputs": [
        {
          "components": [
            {
              "internalType": "uint32",
              "name": "dstEid",
              "type": "uint32"
            },
            {
              "internalType": "bytes32",
              "name": "to",
              "type": "bytes32"
            },
            {
              "internalType": "uint256",
              "name": "amountLD",
              "type": "uint256"
            },
            {
              "internalType": "uint256",
              "name": "minAmountLD",
              "type": "uint256"
            },
            {
              "internalType": "bytes",
              "name": "extraOptions",
              "type": "bytes"
            },
            {
              "internalType": "bytes",
              "name": "composeMsg",
              "type": "bytes"
            },
            {
              "internalType": "bytes",
              "name": "oftCmd",
              "type": "bytes"
            }
          ],
          "internalType": "struct SendParam",
          "name": "_sendParam",
          "type": "tuple"
        },
        {
          "components": [
            {
              "internalType": "uint256",
              "name": "nativeFee",
              "type": "uint256"
            },
            {
              "internalType": "uint256",
              "name": "lzTokenFee",
              "type": "uint256"
            }
          ],
          "internalType": "struct MessagingFee",
          "name": "_fee",
          "type": "tuple"
        },
        {
          "internalType": "address",
          "name": "_refundAddress",
          "type": "address"
        }
      ],
      "name": "send",
      "outputs": [
        {
          "components": [
            {
              "internalType": "bytes32",
              "name": "guid",
              "type": "bytes32"
            },
            {
              "internalType": "uint64",
              "name": "nonce",
              "type": "uint64"
            },
            {
              "components": [
                {
                  "internalType": "uint256",
                  "name": "nativeFee",
                  "type": "uint256"
                },
                {
                  "internalType": "uint256",
                  "name": "lzTokenFee",
                  "type": "uint256"
                }
              ],
              "internalType": "struct MessagingFee",
              "name": "fee",
              "type": "tuple"
            }
          ],
          "internalType": "struct MessagingReceipt",
          "name": "msgReceipt",
          "type": "tuple"
        },
        {
          "components": [
            {
              "internalType": "uint256",
              "name": "amountSentLD",
              "type": "uint256"
            },
            {
              "internalType": "uint256",
              "name": "amountReceivedLD",
              "type": "uint256"
            }
          ],
          "internalType": "struct OFTReceipt",
          "name": "oftReceipt",
          "type": "tuple"
        }
      ],
      "stateMutability": "payable",
      "type": "function"
    },
    {
      "inputs": [
        {
          "internalType": "address",
          "name": "_delegate",
          "type": "address"
        }
      ],
      "name": "setDelegate",
      "outputs": [],
      "stateMutability": "nonpayable",
      "type": "function"
    },
    {
      "inputs": [
        {
          "components": [
            {
              "internalType": "uint32",
              "name": "eid",
              "type": "uint32"
            },
            {
              "internalType": "uint16",
              "name": "msgType",
              "type": "uint16"
            },
            {
              "internalType": "bytes",
              "name": "options",
              "type": "bytes"
            }
          ],
          "internalType": "struct EnforcedOptionParam[]",
          "name": "_enforcedOptions",
          "type": "tuple[]"
        }
      ],
      "name": "setEnforcedOptions",
      "outputs": [],
      "stateMutability": "nonpayable",
      "type": "function"
    },
    {
      "inputs": [
        {
          "internalType": "address",
          "name": "_msgInspector",
          "type": "address"
        }
      ],
      "name": "setMsgInspector",
      "outputs": [],
      "stateMutability": "nonpayable",
      "type": "function"
    },
    {
      "inputs": [
        {
          "internalType": "uint32",
          "name": "_eid",
          "type": "uint32"
        },
        {
          "internalType": "bytes32",
          "name": "_peer",
          "type": "bytes32"
        }
      ],
      "name": "setPeer",
      "outputs": [],
      "stateMutability": "nonpayable",
      "type": "function"
    },
    {
      "inputs": [
        {
          "internalType": "address",
          "name": "_preCrime",
          "type": "address"
        }
      ],
      "name": "setPreCrime",
      "outputs": [],
      "stateMutability": "nonpayable",
      "type": "function"
    },
    {
      "inputs": [],
      "name": "sharedDecimals",
      "outputs": [
        {
          "internalType": "uint8",
          "name": "",
          "type": "uint8"
        }
      ],
      "stateMutability": "view",
      "type": "function"
    },
    {
      "inputs": [],
      "name": "token",
      "outputs": [
        {
          "internalType": "address",
          "name": "",
          "type": "address"
        }
      ],
      "stateMutability": "view",
      "type": "function"
    },
    {
      "inputs": [
        {
          "internalType": "address",
          "name": "newOwner",
          "type": "address"
        }
      ],
      "name": "transferOwnership",
      "outputs": [],
      "stateMutability": "nonpayable",
      "type": "function"
    },
    {
      "inputs": [],
      "name": "unpause",
      "outputs": [],
      "stateMutability": "nonpayable",
      "type": "function"
    },
    {
      "inputs": [
        {
          "internalType": "address",
          "name": "",
          "type": "address"
        },
        {
          "internalType": "uint256",
          "name": "",
          "type": "uint256"
        }
      ],
      "name": "userTransfers",
      "outputs": [
        {
          "internalType": "bytes32",
          "name": "",
          "type": "bytes32"
        }
      ],
      "stateMutability": "view",
      "type": "function"
    }
  ],
  "bytecode": "0x60e06040523480156200001157600080fd5b5060405162003a7c38038062003a7c833981016040819052620000349162000265565b828282826001600160a01b031663313ce5676040518163ffffffff1660e01b8152600401602060405180830381865afa15801562000076573d6000803e3d6000fd5b505050506040513d601f19601f820116820180604052508101906200009c9190620002af565b8282818181818a6001600160a01b038116620000d257604051631e4fbdf760e01b81526000600482015260240160405180910390fd5b620000dd81620001f3565b506000805460ff60a01b19169055600180556001600160a01b0380831660805281166200011d57604051632d618d8160e21b815260040160405180910390fd5b60805160405163ca5eb5e160e01b81526001600160a01b0383811660048301529091169063ca5eb5e190602401600060405180830381600087803b1580156200016557600080fd5b505af11580156200017a573d6000803e3d6000fd5b5050505050505050620001926200024360201b60201c565b60ff168360ff161015620001b9576040516301e9714b60e41b815260040160405180910390fd5b620001c6600684620002f1565b620001d390600a62000410565b60a0525050506001600160a01b0390921660c05250620004219350505050565b600080546001600160a01b038381166001600160a01b0319831681178455604051919092169283917f8be0079c531659141344cd1fd0a4f28419497f9722a3daafe3b4186f6b6457e09190a35050565b600690565b80516001600160a01b03811681146200026057600080fd5b919050565b6000806000606084860312156200027b57600080fd5b620002868462000248565b9250620002966020850162000248565b9150620002a66040850162000248565b90509250925092565b600060208284031215620002c257600080fd5b815160ff81168114620002d457600080fd5b9392505050565b634e487b7160e01b600052601160045260246000fd5b60ff82811682821603908111156200030d576200030d620002db565b92915050565b600181815b8085111562000354578160001904821115620003385762000338620002db565b808516156200034657918102915b93841c939080029062000318565b509250929050565b6000826200036d575060016200030d565b816200037c575060006200030d565b8160018114620003955760028114620003a057620003c0565b60019150506200030d565b60ff841115620003b457620003b4620002db565b50506001821b6200030d565b5060208310610133831016604e8410600b8410161715620003e5575081810a6200030d565b620003f1838362000313565b8060001904821115620004085762000408620002db565b029392505050565b6000620002d460ff8416836200035c565b60805160a05160c0516135d0620004ac60003960008181610878015281816110920152818161210501526123180152600081816106420152818161204c015281816120c801526121b80152600081816104a601528181610a4f015281816116bf0152818161192101528181611bae0152818161237c015281816124b9015261257201526135d06000f3fe60806040526004361061025c5760003560e01c80637ecebe0011610144578063b98bd070116100b6578063ca5eb5e11161007a578063ca5eb5e1146107f6578063d045a0dc14610816578063d424388514610829578063f2fde38b14610849578063fc0c546a14610869578063ff7bd03d1461089c57600080fd5b8063b98bd07014610755578063bb0b6a5314610775578063bc70b354146107a2578063bd815db0146107c2578063c7c7f5b3146107d557600080fd5b8063963efcaa11610108578063963efcaa146106305780639f68b96414610664578063a1de4c8214610678578063ad991c15146106e8578063b173a60614610708578063b731ea0a1461073557600080fd5b80637ecebe001461059457806382413eac146105c15780638456cb59146105e1578063857749b0146105f65780638da5cb5b1461061257600080fd5b80634a533432116101dd5780635e280f11116101a15780635e280f111461049457806361d7194b146104c85780636fc1b31e146104f6578063715018a61461051657806374aa1c0d1461052b5780637d25a05e1461055957600080fd5b80634a533432146103ce57806352ae2879146103ee5780635535d461146104015780635a0dfe4d1461042e5780635c975abb1461047557600080fd5b806317442b701161022457806317442b70146103355780631f5e1334146103575780633400288b1461036c5780633b6f743b1461038c5780633f4ba83a146103b957600080fd5b80630d35b41514610261578063111ecdad1461029957806313137d65146102d1578063134d4f25146102e6578063156a0d0f1461030e575b600080fd5b34801561026d57600080fd5b5061028161027c3660046125f6565b6108bc565b6040516102909392919061267a565b60405180910390f35b3480156102a557600080fd5b506005546102b9906001600160a01b031681565b6040516001600160a01b039091168152602001610290565b6102e46102df366004612782565b610a4d565b005b3480156102f257600080fd5b506102fb600281565b60405161ffff9091168152602001610290565b34801561031a57600080fd5b506040805162b9270b60e21b81526001602082015201610290565b34801561034157600080fd5b5060408051600181526002602082015201610290565b34801561036357600080fd5b506102fb600181565b34801561037857600080fd5b506102e461038736600461283a565b610b0d565b34801561039857600080fd5b506103ac6103a7366004612872565b610b23565b60405161029091906128c3565b3480156103c557600080fd5b506102e4610b8c565b3480156103da57600080fd5b506102e46103e93660046128da565b610b9e565b3480156103fa57600080fd5b50306102b9565b34801561040d57600080fd5b5061042161041c36600461290a565b610c8f565b604051610290919061293d565b34801561043a57600080fd5b5061046561044936600461283a565b63ffffffff919091166000908152600260205260409020541490565b6040519015158152602001610290565b34801561048157600080fd5b50600054600160a01b900460ff16610465565b3480156104a057600080fd5b506102b97f000000000000000000000000000000000000000000000000000000000000000081565b3480156104d457600080fd5b506104e86104e33660046128da565b610d34565b604051908152602001610290565b34801561050257600080fd5b506102e4610511366004612950565b610d65565b34801561052257600080fd5b506102e4610dc2565b34801561053757600080fd5b5061054b610546366004612950565b610dd4565b6040516102909291906129a9565b34801561056557600080fd5b5061057c61057436600461283a565b600092915050565b6040516001600160401b039091168152602001610290565b3480156105a057600080fd5b506104e86105af366004612950565b60086020526000908152604090205481565b3480156105cd57600080fd5b506104656105dc366004612a00565b610f8e565b3480156105ed57600080fd5b506102e4610fa3565b34801561060257600080fd5b5060405160068152602001610290565b34801561061e57600080fd5b506000546001600160a01b03166102b9565b34801561063c57600080fd5b506104e87f000000000000000000000000000000000000000000000000000000000000000081565b34801561067057600080fd5b506001610465565b34801561068457600080fd5b506106c1610693366004612a66565b6006602052600090815260409020805460018201546002909201546001600160a01b03909116919060ff1683565b604080516001600160a01b0390941684526020840192909252151590820152606001610290565b3480156106f457600080fd5b506102e4610703366004612a66565b610fb3565b34801561071457600080fd5b50610728610723366004612950565b611119565b6040516102909190612a7f565b34801561074157600080fd5b506003546102b9906001600160a01b031681565b34801561076157600080fd5b506102e4610770366004612ad6565b611185565b34801561078157600080fd5b506104e8610790366004612b17565b60026020526000908152604090205481565b3480156107ae57600080fd5b506104216107bd366004612b32565b61119f565b6102e46107d0366004612ad6565b611347565b6107e86107e3366004612b92565b6114d1565b604051610290929190612bff565b34801561080257600080fd5b506102e4610811366004612950565b611698565b6102e4610824366004612782565b61171e565b34801561083557600080fd5b506102e4610844366004612950565b61174d565b34801561085557600080fd5b506102e4610864366004612950565b6117a3565b34801561087557600080fd5b507f00000000000000000000000000000000000000000000000000000000000000006102b9565b3480156108a857600080fd5b506104656108b7366004612c51565b6117de565b604080518082019091526000808252602082015260606108ef604051806040016040528060008152602001600081525090565b600080306001600160a01b031663fc0c546a6040518163ffffffff1660e01b8152600401602060405180830381865afa158015610930573d6000803e3d6000fd5b505050506040513d601f19601f820116820180604052508101906109549190612c6d565b6001600160a01b03166318160ddd6040518163ffffffff1660e01b8152600401602060405180830381865afa158015610991573d6000803e3d6000fd5b505050506040513d601f19601f820116820180604052508101906109b59190612c8a565b60408051808201825284815260208082018490528251600080825291810190935290975091925090610a0a565b6040805180820190915260008152606060208201528152602001906001900390816109e25790505b509350600080610a2f604089013560608a0135610a2a60208c018c612b17565b611814565b60408051808201909152918252602082015296989597505050505050565b7f00000000000000000000000000000000000000000000000000000000000000006001600160a01b03163314610a9d576040516391ac5e4f60e01b81523360048201526024015b60405180910390fd5b60208701803590610ab790610ab2908a612b17565b611850565b14610af557610ac96020880188612b17565b60405163309afaf360e21b815263ffffffff909116600482015260208801356024820152604401610a94565b610b048787878787878761188c565b50505050505050565b610b156119f3565b610b1f8282611a20565b5050565b60408051808201909152600080825260208201526000610b5360408501356060860135610a2a6020880188612b17565b915050600080610b638684611a75565b9092509050610b80610b786020880188612b17565b838388611b98565b93505050505b92915050565b610b946119f3565b610b9c611c79565b565b610ba66119f3565b610bae611cce565b6001600160a01b0382166000908152600760205260409020805480831115610bd4578092505b8215610c845760005b610be78483612ccf565b811015610c3a5782610bf98583612ce2565b81548110610c0957610c09612cf5565b9060005260206000200154838281548110610c2657610c26612cf5565b600091825260209091200155600101610bdd565b508281038255836001600160a01b03167f042da9640b09c46e114d277c0afbaeba3c4153e02af3a96e26c6400d456816a884604051610c7b91815260200190565b60405180910390a25b5050610b1f60018055565b600460209081526000928352604080842090915290825290208054610cb390612d0b565b80601f0160208091040260200160405190810160405280929190818152602001828054610cdf90612d0b565b8015610d2c5780601f10610d0157610100808354040283529160200191610d2c565b820191906000526020600020905b815481529060010190602001808311610d0f57829003601f168201915b505050505081565b60076020528160005260406000208181548110610d5057600080fd5b90600052602060002001600091509150505481565b610d6d6119f3565b600580546001600160a01b0319166001600160a01b0383169081179091556040519081527ff0be4f1e87349231d80c36b33f9e8639658eeaf474014dee15a3e6a4d4414197906020015b60405180910390a150565b610dca6119f3565b610b9c6000611cf8565b6001600160a01b0381166000908152600760209081526040808320805482518185028101850190935280835260609485949093929190830182828015610e3957602002820191906000526020600020905b815481526020019060010190808311610e25575b5050835193945083925050506001600160401b03811115610e5c57610e5c612ca3565b604051908082528060200260200182016040528015610e85578160200160208202803683370190505b509350806001600160401b03811115610ea057610ea0612ca3565b604051908082528060200260200182016040528015610ec9578160200160208202803683370190505b5092506000805b82811015610f7f576000848281518110610eec57610eec612cf5565b6020908102919091018101516000818152600690925260409091206002015490915060ff16610f765780878481518110610f2857610f28612cf5565b6020026020010181815250506006600082815260200190815260200160002060010154868481518110610f5d57610f5d612cf5565b602090810291909101015282610f7281612d3f565b9350505b50600101610ed0565b50808552808452505050915091565b6001600160a01b03811630145b949350505050565b610fab6119f3565b610b9c611d48565b610fbb6119f3565b610fc3611cce565b600081815260066020526040902080546001600160a01b031661101f5760405162461bcd60e51b81526020600482015260146024820152732737b732bc34b9ba32b73a103a3930b739b332b960611b6044820152606401610a94565b600281015460ff16156110675760405162461bcd60e51b815260206004820152601060248201526f105b1c9958591e481c99599d5b99195960821b6044820152606401610a94565b60028101805460ff191660019081179091558154908201546110c4916001600160a01b0316906110b47f000000000000000000000000000000000000000000000000000000000000000090565b6001600160a01b03169190611d8b565b805460018201546040519081526001600160a01b039091169083907f04f52f70a574c3facc8188d13efa4536b1ab3b9571e5ed36201886191c4686ce9060200160405180910390a35061111660018055565b50565b6001600160a01b03811660009081526007602090815260409182902080548351818402810184019094528084526060939283018282801561117957602002820191906000526020600020905b815481526020019060010190808311611165575b50505050509050919050565b61118d6119f3565b610b1f61119a8284612df9565b611def565b63ffffffff8416600090815260046020908152604080832061ffff871684529091528120805460609291906111d390612d0b565b80601f01602080910402602001604051908101604052809291908181526020018280546111ff90612d0b565b801561124c5780601f106112215761010080835404028352916020019161124c565b820191906000526020600020905b81548152906001019060200180831161122f57829003601f168201915b50505050509050805160000361129c5783838080601f016020809104026020016040519081016040528093929190818152602001838380828437600092019190915250929450610f9b9350505050565b60008390036112ac579050610f9b565b6002831061132a576112f384848080601f016020809104026020016040519081016040528093929190818152602001838380828437600092019190915250611ef692505050565b806113018460028188612f0e565b60405160200161131393929190612f38565b604051602081830303815290604052915050610f9b565b8383604051639a6d49cd60e01b8152600401610a94929190612f89565b60005b81811015611450573683838381811061136557611365612cf5565b90506020028101906113779190612f9d565b90506113aa6113896020830183612b17565b602083013563ffffffff919091166000908152600260205260409020541490565b6113b45750611448565b3063d045a0dc60c08301358360a08101356113d3610100830183612fbe565b6113e4610100890160e08a01612950565b6113f26101208a018a612fbe565b6040518963ffffffff1660e01b81526004016114149796959493929190613019565b6000604051808303818588803b15801561142d57600080fd5b505af1158015611441573d6000803e3d6000fd5b5050505050505b60010161134a565b50336001600160a01b0316638e9e70996040518163ffffffff1660e01b8152600401600060405180830381865afa15801561148f573d6000803e3d6000fd5b505050506040513d6000823e601f3d908101601f191682016040526114b7919081019061309f565b604051638351eea760e01b8152600401610a94919061293d565b6114d9612597565b60408051808201909152600080825260208201526114f5611f22565b6114fd611cce565b60208501356115425760405162461bcd60e51b8152602060048201526011602482015270125b9d985b1a59081c9958da5c1a595b9d607a1b6044820152606401610a94565b60008560400135116115875760405162461bcd60e51b815260206004820152600e60248201526d125b9d985b1a5908185b5bdd5b9d60921b6044820152606401610a94565b611592858585611f4d565b815160408051606081018252338082528a8301356020808401918252600084860181815287825260068352868220955186546001600160a01b0319166001600160a01b03909116178655925160018087019190915592516002909501805460ff191695151595909517909455828452600781528484208054928301815584528084209091018590559082526008905290812080549496509294509092919061163983612d3f565b9190505550336001600160a01b0316817f23e130dd4f559327be4dda1610ddd007df851f723ac83e1fbbaccd8d4d7ec5a0886040013560405161167e91815260200190565b60405180910390a35061169060018055565b935093915050565b6116a06119f3565b60405163ca5eb5e160e01b81526001600160a01b0382811660048301527f0000000000000000000000000000000000000000000000000000000000000000169063ca5eb5e190602401600060405180830381600087803b15801561170357600080fd5b505af1158015611717573d6000803e3d6000fd5b5050505050565b33301461173e5760405163029a949d60e31b815260040160405180910390fd5b610b0487878787878787610af5565b6117556119f3565b600380546001600160a01b0319166001600160a01b0383169081179091556040519081527fd48d879cef83a1c0bdda516f27b13ddb1b3f8bbac1c9e1511bb2a659c242776090602001610db7565b6117ab6119f3565b6001600160a01b0381166117d557604051631e4fbdf760e01b815260006004820152602401610a94565b61111681611cf8565b60006020820180359060029083906117f69086612b17565b63ffffffff1681526020810191909152604001600020541492915050565b60008061182085612048565b915081905083811015611690576040516371c4efed60e01b81526004810182905260248101859052604401610a94565b63ffffffff811660009081526002602052604081205480610b865760405163f6ff4fb760e01b815263ffffffff84166004820152602401610a94565b600061189e61189b878761207f565b90565b905060006118ca826118b86118b38a8a61209e565b6120c1565b6118c560208d018d612b17565b6120f6565b905060288611156119915760006119076118ea60608c0160408d0161310c565b6118f760208d018d612b17565b846119028c8c612134565b61217f565b604051633e5ac80960e11b81529091506001600160a01b037f00000000000000000000000000000000000000000000000000000000000000001690637cb590129061195d9086908d906000908790600401613129565b600060405180830381600087803b15801561197757600080fd5b505af115801561198b573d6000803e3d6000fd5b50505050505b6001600160a01b038216887fefed6d3500546b29533b128a29e3a94d70788727f0507505ac12eaf2e578fd9c6119ca60208d018d612b17565b6040805163ffffffff9092168252602082018690520160405180910390a3505050505050505050565b6000546001600160a01b03163314610b9c5760405163118cdaa760e01b8152336004820152602401610a94565b63ffffffff8216600081815260026020908152604091829020849055815192835282018390527f238399d427b947898edb290f5ff0f9109849b1c3ba196a42e35f00c50a54b98b910160405180910390a15050565b6060806000611ad28560200135611a8b866121b1565b611a9860a0890189612fbe565b8080601f0160208091040260200160405190810160405280939291908181526020018383808284376000920191909152506121dd92505050565b9093509050600081611ae5576001611ae8565b60025b9050611b08611afa6020880188612b17565b826107bd60808a018a612fbe565b6005549093506001600160a01b03168015611b8e5760405163043a78eb60e01b81526001600160a01b0382169063043a78eb90611b4b9088908890600401613164565b602060405180830381865afa158015611b68573d6000803e3d6000fd5b505050506040513d601f19601f82011682018060405250810190611b8c9190613189565b505b5050509250929050565b60408051808201909152600080825260208201527f00000000000000000000000000000000000000000000000000000000000000006001600160a01b031663ddc28c586040518060a001604052808863ffffffff168152602001611bfb89611850565b8152602001878152602001868152602001851515815250306040518363ffffffff1660e01b8152600401611c309291906131a6565b6040805180830381865afa158015611c4c573d6000803e3d6000fd5b505050506040513d601f19601f82011682018060405250810190611c70919061324f565b95945050505050565b611c81612257565b6000805460ff60a01b191690557f5db9ee0a495bf2e6ff9c91a7834c1ba4fdd244a5e8aa4e537bd38aeae4b073aa335b6040516001600160a01b03909116815260200160405180910390a1565b600260015403611cf157604051633ee5aeb560e01b815260040160405180910390fd5b6002600155565b600080546001600160a01b038381166001600160a01b0319831681178455604051919092169283917f8be0079c531659141344cd1fd0a4f28419497f9722a3daafe3b4186f6b6457e09190a35050565b611d50611f22565b6000805460ff60a01b1916600160a01b1790557f62e78cea01bee320cd4e420270b5ea74000d11b0c9f74754ebdbfc544b05a258611cb13390565b6040516001600160a01b03838116602483015260448201839052611dea91859182169063a9059cbb906064015b604051602081830303815290604052915060e01b6020820180516001600160e01b038381831617835250505050612281565b505050565b60005b8151811015611ec657611e21828281518110611e1057611e10612cf5565b602002602001015160400151611ef6565b818181518110611e3357611e33612cf5565b60200260200101516040015160046000848481518110611e5557611e55612cf5565b60200260200101516000015163ffffffff1663ffffffff1681526020019081526020016000206000848481518110611e8f57611e8f612cf5565b60200260200101516020015161ffff1661ffff1681526020019081526020016000209081611ebd91906132bb565b50600101611df2565b507fbe4864a8e820971c0247f5992e2da559595f7bf076a21cb5928d443d2a13b67481604051610db7919061337a565b600281015161ffff8116600314610b1f5781604051639a6d49cd60e01b8152600401610a94919061293d565b600054600160a01b900460ff1615610b9c5760405163d93c066560e01b815260040160405180910390fd5b611f55612597565b6040805180820190915260008082526020820152600080611f8c33604089013560608a0135611f8760208c018c612b17565b6122f8565b91509150600080611f9d8984611a75565b9092509050611fc9611fb260208b018b612b17565b8383611fc3368d90038d018d613405565b8b612349565b60408051808201909152858152602080820186905282519298509096503391907f85496b760a4b7f8d66384b9df21b381f5d1b1e79f229a47aaf4c232edc2fe59a90612017908d018d612b17565b6040805163ffffffff909216825260208201899052810187905260600160405180910390a350505050935093915050565b60007f00000000000000000000000000000000000000000000000000000000000000006120758184613437565b610b869190613459565b600061208e6020828486612f0e565b61209791613470565b9392505050565b60006120ae602860208486612f0e565b6120b79161348e565b60c01c9392505050565b6000610b867f00000000000000000000000000000000000000000000000000000000000000006001600160401b038416613459565b600061212c6001600160a01b037f0000000000000000000000000000000000000000000000000000000000000000168585611d8b565b509092915050565b60606121438260288186612f0e565b8080601f016020809104026020016040519081016040528093929190818152602001838380828437600092019190915250929695505050505050565b60608484848460405160200161219894939291906134be565b6040516020818303038152906040529050949350505050565b6000610b867f000000000000000000000000000000000000000000000000000000000000000083613437565b805160609015158061222657848460405160200161221292919091825260c01b6001600160c01b031916602082015260280190565b60405160208183030381529060405261224d565b8484338560405160200161223d949392919061350d565b6040516020818303038152906040525b9150935093915050565b600054600160a01b900460ff16610b9c57604051638dfc202b60e01b815260040160405180910390fd5b600080602060008451602086016000885af1806122a4576040513d6000823e3d81fd5b50506000513d915081156122bc5780600114156122c9565b6001600160a01b0384163b155b156122f257604051635274afe760e01b81526001600160a01b0385166004820152602401610a94565b50505050565b600080612306858585611814565b90925090506123406001600160a01b037f000000000000000000000000000000000000000000000000000000000000000016873085612454565b94509492505050565b612351612597565b6000612360846000015161248d565b60208501519091501561237a5761237a84602001516124b5565b7f00000000000000000000000000000000000000000000000000000000000000006001600160a01b0316632637a450826040518060a001604052808b63ffffffff1681526020016123ca8c611850565b81526020018a815260200189815260200160008960200151111515815250866040518463ffffffff1660e01b81526004016124069291906131a6565b60806040518083038185885af1158015612424573d6000803e3d6000fd5b50505050506040513d601f19601f820116820180604052508101906124499190613550565b979650505050505050565b6040516001600160a01b0384811660248301528381166044830152606482018390526122f29186918216906323b872dd90608401611db8565b60008134146124b1576040516304fb820960e51b8152346004820152602401610a94565b5090565b60007f00000000000000000000000000000000000000000000000000000000000000006001600160a01b031663e4fe1d946040518163ffffffff1660e01b8152600401602060405180830381865afa158015612515573d6000803e3d6000fd5b505050506040513d601f19601f820116820180604052508101906125399190612c6d565b90506001600160a01b038116612562576040516329b99a9560e11b815260040160405180910390fd5b610b1f6001600160a01b038216337f000000000000000000000000000000000000000000000000000000000000000085612454565b60405180606001604052806000801916815260200160006001600160401b031681526020016125d9604051806040016040528060008152602001600081525090565b905290565b600060e082840312156125f057600080fd5b50919050565b60006020828403121561260857600080fd5b81356001600160401b0381111561261e57600080fd5b610f9b848285016125de565b60005b8381101561264557818101518382015260200161262d565b50506000910152565b6000815180845261266681602086016020860161262a565b601f01601f19169290920160200192915050565b8351815260208085015190820152600060a08201604060a0604085015281865180845260c08601915060c08160051b8701019350602080890160005b838110156126f55788870360bf190185528151805188528301518388018790526126e28789018261264e565b97505093820193908201906001016126b6565b50508751606088015250505060208501516080850152509050610f9b565b6000606082840312156125f057600080fd5b60008083601f84011261273757600080fd5b5081356001600160401b0381111561274e57600080fd5b60208301915083602082850101111561276657600080fd5b9250929050565b6001600160a01b038116811461111657600080fd5b600080600080600080600060e0888a03121561279d57600080fd5b6127a78989612713565b96506060880135955060808801356001600160401b03808211156127ca57600080fd5b6127d68b838c01612725565b909750955060a08a013591506127eb8261276d565b90935060c0890135908082111561280157600080fd5b5061280e8a828b01612725565b989b979a50959850939692959293505050565b803563ffffffff8116811461283557600080fd5b919050565b6000806040838503121561284d57600080fd5b61285683612821565b946020939093013593505050565b801515811461111657600080fd5b6000806040838503121561288557600080fd5b82356001600160401b0381111561289b57600080fd5b6128a7858286016125de565b92505060208301356128b881612864565b809150509250929050565b815181526020808301519082015260408101610b86565b600080604083850312156128ed57600080fd5b82356128568161276d565b803561ffff8116811461283557600080fd5b6000806040838503121561291d57600080fd5b61292683612821565b9150612934602084016128f8565b90509250929050565b602081526000612097602083018461264e565b60006020828403121561296257600080fd5b81356120978161276d565b60008151808452602080850194506020840160005b8381101561299e57815187529582019590820190600101612982565b509495945050505050565b6040815260006129bc604083018561296d565b82810360208481019190915284518083528582019282019060005b818110156129f3578451835293830193918301916001016129d7565b5090979650505050505050565b60008060008060a08587031215612a1657600080fd5b612a208686612713565b935060608501356001600160401b03811115612a3b57600080fd5b612a4787828801612725565b9094509250506080850135612a5b8161276d565b939692955090935050565b600060208284031215612a7857600080fd5b5035919050565b602081526000612097602083018461296d565b60008083601f840112612aa457600080fd5b5081356001600160401b03811115612abb57600080fd5b6020830191508360208260051b850101111561276657600080fd5b60008060208385031215612ae957600080fd5b82356001600160401b03811115612aff57600080fd5b612b0b85828601612a92565b90969095509350505050565b600060208284031215612b2957600080fd5b61209782612821565b60008060008060608587031215612b4857600080fd5b612b5185612821565b9350612b5f602086016128f8565b925060408501356001600160401b03811115612b7a57600080fd5b612b8687828801612725565b95989497509550505050565b60008060008385036080811215612ba857600080fd5b84356001600160401b03811115612bbe57600080fd5b612bca878288016125de565b9450506040601f1982011215612bdf57600080fd5b506020840191506060840135612bf48161276d565b809150509250925092565b600060c082019050835182526001600160401b0360208501511660208301526040840151612c3a604084018280518252602090810151910152565b5082516080830152602083015160a0830152612097565b600060608284031215612c6357600080fd5b6120978383612713565b600060208284031215612c7f57600080fd5b81516120978161276d565b600060208284031215612c9c57600080fd5b5051919050565b634e487b7160e01b600052604160045260246000fd5b634e487b7160e01b600052601160045260246000fd5b81810381811115610b8657610b86612cb9565b80820180821115610b8657610b86612cb9565b634e487b7160e01b600052603260045260246000fd5b600181811c90821680612d1f57607f821691505b6020821081036125f057634e487b7160e01b600052602260045260246000fd5b600060018201612d5157612d51612cb9565b5060010190565b604051606081016001600160401b0381118282101715612d7a57612d7a612ca3565b60405290565b604080519081016001600160401b0381118282101715612d7a57612d7a612ca3565b604051601f8201601f191681016001600160401b0381118282101715612dca57612dca612ca3565b604052919050565b60006001600160401b03821115612deb57612deb612ca3565b50601f01601f191660200190565b60006001600160401b0380841115612e1357612e13612ca3565b8360051b6020612e24818301612da2565b868152918501918181019036841115612e3c57600080fd5b865b84811015612f0257803586811115612e565760008081fd5b88016060368290031215612e6a5760008081fd5b612e72612d58565b612e7b82612821565b8152612e888683016128f8565b8682015260408083013589811115612ea05760008081fd5b929092019136601f840112612eb55760008081fd5b8235612ec8612ec382612dd2565b612da2565b8181523689838701011115612edd5760008081fd5b818986018a830137600091810189019190915290820152845250918301918301612e3e565b50979650505050505050565b60008085851115612f1e57600080fd5b83861115612f2b57600080fd5b5050820193919092039150565b60008451612f4a81846020890161262a565b8201838582376000930192835250909392505050565b81835281816020850137506000828201602090810191909152601f909101601f19169091010190565b602081526000610f9b602083018486612f60565b6000823561013e19833603018112612fb457600080fd5b9190910192915050565b6000808335601e19843603018112612fd557600080fd5b8301803591506001600160401b03821115612fef57600080fd5b60200191503681900382131561276657600080fd5b6001600160401b038116811461111657600080fd5b63ffffffff61302789612821565b168152602088013560208201526000604089013561304481613004565b6001600160401b03811660408401525087606083015260e0608083015261306f60e083018789612f60565b6001600160a01b03861660a084015282810360c0840152613091818587612f60565b9a9950505050505050505050565b6000602082840312156130b157600080fd5b81516001600160401b038111156130c757600080fd5b8201601f810184136130d857600080fd5b80516130e6612ec382612dd2565b8181528560208385010111156130fb57600080fd5b611c7082602083016020860161262a565b60006020828403121561311e57600080fd5b813561209781613004565b60018060a01b038516815283602082015261ffff8316604082015260806060820152600061315a608083018461264e565b9695505050505050565b604081526000613177604083018561264e565b8281036020840152611c70818561264e565b60006020828403121561319b57600080fd5b815161209781612864565b6040815263ffffffff8351166040820152602083015160608201526000604084015160a060808401526131dc60e084018261264e565b90506060850151603f198483030160a08501526131f9828261264e565b60809690960151151560c08501525050506001600160a01b039190911660209091015290565b60006040828403121561323157600080fd5b613239612d80565b9050815181526020820151602082015292915050565b60006040828403121561326157600080fd5b612097838361321f565b601f821115611dea576000816000526020600020601f850160051c810160208610156132945750805b601f850160051c820191505b818110156132b3578281556001016132a0565b505050505050565b81516001600160401b038111156132d4576132d4612ca3565b6132e8816132e28454612d0b565b8461326b565b602080601f83116001811461331d57600084156133055750858301515b600019600386901b1c1916600185901b1785556132b3565b600085815260208120601f198616915b8281101561334c5788860151825594840194600190910190840161332d565b508582101561336a5787850151600019600388901b60f8161c191681555b5050505050600190811b01905550565b600060208083018184528085518083526040925060408601915060408160051b87010184880160005b838110156133f757888303603f190185528151805163ffffffff1684528781015161ffff168885015286015160608785018190526133e38186018361264e565b9689019694505050908601906001016133a3565b509098975050505050505050565b60006040828403121561341757600080fd5b61341f612d80565b82358152602083013560208201528091505092915050565b60008261345457634e487b7160e01b600052601260045260246000fd5b500490565b8082028115828204841417610b8657610b86612cb9565b80356020831015610b8657600019602084900360031b1b1692915050565b6001600160c01b031981358181169160088510156134b65780818660080360031b1b83161692505b505092915050565b6001600160401b0360c01b8560c01b16815263ffffffff60e01b8460e01b16600882015282600c820152600082516134fd81602c85016020870161262a565b91909101602c0195945050505050565b8481526001600160401b0360c01b8460c01b1660208201528260288201526000825161354081604885016020870161262a565b9190910160480195945050505050565b60006080828403121561356257600080fd5b61356a612d58565b82518152602083015161357c81613004565b602082015261358e846040850161321f565b6040820152939250505056fea264697066735822122030c4864604c6560862ac31fe7c871214840e3c8351ab73c820486a992d4543cb64736f6c63430008180033",
  "linkReferences": {},
  "deployedLinkReferences": {}
}