{
  "_format": "hh-sol-artifact-1",
  "contractName": "BaseOFTAdapter",
  "sourceName": "contracts/BaseOFTAdapter.sol",
  "abi": [
    {
      "inputs": [
        {
          "internalType": "address",
          "name": "_token",
          "type": "address"
        },
        {
          "internalType": "address",
          "name": "_lzEndpoint",
          "type": "address"
        },
        {
          "internalType": "address",
          "name": "_owner",
          "type": "address"
        }
      ],
      "stateMutability": "nonpayable",
      "type": "constructor"
    },
    {
      "inputs": [],
      "name": "EnforcedPause",
      "type": "error"
    },
    {
      "inputs": [],
      "name": "ExpectedPause",
      "type": "error"
    },
    {
      "inputs": [],
      "name": "InvalidDelegate",
      "type": "error"
    },
    {
      "inputs": [],
      "name": "InvalidEndpointCall",
      "type": "error"
    },
    {
      "inputs": [],
      "name": "InvalidLocalDecimals",
      "type": "error"
    },
    {
      "inputs": [
        {
          "internalType": "bytes",
          "name": "options",
          "type": "bytes"
        }
      ],
      "name": "InvalidOptions",
      "type": "error"
    },
    {
      "inputs": [],
      "name": "LzTokenUnavailable",
      "type": "error"
    },
    {
      "inputs": [
        {
          "internalType": "uint32",
          "name": "eid",
          "type": "uint32"
        }
      ],
      "name": "NoPeer",
      "type": "error"
    },
    {
      "inputs": [
        {
          "internalType": "uint256",
          "name": "msgValue",
          "type": "uint256"
        }
      ],
      "name": "NotEnoughNative",
      "type": "error"
    },
    {
      "inputs": [
        {
          "internalType": "address",
          "name": "addr",
          "type": "address"
        }
      ],
      "name": "OnlyEndpoint",
      "type": "error"
    },
    {
      "inputs": [
        {
          "internalType": "uint32",
          "name": "eid",
          "type": "uint32"
        },
        {
          "internalType": "bytes32",
          "name": "sender",
          "type": "bytes32"
        }
      ],
      "name": "OnlyPeer",
      "type": "error"
    },
    {
      "inputs": [],
      "name": "OnlySelf",
      "type": "error"
    },
    {
      "inputs": [
        {
          "internalType": "address",
          "name": "owner",
          "type": "address"
        }
      ],
      "name": "OwnableInvalidOwner",
      "type": "error"
    },
    {
      "inputs": [
        {
          "internalType": "address",
          "name": "account",
          "type": "address"
        }
      ],
      "name": "OwnableUnauthorizedAccount",
      "type": "error"
    },
    {
      "inputs": [
        {
          "internalType": "address",
          "name": "token",
          "type": "address"
        }
      ],
      "name": "SafeERC20FailedOperation",
      "type": "error"
    },
    {
      "inputs": [
        {
          "internalType": "bytes",
          "name": "result",
          "type": "bytes"
        }
      ],
      "name": "SimulationResult",
      "type": "error"
    },
    {
      "inputs": [
        {
          "internalType": "uint256",
          "name": "amountLD",
          "type": "uint256"
        },
        {
          "internalType": "uint256",
          "name": "minAmountLD",
          "type": "uint256"
        }
      ],
      "name": "SlippageExceeded",
      "type": "error"
    },
    {
      "anonymous": false,
      "inputs": [
        {
          "components": [
            {
              "internalType": "uint32",
              "name": "eid",
              "type": "uint32"
            },
            {
              "internalType": "uint16",
              "name": "msgType",
              "type": "uint16"
            },
            {
              "internalType": "bytes",
              "name": "options",
              "type": "bytes"
            }
          ],
          "indexed": false,
          "internalType": "struct EnforcedOptionParam[]",
          "name": "_enforcedOptions",
          "type": "tuple[]"
        }
      ],
      "name": "EnforcedOptionSet",
      "type": "event"
    },
    {
      "anonymous": false,
      "inputs": [
        {
          "indexed": false,
          "internalType": "address",
          "name": "inspector",
          "type": "address"
        }
      ],
      "name": "MsgInspectorSet",
      "type": "event"
    },
    {
      "anonymous": false,
      "inputs": [
        {
          "indexed": true,
          "internalType": "bytes32",
          "name": "guid",
          "type": "bytes32"
        },
        {
          "indexed": false,
          "internalType": "uint32",
          "name": "srcEid",
          "type": "uint32"
        },
        {
          "indexed": true,
          "internalType": "address",
          "name": "toAddress",
          "type": "address"
        },
        {
          "indexed": false,
          "internalType": "uint256",
          "name": "amountReceivedLD",
          "type": "uint256"
        }
      ],
      "name": "OFTReceived",
      "type": "event"
    },
    {
      "anonymous": false,
      "inputs": [
        {
          "indexed": true,
          "internalType": "bytes32",
          "name": "guid",
          "type": "bytes32"
        },
        {
          "indexed": false,
          "internalType": "uint32",
          "name": "dstEid",
          "type": "uint32"
        },
        {
          "indexed": true,
          "internalType": "address",
          "name": "fromAddress",
          "type": "address"
        },
        {
          "indexed": false,
          "internalType": "uint256",
          "name": "amountSentLD",
          "type": "uint256"
        },
        {
          "indexed": false,
          "internalType": "uint256",
          "name": "amountReceivedLD",
          "type": "uint256"
        }
      ],
      "name": "OFTSent",
      "type": "event"
    },
    {
      "anonymous": false,
      "inputs": [
        {
          "indexed": true,
          "internalType": "address",
          "name": "previousOwner",
          "type": "address"
        },
        {
          "indexed": true,
          "internalType": "address",
          "name": "newOwner",
          "type": "address"
        }
      ],
      "name": "OwnershipTransferred",
      "type": "event"
    },
    {
      "anonymous": false,
      "inputs": [
        {
          "indexed": false,
          "internalType": "address",
          "name": "account",
          "type": "address"
        }
      ],
      "name": "Paused",
      "type": "event"
    },
    {
      "anonymous": false,
      "inputs": [
        {
          "indexed": false,
          "internalType": "uint32",
          "name": "eid",
          "type": "uint32"
        },
        {
          "indexed": false,
          "internalType": "bytes32",
          "name": "peer",
          "type": "bytes32"
        }
      ],
      "name": "PeerSet",
      "type": "event"
    },
    {
      "anonymous": false,
      "inputs": [
        {
          "indexed": false,
          "internalType": "address",
          "name": "preCrimeAddress",
          "type": "address"
        }
      ],
      "name": "PreCrimeSet",
      "type": "event"
    },
    {
      "anonymous": false,
      "inputs": [
        {
          "indexed": true,
          "internalType": "bytes32",
          "name": "lzMsgId",
          "type": "bytes32"
        },
        {
          "indexed": true,
          "internalType": "address",
          "name": "sender",
          "type": "address"
        },
        {
          "indexed": false,
          "internalType": "uint256",
          "name": "amount",
          "type": "uint256"
        }
      ],
      "name": "TransferLocked",
      "type": "event"
    },
    {
      "anonymous": false,
      "inputs": [
        {
          "indexed": true,
          "internalType": "bytes32",
          "name": "lzMsgId",
          "type": "bytes32"
        },
        {
          "indexed": true,
          "internalType": "address",
          "name": "sender",
          "type": "address"
        },
        {
          "indexed": false,
          "internalType": "uint256",
          "name": "amount",
          "type": "uint256"
        }
      ],
      "name": "TransferRefunded",
      "type": "event"
    },
    {
      "anonymous": false,
      "inputs": [
        {
          "indexed": false,
          "internalType": "address",
          "name": "account",
          "type": "address"
        }
      ],
      "name": "Unpaused",
      "type": "event"
    },
    {
      "inputs": [],
      "name": "SEND",
      "outputs": [
        {
          "internalType": "uint16",
          "name": "",
          "type": "uint16"
        }
      ],
      "stateMutability": "view",
      "type": "function"
    },
    {
      "inputs": [],
      "name": "SEND_AND_CALL",
      "outputs": [
        {
          "internalType": "uint16",
          "name": "",
          "type": "uint16"
        }
      ],
      "stateMutability": "view",
      "type": "function"
    },
    {
      "inputs": [
        {
          "components": [
            {
              "internalType": "uint32",
              "name": "srcEid",
              "type": "uint32"
            },
            {
              "internalType": "bytes32",
              "name": "sender",
              "type": "bytes32"
            },
            {
              "internalType": "uint64",
              "name": "nonce",
              "type": "uint64"
            }
          ],
          "internalType": "struct Origin",
          "name": "origin",
          "type": "tuple"
        }
      ],
      "name": "allowInitializePath",
      "outputs": [
        {
          "internalType": "bool",
          "name": "",
          "type": "bool"
        }
      ],
      "stateMutability": "view",
      "type": "function"
    },
    {
      "inputs": [],
      "name": "approvalRequired",
      "outputs": [
        {
          "internalType": "bool",
          "name": "",
          "type": "bool"
        }
      ],
      "stateMutability": "pure",
      "type": "function"
    },
    {
      "inputs": [
        {
          "internalType": "uint32",
          "name": "_eid",
          "type": "uint32"
        },
        {
          "internalType": "uint16",
          "name": "_msgType",
          "type": "uint16"
        },
        {
          "internalType": "bytes",
          "name": "_extraOptions",
          "type": "bytes"
        }
      ],
      "name": "combineOptions",
      "outputs": [
        {
          "internalType": "bytes",
          "name": "",
          "type": "bytes"
        }
      ],
      "stateMutability": "view",
      "type": "function"
    },
    {
      "inputs": [],
      "name": "decimalConversionRate",
      "outputs": [
        {
          "internalType": "uint256",
          "name": "",
          "type": "uint256"
        }
      ],
      "stateMutability": "view",
      "type": "function"
    },
    {
      "inputs": [],
      "name": "endpoint",
      "outputs": [
        {
          "internalType": "contract ILayerZeroEndpointV2",
          "name": "",
          "type": "address"
        }
      ],
      "stateMutability": "view",
      "type": "function"
    },
    {
      "inputs": [
        {
          "internalType": "uint32",
          "name": "eid",
          "type": "uint32"
        },
        {
          "internalType": "uint16",
          "name": "msgType",
          "type": "uint16"
        }
      ],
      "name": "enforcedOptions",
      "outputs": [
        {
          "internalType": "bytes",
          "name": "enforcedOption",
          "type": "bytes"
        }
      ],
      "stateMutability": "view",
      "type": "function"
    },
    {
      "inputs": [
        {
          "internalType": "address",
          "name": "user",
          "type": "address"
        }
      ],
      "name": "getActiveTransfersByUser",
      "outputs": [
        {
          "internalType": "bytes32[]",
          "name": "activeIds",
          "type": "bytes32[]"
        },
        {
          "internalType": "uint256[]",
          "name": "amounts",
          "type": "uint256[]"
        }
      ],
      "stateMutability": "view",
      "type": "function"
    },
    {
      "inputs": [
        {
          "internalType": "address",
          "name": "user",
          "type": "address"
        }
      ],
      "name": "getTransfersByUser",
      "outputs": [
        {
          "internalType": "bytes32[]",
          "name": "",
          "type": "bytes32[]"
        }
      ],
      "stateMutability": "view",
      "type": "function"
    },
    {
      "inputs": [
        {
          "components": [
            {
              "internalType": "uint32",
              "name": "srcEid",
              "type": "uint32"
            },
            {
              "internalType": "bytes32",
              "name": "sender",
              "type": "bytes32"
            },
            {
              "internalType": "uint64",
              "name": "nonce",
              "type": "uint64"
            }
          ],
          "internalType": "struct Origin",
          "name": "",
          "type": "tuple"
        },
        {
          "internalType": "bytes",
          "name": "",
          "type": "bytes"
        },
        {
          "internalType": "address",
          "name": "_sender",
          "type": "address"
        }
      ],
      "name": "isComposeMsgSender",
      "outputs": [
        {
          "internalType": "bool",
          "name": "",
          "type": "bool"
        }
      ],
      "stateMutability": "view",
      "type": "function"
    },
    {
      "inputs": [
        {
          "internalType": "uint32",
          "name": "_eid",
          "type": "uint32"
        },
        {
          "internalType": "bytes32",
          "name": "_peer",
          "type": "bytes32"
        }
      ],
      "name": "isPeer",
      "outputs": [
        {
          "internalType": "bool",
          "name": "",
          "type": "bool"
        }
      ],
      "stateMutability": "view",
      "type": "function"
    },
    {
      "inputs": [
        {
          "internalType": "bytes32",
          "name": "",
          "type": "bytes32"
        }
      ],
      "name": "lockedTransfers",
      "outputs": [
        {
          "internalType": "address",
          "name": "sender",
          "type": "address"
        },
        {
          "internalType": "uint256",
          "name": "amount",
          "type": "uint256"
        },
        {
          "internalType": "bool",
          "name": "refunded",
          "type": "bool"
        }
      ],
      "stateMutability": "view",
      "type": "function"
    },
    {
      "inputs": [
        {
          "components": [
            {
              "internalType": "uint32",
              "name": "srcEid",
              "type": "uint32"
            },
            {
              "internalType": "bytes32",
              "name": "sender",
              "type": "bytes32"
            },
            {
              "internalType": "uint64",
              "name": "nonce",
              "type": "uint64"
            }
          ],
          "internalType": "struct Origin",
          "name": "_origin",
          "type": "tuple"
        },
        {
          "internalType": "bytes32",
          "name": "_guid",
          "type": "bytes32"
        },
        {
          "internalType": "bytes",
          "name": "_message",
          "type": "bytes"
        },
        {
          "internalType": "address",
          "name": "_executor",
          "type": "address"
        },
        {
          "internalType": "bytes",
          "name": "_extraData",
          "type": "bytes"
        }
      ],
      "name": "lzReceive",
      "outputs": [],
      "stateMutability": "payable",
      "type": "function"
    },
    {
      "inputs": [
        {
          "components": [
            {
              "components": [
                {
                  "internalType": "uint32",
                  "name": "srcEid",
                  "type": "uint32"
                },
                {
                  "internalType": "bytes32",
                  "name": "sender",
                  "type": "bytes32"
                },
                {
                  "internalType": "uint64",
                  "name": "nonce",
                  "type": "uint64"
                }
              ],
              "internalType": "struct Origin",
              "name": "origin",
              "type": "tuple"
            },
            {
              "internalType": "uint32",
              "name": "dstEid",
              "type": "uint32"
            },
            {
              "internalType": "address",
              "name": "receiver",
              "type": "address"
            },
            {
              "internalType": "bytes32",
              "name": "guid",
              "type": "bytes32"
            },
            {
              "internalType": "uint256",
              "name": "value",
              "type": "uint256"
            },
            {
              "internalType": "address",
              "name": "executor",
              "type": "address"
            },
            {
              "internalType": "bytes",
              "name": "message",
              "type": "bytes"
            },
            {
              "internalType": "bytes",
              "name": "extraData",
              "type": "bytes"
            }
          ],
          "internalType": "struct InboundPacket[]",
          "name": "_packets",
          "type": "tuple[]"
        }
      ],
      "name": "lzReceiveAndRevert",
      "outputs": [],
      "stateMutability": "payable",
      "type": "function"
    },
    {
      "inputs": [
        {
          "components": [
            {
              "internalType": "uint32",
              "name": "srcEid",
              "type": "uint32"
            },
            {
              "internalType": "bytes32",
              "name": "sender",
              "type": "bytes32"
            },
            {
              "internalType": "uint64",
              "name": "nonce",
              "type": "uint64"
            }
          ],
          "internalType": "struct Origin",
          "name": "_origin",
          "type": "tuple"
        },
        {
          "internalType": "bytes32",
          "name": "_guid",
          "type": "bytes32"
        },
        {
          "internalType": "bytes",
          "name": "_message",
          "type": "bytes"
        },
        {
          "internalType": "address",
          "name": "_executor",
          "type": "address"
        },
        {
          "internalType": "bytes",
          "name": "_extraData",
          "type": "bytes"
        }
      ],
      "name": "lzReceiveSimulate",
      "outputs": [],
      "stateMutability": "payable",
      "type": "function"
    },
    {
      "inputs": [],
      "name": "msgInspector",
      "outputs": [
        {
          "internalType": "address",
          "name": "",
          "type": "address"
        }
      ],
      "stateMutability": "view",
      "type": "function"
    },
    {
      "inputs": [
        {
          "internalType": "uint32",
          "name": "",
          "type": "uint32"
        },
        {
          "internalType": "bytes32",
          "name": "",
          "type": "bytes32"
        }
      ],
      "name": "nextNonce",
      "outputs": [
        {
          "internalType": "uint64",
          "name": "nonce",
          "type": "uint64"
        }
      ],
      "stateMutability": "view",
      "type": "function"
    },
    {
      "inputs": [],
      "name": "oApp",
      "outputs": [
        {
          "internalType": "address",
          "name": "",
          "type": "address"
        }
      ],
      "stateMutability": "view",
      "type": "function"
    },
    {
      "inputs": [],
      "name": "oAppVersion",
      "outputs": [
        {
          "internalType": "uint64",
          "name": "senderVersion",
          "type": "uint64"
        },
        {
          "internalType": "uint64",
          "name": "receiverVersion",
          "type": "uint64"
        }
      ],
      "stateMutability": "pure",
      "type": "function"
    },
    {
      "inputs": [],
      "name": "oftVersion",
      "outputs": [
        {
          "internalType": "bytes4",
          "name": "interfaceId",
          "type": "bytes4"
        },
        {
          "internalType": "uint64",
          "name": "version",
          "type": "uint64"
        }
      ],
      "stateMutability": "pure",
      "type": "function"
    },
    {
      "inputs": [],
      "name": "owner",
      "outputs": [
        {
          "internalType": "address",
          "name": "",
          "type": "address"
        }
      ],
      "stateMutability": "view",
      "type": "function"
    },
    {
      "inputs": [],
      "name": "pause",
      "outputs": [],
      "stateMutability": "nonpayable",
      "type": "function"
    },
    {
      "inputs": [],
      "name": "paused",
      "outputs": [
        {
          "internalType": "bool",
          "name": "",
          "type": "bool"
        }
      ],
      "stateMutability": "view",
      "type": "function"
    },
    {
      "inputs": [
        {
          "internalType": "uint32",
          "name": "eid",
          "type": "uint32"
        }
      ],
      "name": "peers",
      "outputs": [
        {
          "internalType": "bytes32",
          "name": "peer",
          "type": "bytes32"
        }
      ],
      "stateMutability": "view",
      "type": "function"
    },
    {
      "inputs": [],
      "name": "preCrime",
      "outputs": [
        {
          "internalType": "address",
          "name": "",
          "type": "address"
        }
      ],
      "stateMutability": "view",
      "type": "function"
    },
    {
      "inputs": [
        {
          "components": [
            {
              "internalType": "uint32",
              "name": "dstEid",
              "type": "uint32"
            },
            {
              "internalType": "bytes32",
              "name": "to",
              "type": "bytes32"
            },
            {
              "internalType": "uint256",
              "name": "amountLD",
              "type": "uint256"
            },
            {
              "internalType": "uint256",
              "name": "minAmountLD",
              "type": "uint256"
            },
            {
              "internalType": "bytes",
              "name": "extraOptions",
              "type": "bytes"
            },
            {
              "internalType": "bytes",
              "name": "composeMsg",
              "type": "bytes"
            },
            {
              "internalType": "bytes",
              "name": "oftCmd",
              "type": "bytes"
            }
          ],
          "internalType": "struct SendParam",
          "name": "_sendParam",
          "type": "tuple"
        }
      ],
      "name": "quoteOFT",
      "outputs": [
        {
          "components": [
            {
              "internalType": "uint256",
              "name": "minAmountLD",
              "type": "uint256"
            },
            {
              "internalType": "uint256",
              "name": "maxAmountLD",
              "type": "uint256"
            }
          ],
          "internalType": "struct OFTLimit",
          "name": "oftLimit",
          "type": "tuple"
        },
        {
          "components": [
            {
              "internalType": "int256",
              "name": "feeAmountLD",
              "type": "int256"
            },
            {
              "internalType": "string",
              "name": "description",
              "type": "string"
            }
          ],
          "internalType": "struct OFTFeeDetail[]",
          "name": "oftFeeDetails",
          "type": "tuple[]"
        },
        {
          "components": [
            {
              "internalType": "uint256",
              "name": "amountSentLD",
              "type": "uint256"
            },
            {
              "internalType": "uint256",
              "name": "amountReceivedLD",
              "type": "uint256"
            }
          ],
          "internalType": "struct OFTReceipt",
          "name": "oftReceipt",
          "type": "tuple"
        }
      ],
      "stateMutability": "view",
      "type": "function"
    },
    {
      "inputs": [
        {
          "components": [
            {
              "internalType": "uint32",
              "name": "dstEid",
              "type": "uint32"
            },
            {
              "internalType": "bytes32",
              "name": "to",
              "type": "bytes32"
            },
            {
              "internalType": "uint256",
              "name": "amountLD",
              "type": "uint256"
            },
            {
              "internalType": "uint256",
              "name": "minAmountLD",
              "type": "uint256"
            },
            {
              "internalType": "bytes",
              "name": "extraOptions",
              "type": "bytes"
            },
            {
              "internalType": "bytes",
              "name": "composeMsg",
              "type": "bytes"
            },
            {
              "internalType": "bytes",
              "name": "oftCmd",
              "type": "bytes"
            }
          ],
          "internalType": "struct SendParam",
          "name": "_sendParam",
          "type": "tuple"
        },
        {
          "internalType": "bool",
          "name": "_payInLzToken",
          "type": "bool"
        }
      ],
      "name": "quoteSend",
      "outputs": [
        {
          "components": [
            {
              "internalType": "uint256",
              "name": "nativeFee",
              "type": "uint256"
            },
            {
              "internalType": "uint256",
              "name": "lzTokenFee",
              "type": "uint256"
            }
          ],
          "internalType": "struct MessagingFee",
          "name": "msgFee",
          "type": "tuple"
        }
      ],
      "stateMutability": "view",
      "type": "function"
    },
    {
      "inputs": [
        {
          "internalType": "bytes32",
          "name": "lzMsgId",
          "type": "bytes32"
        }
      ],
      "name": "refundTransfer",
      "outputs": [],
      "stateMutability": "nonpayable",
      "type": "function"
    },
    {
      "inputs": [],
      "name": "renounceOwnership",
      "outputs": [],
      "stateMutability": "nonpayable",
      "type": "function"
    },
    {
      "inputs": [
        {
          "components": [
            {
              "internalType": "uint32",
              "name": "dstEid",
              "type": "uint32"
            },
            {
              "internalType": "bytes32",
              "name": "to",
              "type": "bytes32"
            },
            {
              "internalType": "uint256",
              "name": "amountLD",
              "type": "uint256"
            },
            {
              "internalType": "uint256",
              "name": "minAmountLD",
              "type": "uint256"
            },
            {
              "internalType": "bytes",
              "name": "extraOptions",
              "type": "bytes"
            },
            {
              "internalType": "bytes",
              "name": "composeMsg",
              "type": "bytes"
            },
            {
              "internalType": "bytes",
              "name": "oftCmd",
              "type": "bytes"
            }
          ],
          "internalType": "struct SendParam",
          "name": "_sendParam",
          "type": "tuple"
        },
        {
          "components": [
            {
              "internalType": "uint256",
              "name": "nativeFee",
              "type": "uint256"
            },
            {
              "internalType": "uint256",
              "name": "lzTokenFee",
              "type": "uint256"
            }
          ],
          "internalType": "struct MessagingFee",
          "name": "_fee",
          "type": "tuple"
        },
        {
          "internalType": "address",
          "name": "_refundAddress",
          "type": "address"
        }
      ],
      "name": "send",
      "outputs": [
        {
          "components": [
            {
              "internalType": "bytes32",
              "name": "guid",
              "type": "bytes32"
            },
            {
              "internalType": "uint64",
              "name": "nonce",
              "type": "uint64"
            },
            {
              "components": [
                {
                  "internalType": "uint256",
                  "name": "nativeFee",
                  "type": "uint256"
                },
                {
                  "internalType": "uint256",
                  "name": "lzTokenFee",
                  "type": "uint256"
                }
              ],
              "internalType": "struct MessagingFee",
              "name": "fee",
              "type": "tuple"
            }
          ],
          "internalType": "struct MessagingReceipt",
          "name": "msgReceipt",
          "type": "tuple"
        },
        {
          "components": [
            {
              "internalType": "uint256",
              "name": "amountSentLD",
              "type": "uint256"
            },
            {
              "internalType": "uint256",
              "name": "amountReceivedLD",
              "type": "uint256"
            }
          ],
          "internalType": "struct OFTReceipt",
          "name": "oftReceipt",
          "type": "tuple"
        }
      ],
      "stateMutability": "payable",
      "type": "function"
    },
    {
      "inputs": [
        {
          "internalType": "address",
          "name": "_delegate",
          "type": "address"
        }
      ],
      "name": "setDelegate",
      "outputs": [],
      "stateMutability": "nonpayable",
      "type": "function"
    },
    {
      "inputs": [
        {
          "components": [
            {
              "internalType": "uint32",
              "name": "eid",
              "type": "uint32"
            },
            {
              "internalType": "uint16",
              "name": "msgType",
              "type": "uint16"
            },
            {
              "internalType": "bytes",
              "name": "options",
              "type": "bytes"
            }
          ],
          "internalType": "struct EnforcedOptionParam[]",
          "name": "_enforcedOptions",
          "type": "tuple[]"
        }
      ],
      "name": "setEnforcedOptions",
      "outputs": [],
      "stateMutability": "nonpayable",
      "type": "function"
    },
    {
      "inputs": [
        {
          "internalType": "address",
          "name": "_msgInspector",
          "type": "address"
        }
      ],
      "name": "setMsgInspector",
      "outputs": [],
      "stateMutability": "nonpayable",
      "type": "function"
    },
    {
      "inputs": [
        {
          "internalType": "uint32",
          "name": "_eid",
          "type": "uint32"
        },
        {
          "internalType": "bytes32",
          "name": "_peer",
          "type": "bytes32"
        }
      ],
      "name": "setPeer",
      "outputs": [],
      "stateMutability": "nonpayable",
      "type": "function"
    },
    {
      "inputs": [
        {
          "internalType": "address",
          "name": "_preCrime",
          "type": "address"
        }
      ],
      "name": "setPreCrime",
      "outputs": [],
      "stateMutability": "nonpayable",
      "type": "function"
    },
    {
      "inputs": [],
      "name": "sharedDecimals",
      "outputs": [
        {
          "internalType": "uint8",
          "name": "",
          "type": "uint8"
        }
      ],
      "stateMutability": "view",
      "type": "function"
    },
    {
      "inputs": [],
      "name": "token",
      "outputs": [
        {
          "internalType": "address",
          "name": "",
          "type": "address"
        }
      ],
      "stateMutability": "view",
      "type": "function"
    },
    {
      "inputs": [
        {
          "internalType": "address",
          "name": "newOwner",
          "type": "address"
        }
      ],
      "name": "transferOwnership",
      "outputs": [],
      "stateMutability": "nonpayable",
      "type": "function"
    },
    {
      "inputs": [],
      "name": "unpause",
      "outputs": [],
      "stateMutability": "nonpayable",
      "type": "function"
    },
    {
      "inputs": [
        {
          "internalType": "address",
          "name": "",
          "type": "address"
        },
        {
          "internalType": "uint256",
          "name": "",
          "type": "uint256"
        }
      ],
      "name": "userTransfers",
      "outputs": [
        {
          "internalType": "bytes32",
          "name": "",
          "type": "bytes32"
        }
      ],
      "stateMutability": "view",
      "type": "function"
    }
  ],
  "bytecode": "0x60e06040523480156200001157600080fd5b50604051620037fc380380620037fc833981016040819052620000349162000261565b828282826001600160a01b031663313ce5676040518163ffffffff1660e01b8152600401602060405180830381865afa15801562000076573d6000803e3d6000fd5b505050506040513d601f19601f820116820180604052508101906200009c9190620002ab565b8282818181818a6001600160a01b038116620000d257604051631e4fbdf760e01b81526000600482015260240160405180910390fd5b620000dd81620001ef565b506000805460ff60a01b191690556001600160a01b0380831660805281166200011957604051632d618d8160e21b815260040160405180910390fd5b60805160405163ca5eb5e160e01b81526001600160a01b0383811660048301529091169063ca5eb5e190602401600060405180830381600087803b1580156200016157600080fd5b505af115801562000176573d6000803e3d6000fd5b50505050505050506200018e6200023f60201b60201c565b60ff168360ff161015620001b5576040516301e9714b60e41b815260040160405180910390fd5b620001c2600684620002ed565b620001cf90600a6200040c565b60a0525050506001600160a01b0390921660c052506200041d9350505050565b600080546001600160a01b038381166001600160a01b0319831681178455604051919092169283917f8be0079c531659141344cd1fd0a4f28419497f9722a3daafe3b4186f6b6457e09190a35050565b600690565b80516001600160a01b03811681146200025c57600080fd5b919050565b6000806000606084860312156200027757600080fd5b620002828462000244565b9250620002926020850162000244565b9150620002a26040850162000244565b90509250925092565b600060208284031215620002be57600080fd5b815160ff81168114620002d057600080fd5b9392505050565b634e487b7160e01b600052601160045260246000fd5b60ff8281168282160390811115620003095762000309620002d7565b92915050565b600181815b8085111562000350578160001904821115620003345762000334620002d7565b808516156200034257918102915b93841c939080029062000314565b509250929050565b600082620003695750600162000309565b81620003785750600062000309565b81600181146200039157600281146200039c57620003bc565b600191505062000309565b60ff841115620003b057620003b0620002d7565b50506001821b62000309565b5060208310610133831016604e8410600b8410161715620003e1575081810a62000309565b620003ed83836200030f565b8060001904821115620004045762000404620002d7565b029392505050565b6000620002d060ff84168362000358565b60805160a05160c051613354620004a86000396000818161081501528181610f3601528181611eaf01526120c20152600081816105df01528181611df601528181611e720152611f62015260008181610470015281816109ec01528181611490015281816116f5015281816119820152818161212601528181612263015261231c01526133546000f3fe6080604052600436106102465760003560e01c806382413eac11610139578063b98bd070116100b6578063ca5eb5e11161007a578063ca5eb5e114610793578063d045a0dc146107b3578063d4243885146107c6578063f2fde38b146107e6578063fc0c546a14610806578063ff7bd03d1461083957600080fd5b8063b98bd070146106f2578063bb0b6a5314610712578063bc70b3541461073f578063bd815db01461075f578063c7c7f5b31461077257600080fd5b80639f68b964116100fd5780639f68b96414610601578063a1de4c8214610615578063ad991c1514610685578063b173a606146106a5578063b731ea0a146106d257600080fd5b806382413eac1461055e5780638456cb591461057e578063857749b0146105935780638da5cb5b146105af578063963efcaa146105cd57600080fd5b806352ae2879116101c757806361d7194b1161018b57806361d7194b146104925780636fc1b31e146104c0578063715018a6146104e057806374aa1c0d146104f55780637d25a05e1461052357600080fd5b806352ae2879146103b85780635535d461146103cb5780635a0dfe4d146103f85780635c975abb1461043f5780635e280f111461045e57600080fd5b806317442b701161020e57806317442b701461031f5780631f5e1334146103415780633400288b146103565780633b6f743b146103765780633f4ba83a146103a357600080fd5b80630d35b4151461024b578063111ecdad1461028357806313137d65146102bb578063134d4f25146102d0578063156a0d0f146102f8575b600080fd5b34801561025757600080fd5b5061026b6102663660046123a0565b610859565b60405161027a93929190612424565b60405180910390f35b34801561028f57600080fd5b506004546102a3906001600160a01b031681565b6040516001600160a01b03909116815260200161027a565b6102ce6102c936600461252c565b6109ea565b005b3480156102dc57600080fd5b506102e5600281565b60405161ffff909116815260200161027a565b34801561030457600080fd5b506040805162b9270b60e21b8152600160208201520161027a565b34801561032b57600080fd5b506040805160018152600260208201520161027a565b34801561034d57600080fd5b506102e5600181565b34801561036257600080fd5b506102ce6103713660046125e4565b610aaa565b34801561038257600080fd5b5061039661039136600461261c565b610ac0565b60405161027a919061266d565b3480156103af57600080fd5b506102ce610b29565b3480156103c457600080fd5b50306102a3565b3480156103d757600080fd5b506103eb6103e6366004612696565b610b3b565b60405161027a91906126c9565b34801561040457600080fd5b5061042f6104133660046125e4565b63ffffffff919091166000908152600160205260409020541490565b604051901515815260200161027a565b34801561044b57600080fd5b50600054600160a01b900460ff1661042f565b34801561046a57600080fd5b506102a37f000000000000000000000000000000000000000000000000000000000000000081565b34801561049e57600080fd5b506104b26104ad3660046126dc565b610be0565b60405190815260200161027a565b3480156104cc57600080fd5b506102ce6104db3660046126fa565b610c11565b3480156104ec57600080fd5b506102ce610c6e565b34801561050157600080fd5b506105156105103660046126fa565b610c80565b60405161027a929190612753565b34801561052f57600080fd5b5061054661053e3660046125e4565b600092915050565b6040516001600160401b03909116815260200161027a565b34801561056a57600080fd5b5061042f6105793660046127aa565b610e3a565b34801561058a57600080fd5b506102ce610e4f565b34801561059f57600080fd5b506040516006815260200161027a565b3480156105bb57600080fd5b506000546001600160a01b03166102a3565b3480156105d957600080fd5b506104b27f000000000000000000000000000000000000000000000000000000000000000081565b34801561060d57600080fd5b50600161042f565b34801561062157600080fd5b5061065e610630366004612810565b6005602052600090815260409020805460018201546002909201546001600160a01b03909116919060ff1683565b604080516001600160a01b039094168452602084019290925215159082015260600161027a565b34801561069157600080fd5b506102ce6106a0366004612810565b610e5f565b3480156106b157600080fd5b506106c56106c03660046126fa565b610fb4565b60405161027a9190612829565b3480156106de57600080fd5b506002546102a3906001600160a01b031681565b3480156106fe57600080fd5b506102ce61070d366004612880565b611020565b34801561071e57600080fd5b506104b261072d3660046128c1565b60016020526000908152604090205481565b34801561074b57600080fd5b506103eb61075a3660046128dc565b61103a565b6102ce61076d366004612880565b6111e2565b61078561078036600461293c565b61136c565b60405161027a9291906129a9565b34801561079f57600080fd5b506102ce6107ae3660046126fa565b611469565b6102ce6107c136600461252c565b6114ef565b3480156107d257600080fd5b506102ce6107e13660046126fa565b61151e565b3480156107f257600080fd5b506102ce6108013660046126fa565b611574565b34801561081257600080fd5b507f00000000000000000000000000000000000000000000000000000000000000006102a3565b34801561084557600080fd5b5061042f6108543660046129fb565b6115b2565b6040805180820190915260008082526020820152606061088c604051806040016040528060008152602001600081525090565b600080306001600160a01b031663fc0c546a6040518163ffffffff1660e01b8152600401602060405180830381865afa1580156108cd573d6000803e3d6000fd5b505050506040513d601f19601f820116820180604052508101906108f19190612a17565b6001600160a01b03166318160ddd6040518163ffffffff1660e01b8152600401602060405180830381865afa15801561092e573d6000803e3d6000fd5b505050506040513d601f19601f820116820180604052508101906109529190612a34565b604080518082018252848152602080820184905282516000808252918101909352909750919250906109a7565b60408051808201909152600081526060602082015281526020019060019003908161097f5790505b5093506000806109cc604089013560608a01356109c760208c018c6128c1565b6115e8565b60408051808201909152918252602082015296989597505050505050565b7f00000000000000000000000000000000000000000000000000000000000000006001600160a01b03163314610a3a576040516391ac5e4f60e01b81523360048201526024015b60405180910390fd5b60208701803590610a5490610a4f908a6128c1565b611624565b14610a9257610a6660208801886128c1565b60405163309afaf360e21b815263ffffffff909116600482015260208801356024820152604401610a31565b610aa187878787878787611660565b50505050505050565b610ab26117c7565b610abc82826117f4565b5050565b60408051808201909152600080825260208201526000610af0604085013560608601356109c760208801886128c1565b915050600080610b008684611849565b9092509050610b1d610b1560208801886128c1565b83838861196c565b93505050505b92915050565b610b316117c7565b610b39611a4d565b565b600360209081526000928352604080842090915290825290208054610b5f90612a63565b80601f0160208091040260200160405190810160405280929190818152602001828054610b8b90612a63565b8015610bd85780601f10610bad57610100808354040283529160200191610bd8565b820191906000526020600020905b815481529060010190602001808311610bbb57829003601f168201915b505050505081565b60066020528160005260406000208181548110610bfc57600080fd5b90600052602060002001600091509150505481565b610c196117c7565b600480546001600160a01b0319166001600160a01b0383169081179091556040519081527ff0be4f1e87349231d80c36b33f9e8639658eeaf474014dee15a3e6a4d4414197906020015b60405180910390a150565b610c766117c7565b610b396000611aa2565b6001600160a01b0381166000908152600660209081526040808320805482518185028101850190935280835260609485949093929190830182828015610ce557602002820191906000526020600020905b815481526020019060010190808311610cd1575b5050835193945083925050506001600160401b03811115610d0857610d08612a4d565b604051908082528060200260200182016040528015610d31578160200160208202803683370190505b509350806001600160401b03811115610d4c57610d4c612a4d565b604051908082528060200260200182016040528015610d75578160200160208202803683370190505b5092506000805b82811015610e2b576000848281518110610d9857610d98612a97565b6020908102919091018101516000818152600590925260409091206002015490915060ff16610e225780878481518110610dd457610dd4612a97565b6020026020010181815250506005600082815260200190815260200160002060010154868481518110610e0957610e09612a97565b602090810291909101015282610e1e81612ac3565b9350505b50600101610d7c565b50808552808452505050915091565b6001600160a01b03811630145b949350505050565b610e576117c7565b610b39611af2565b610e676117c7565b600081815260056020526040902080546001600160a01b0316610ec35760405162461bcd60e51b81526020600482015260146024820152732737b732bc34b9ba32b73a103a3930b739b332b960611b6044820152606401610a31565b600281015460ff1615610f0b5760405162461bcd60e51b815260206004820152601060248201526f105b1c9958591e481c99599d5b99195960821b6044820152606401610a31565b60028101805460ff19166001908117909155815490820154610f68916001600160a01b031690610f587f000000000000000000000000000000000000000000000000000000000000000090565b6001600160a01b03169190611b35565b805460018201546040519081526001600160a01b039091169083907f04f52f70a574c3facc8188d13efa4536b1ab3b9571e5ed36201886191c4686ce9060200160405180910390a35050565b6001600160a01b03811660009081526006602090815260409182902080548351818402810184019094528084526060939283018282801561101457602002820191906000526020600020905b815481526020019060010190808311611000575b50505050509050919050565b6110286117c7565b610abc6110358284612b7d565b611b99565b63ffffffff8416600090815260036020908152604080832061ffff8716845290915281208054606092919061106e90612a63565b80601f016020809104026020016040519081016040528092919081815260200182805461109a90612a63565b80156110e75780601f106110bc576101008083540402835291602001916110e7565b820191906000526020600020905b8154815290600101906020018083116110ca57829003601f168201915b5050505050905080516000036111375783838080601f016020809104026020016040519081016040528093929190818152602001838380828437600092019190915250929450610e479350505050565b6000839003611147579050610e47565b600283106111c55761118e84848080601f016020809104026020016040519081016040528093929190818152602001838380828437600092019190915250611ca092505050565b8061119c8460028188612c92565b6040516020016111ae93929190612cbc565b604051602081830303815290604052915050610e47565b8383604051639a6d49cd60e01b8152600401610a31929190612d0d565b60005b818110156112eb573683838381811061120057611200612a97565b90506020028101906112129190612d21565b905061124561122460208301836128c1565b602083013563ffffffff919091166000908152600160205260409020541490565b61124f57506112e3565b3063d045a0dc60c08301358360a081013561126e610100830183612d42565b61127f610100890160e08a016126fa565b61128d6101208a018a612d42565b6040518963ffffffff1660e01b81526004016112af9796959493929190612d9d565b6000604051808303818588803b1580156112c857600080fd5b505af11580156112dc573d6000803e3d6000fd5b5050505050505b6001016111e5565b50336001600160a01b0316638e9e70996040518163ffffffff1660e01b8152600401600060405180830381865afa15801561132a573d6000803e3d6000fd5b505050506040513d6000823e601f3d908101601f191682016040526113529190810190612e23565b604051638351eea760e01b8152600401610a3191906126c9565b611374612341565b6040805180820190915260008082526020820152611390611ccc565b61139b858585611cf7565b815160408051606081018252338082528a8301356020808401828152600085870181815288825260058452878220965187546001600160a01b0319166001600160a01b03909116178755915160018088019190915591516002909601805460ff1916961515969096179095558385526006825285852080549182018155855293819020909301859055925192835294965092945090929183917f23e130dd4f559327be4dda1610ddd007df851f723ac83e1fbbaccd8d4d7ec5a0910160405180910390a3505b935093915050565b6114716117c7565b60405163ca5eb5e160e01b81526001600160a01b0382811660048301527f0000000000000000000000000000000000000000000000000000000000000000169063ca5eb5e190602401600060405180830381600087803b1580156114d457600080fd5b505af11580156114e8573d6000803e3d6000fd5b5050505050565b33301461150f5760405163029a949d60e31b815260040160405180910390fd5b610aa187878787878787610a92565b6115266117c7565b600280546001600160a01b0319166001600160a01b0383169081179091556040519081527fd48d879cef83a1c0bdda516f27b13ddb1b3f8bbac1c9e1511bb2a659c242776090602001610c63565b61157c6117c7565b6001600160a01b0381166115a657604051631e4fbdf760e01b815260006004820152602401610a31565b6115af81611aa2565b50565b60006020820180359060019083906115ca90866128c1565b63ffffffff1681526020810191909152604001600020541492915050565b6000806115f485611df2565b915081905083811015611461576040516371c4efed60e01b81526004810182905260248101859052604401610a31565b63ffffffff811660009081526001602052604081205480610b235760405163f6ff4fb760e01b815263ffffffff84166004820152602401610a31565b600061167261166f8787611e29565b90565b9050600061169e8261168c6116878a8a611e48565b611e6b565b61169960208d018d6128c1565b611ea0565b905060288611156117655760006116db6116be60608c0160408d01612e90565b6116cb60208d018d6128c1565b846116d68c8c611ede565b611f29565b604051633e5ac80960e11b81529091506001600160a01b037f00000000000000000000000000000000000000000000000000000000000000001690637cb59012906117319086908d906000908790600401612ead565b600060405180830381600087803b15801561174b57600080fd5b505af115801561175f573d6000803e3d6000fd5b50505050505b6001600160a01b038216887fefed6d3500546b29533b128a29e3a94d70788727f0507505ac12eaf2e578fd9c61179e60208d018d6128c1565b6040805163ffffffff9092168252602082018690520160405180910390a3505050505050505050565b6000546001600160a01b03163314610b395760405163118cdaa760e01b8152336004820152602401610a31565b63ffffffff8216600081815260016020908152604091829020849055815192835282018390527f238399d427b947898edb290f5ff0f9109849b1c3ba196a42e35f00c50a54b98b910160405180910390a15050565b60608060006118a6856020013561185f86611f5b565b61186c60a0890189612d42565b8080601f016020809104026020016040519081016040528093929190818152602001838380828437600092019190915250611f8792505050565b90935090506000816118b95760016118bc565b60025b90506118dc6118ce60208801886128c1565b8261075a60808a018a612d42565b6004549093506001600160a01b031680156119625760405163043a78eb60e01b81526001600160a01b0382169063043a78eb9061191f9088908890600401612ee8565b602060405180830381865afa15801561193c573d6000803e3d6000fd5b505050506040513d601f19601f820116820180604052508101906119609190612f0d565b505b5050509250929050565b60408051808201909152600080825260208201527f00000000000000000000000000000000000000000000000000000000000000006001600160a01b031663ddc28c586040518060a001604052808863ffffffff1681526020016119cf89611624565b8152602001878152602001868152602001851515815250306040518363ffffffff1660e01b8152600401611a04929190612f2a565b6040805180830381865afa158015611a20573d6000803e3d6000fd5b505050506040513d601f19601f82011682018060405250810190611a449190612fd3565b95945050505050565b611a55612001565b6000805460ff60a01b191690557f5db9ee0a495bf2e6ff9c91a7834c1ba4fdd244a5e8aa4e537bd38aeae4b073aa335b6040516001600160a01b03909116815260200160405180910390a1565b600080546001600160a01b038381166001600160a01b0319831681178455604051919092169283917f8be0079c531659141344cd1fd0a4f28419497f9722a3daafe3b4186f6b6457e09190a35050565b611afa611ccc565b6000805460ff60a01b1916600160a01b1790557f62e78cea01bee320cd4e420270b5ea74000d11b0c9f74754ebdbfc544b05a258611a853390565b6040516001600160a01b03838116602483015260448201839052611b9491859182169063a9059cbb906064015b604051602081830303815290604052915060e01b6020820180516001600160e01b03838183161783525050505061202b565b505050565b60005b8151811015611c7057611bcb828281518110611bba57611bba612a97565b602002602001015160400151611ca0565b818181518110611bdd57611bdd612a97565b60200260200101516040015160036000848481518110611bff57611bff612a97565b60200260200101516000015163ffffffff1663ffffffff1681526020019081526020016000206000848481518110611c3957611c39612a97565b60200260200101516020015161ffff1661ffff1681526020019081526020016000209081611c67919061303f565b50600101611b9c565b507fbe4864a8e820971c0247f5992e2da559595f7bf076a21cb5928d443d2a13b67481604051610c6391906130fe565b600281015161ffff8116600314610abc5781604051639a6d49cd60e01b8152600401610a3191906126c9565b600054600160a01b900460ff1615610b395760405163d93c066560e01b815260040160405180910390fd5b611cff612341565b6040805180820190915260008082526020820152600080611d3633604089013560608a0135611d3160208c018c6128c1565b6120a2565b91509150600080611d478984611849565b9092509050611d73611d5c60208b018b6128c1565b8383611d6d368d90038d018d613189565b8b6120f3565b60408051808201909152858152602080820186905282519298509096503391907f85496b760a4b7f8d66384b9df21b381f5d1b1e79f229a47aaf4c232edc2fe59a90611dc1908d018d6128c1565b6040805163ffffffff909216825260208201899052810187905260600160405180910390a350505050935093915050565b60007f0000000000000000000000000000000000000000000000000000000000000000611e1f81846131bb565b610b2391906131dd565b6000611e386020828486612c92565b611e41916131f4565b9392505050565b6000611e58602860208486612c92565b611e6191613212565b60c01c9392505050565b6000610b237f00000000000000000000000000000000000000000000000000000000000000006001600160401b0384166131dd565b6000611ed66001600160a01b037f0000000000000000000000000000000000000000000000000000000000000000168585611b35565b509092915050565b6060611eed8260288186612c92565b8080601f016020809104026020016040519081016040528093929190818152602001838380828437600092019190915250929695505050505050565b606084848484604051602001611f429493929190613242565b6040516020818303038152906040529050949350505050565b6000610b237f0000000000000000000000000000000000000000000000000000000000000000836131bb565b8051606090151580611fd0578484604051602001611fbc92919091825260c01b6001600160c01b031916602082015260280190565b604051602081830303815290604052611ff7565b84843385604051602001611fe79493929190613291565b6040516020818303038152906040525b9150935093915050565b600054600160a01b900460ff16610b3957604051638dfc202b60e01b815260040160405180910390fd5b600080602060008451602086016000885af18061204e576040513d6000823e3d81fd5b50506000513d91508115612066578060011415612073565b6001600160a01b0384163b155b1561209c57604051635274afe760e01b81526001600160a01b0385166004820152602401610a31565b50505050565b6000806120b08585856115e8565b90925090506120ea6001600160a01b037f0000000000000000000000000000000000000000000000000000000000000000168730856121fe565b94509492505050565b6120fb612341565b600061210a8460000151612237565b60208501519091501561212457612124846020015161225f565b7f00000000000000000000000000000000000000000000000000000000000000006001600160a01b0316632637a450826040518060a001604052808b63ffffffff1681526020016121748c611624565b81526020018a815260200189815260200160008960200151111515815250866040518463ffffffff1660e01b81526004016121b0929190612f2a565b60806040518083038185885af11580156121ce573d6000803e3d6000fd5b50505050506040513d601f19601f820116820180604052508101906121f391906132d4565b979650505050505050565b6040516001600160a01b03848116602483015283811660448301526064820183905261209c9186918216906323b872dd90608401611b62565b600081341461225b576040516304fb820960e51b8152346004820152602401610a31565b5090565b60007f00000000000000000000000000000000000000000000000000000000000000006001600160a01b031663e4fe1d946040518163ffffffff1660e01b8152600401602060405180830381865afa1580156122bf573d6000803e3d6000fd5b505050506040513d601f19601f820116820180604052508101906122e39190612a17565b90506001600160a01b03811661230c576040516329b99a9560e11b815260040160405180910390fd5b610abc6001600160a01b038216337f0000000000000000000000000000000000000000000000000000000000000000856121fe565b60405180606001604052806000801916815260200160006001600160401b03168152602001612383604051806040016040528060008152602001600081525090565b905290565b600060e0828403121561239a57600080fd5b50919050565b6000602082840312156123b257600080fd5b81356001600160401b038111156123c857600080fd5b610e4784828501612388565b60005b838110156123ef5781810151838201526020016123d7565b50506000910152565b600081518084526124108160208601602086016123d4565b601f01601f19169290920160200192915050565b8351815260208085015190820152600060a08201604060a0604085015281865180845260c08601915060c08160051b8701019350602080890160005b8381101561249f5788870360bf1901855281518051885283015183880187905261248c878901826123f8565b9750509382019390820190600101612460565b50508751606088015250505060208501516080850152509050610e47565b60006060828403121561239a57600080fd5b60008083601f8401126124e157600080fd5b5081356001600160401b038111156124f857600080fd5b60208301915083602082850101111561251057600080fd5b9250929050565b6001600160a01b03811681146115af57600080fd5b600080600080600080600060e0888a03121561254757600080fd5b61255189896124bd565b96506060880135955060808801356001600160401b038082111561257457600080fd5b6125808b838c016124cf565b909750955060a08a0135915061259582612517565b90935060c089013590808211156125ab57600080fd5b506125b88a828b016124cf565b989b979a50959850939692959293505050565b803563ffffffff811681146125df57600080fd5b919050565b600080604083850312156125f757600080fd5b612600836125cb565b946020939093013593505050565b80151581146115af57600080fd5b6000806040838503121561262f57600080fd5b82356001600160401b0381111561264557600080fd5b61265185828601612388565b92505060208301356126628161260e565b809150509250929050565b815181526020808301519082015260408101610b23565b803561ffff811681146125df57600080fd5b600080604083850312156126a957600080fd5b6126b2836125cb565b91506126c060208401612684565b90509250929050565b602081526000611e4160208301846123f8565b600080604083850312156126ef57600080fd5b823561260081612517565b60006020828403121561270c57600080fd5b8135611e4181612517565b60008151808452602080850194506020840160005b838110156127485781518752958201959082019060010161272c565b509495945050505050565b6040815260006127666040830185612717565b82810360208481019190915284518083528582019282019060005b8181101561279d57845183529383019391830191600101612781565b5090979650505050505050565b60008060008060a085870312156127c057600080fd5b6127ca86866124bd565b935060608501356001600160401b038111156127e557600080fd5b6127f1878288016124cf565b909450925050608085013561280581612517565b939692955090935050565b60006020828403121561282257600080fd5b5035919050565b602081526000611e416020830184612717565b60008083601f84011261284e57600080fd5b5081356001600160401b0381111561286557600080fd5b6020830191508360208260051b850101111561251057600080fd5b6000806020838503121561289357600080fd5b82356001600160401b038111156128a957600080fd5b6128b58582860161283c565b90969095509350505050565b6000602082840312156128d357600080fd5b611e41826125cb565b600080600080606085870312156128f257600080fd5b6128fb856125cb565b935061290960208601612684565b925060408501356001600160401b0381111561292457600080fd5b612930878288016124cf565b95989497509550505050565b6000806000838503608081121561295257600080fd5b84356001600160401b0381111561296857600080fd5b61297487828801612388565b9450506040601f198201121561298957600080fd5b50602084019150606084013561299e81612517565b809150509250925092565b600060c082019050835182526001600160401b03602085015116602083015260408401516129e4604084018280518252602090810151910152565b5082516080830152602083015160a0830152611e41565b600060608284031215612a0d57600080fd5b611e4183836124bd565b600060208284031215612a2957600080fd5b8151611e4181612517565b600060208284031215612a4657600080fd5b5051919050565b634e487b7160e01b600052604160045260246000fd5b600181811c90821680612a7757607f821691505b60208210810361239a57634e487b7160e01b600052602260045260246000fd5b634e487b7160e01b600052603260045260246000fd5b634e487b7160e01b600052601160045260246000fd5b600060018201612ad557612ad5612aad565b5060010190565b604051606081016001600160401b0381118282101715612afe57612afe612a4d565b60405290565b604080519081016001600160401b0381118282101715612afe57612afe612a4d565b604051601f8201601f191681016001600160401b0381118282101715612b4e57612b4e612a4d565b604052919050565b60006001600160401b03821115612b6f57612b6f612a4d565b50601f01601f191660200190565b60006001600160401b0380841115612b9757612b97612a4d565b8360051b6020612ba8818301612b26565b868152918501918181019036841115612bc057600080fd5b865b84811015612c8657803586811115612bda5760008081fd5b88016060368290031215612bee5760008081fd5b612bf6612adc565b612bff826125cb565b8152612c0c868301612684565b8682015260408083013589811115612c245760008081fd5b929092019136601f840112612c395760008081fd5b8235612c4c612c4782612b56565b612b26565b8181523689838701011115612c615760008081fd5b818986018a830137600091810189019190915290820152845250918301918301612bc2565b50979650505050505050565b60008085851115612ca257600080fd5b83861115612caf57600080fd5b5050820193919092039150565b60008451612cce8184602089016123d4565b8201838582376000930192835250909392505050565b81835281816020850137506000828201602090810191909152601f909101601f19169091010190565b602081526000610e47602083018486612ce4565b6000823561013e19833603018112612d3857600080fd5b9190910192915050565b6000808335601e19843603018112612d5957600080fd5b8301803591506001600160401b03821115612d7357600080fd5b60200191503681900382131561251057600080fd5b6001600160401b03811681146115af57600080fd5b63ffffffff612dab896125cb565b1681526020880135602082015260006040890135612dc881612d88565b6001600160401b03811660408401525087606083015260e06080830152612df360e083018789612ce4565b6001600160a01b03861660a084015282810360c0840152612e15818587612ce4565b9a9950505050505050505050565b600060208284031215612e3557600080fd5b81516001600160401b03811115612e4b57600080fd5b8201601f81018413612e5c57600080fd5b8051612e6a612c4782612b56565b818152856020838501011115612e7f57600080fd5b611a448260208301602086016123d4565b600060208284031215612ea257600080fd5b8135611e4181612d88565b60018060a01b038516815283602082015261ffff83166040820152608060608201526000612ede60808301846123f8565b9695505050505050565b604081526000612efb60408301856123f8565b8281036020840152611a4481856123f8565b600060208284031215612f1f57600080fd5b8151611e418161260e565b6040815263ffffffff8351166040820152602083015160608201526000604084015160a06080840152612f6060e08401826123f8565b90506060850151603f198483030160a0850152612f7d82826123f8565b60809690960151151560c08501525050506001600160a01b039190911660209091015290565b600060408284031215612fb557600080fd5b612fbd612b04565b9050815181526020820151602082015292915050565b600060408284031215612fe557600080fd5b611e418383612fa3565b601f821115611b94576000816000526020600020601f850160051c810160208610156130185750805b601f850160051c820191505b8181101561303757828155600101613024565b505050505050565b81516001600160401b0381111561305857613058612a4d565b61306c816130668454612a63565b84612fef565b602080601f8311600181146130a157600084156130895750858301515b600019600386901b1c1916600185901b178555613037565b600085815260208120601f198616915b828110156130d0578886015182559484019460019091019084016130b1565b50858210156130ee5787850151600019600388901b60f8161c191681555b5050505050600190811b01905550565b600060208083018184528085518083526040925060408601915060408160051b87010184880160005b8381101561317b57888303603f190185528151805163ffffffff1684528781015161ffff16888501528601516060878501819052613167818601836123f8565b968901969450505090860190600101613127565b509098975050505050505050565b60006040828403121561319b57600080fd5b6131a3612b04565b82358152602083013560208201528091505092915050565b6000826131d857634e487b7160e01b600052601260045260246000fd5b500490565b8082028115828204841417610b2357610b23612aad565b80356020831015610b2357600019602084900360031b1b1692915050565b6001600160c01b0319813581811691600885101561323a5780818660080360031b1b83161692505b505092915050565b6001600160401b0360c01b8560c01b16815263ffffffff60e01b8460e01b16600882015282600c8201526000825161328181602c8501602087016123d4565b91909101602c0195945050505050565b8481526001600160401b0360c01b8460c01b166020820152826028820152600082516132c48160488501602087016123d4565b9190910160480195945050505050565b6000608082840312156132e657600080fd5b6132ee612adc565b82518152602083015161330081612d88565b60208201526133128460408501612fa3565b6040820152939250505056fea2646970667358221220a16c727ea575053d02c6613f9c0856811c87c3ce29b202be658f85f18496912d64736f6c63430008180033",
  "linkReferences": {},
  "deployedLinkReferences": {}
}