{
  "_format": "hh-sol-artifact-1",
  "contractName": "BaseOFTAdapter",
  "sourceName": "contracts/BaseOFTAdapter.sol",
  "abi": [
    {
      "inputs": [
        {
          "internalType": "address",
          "name": "_token",
          "type": "address"
        },
        {
          "internalType": "address",
          "name": "_lzEndpoint",
          "type": "address"
        },
        {
          "internalType": "address",
          "name": "_owner",
          "type": "address"
        }
      ],
      "stateMutability": "nonpayable",
      "type": "constructor"
    },
    {
      "inputs": [],
      "name": "InvalidDelegate",
      "type": "error"
    },
    {
      "inputs": [],
      "name": "InvalidEndpointCall",
      "type": "error"
    },
    {
      "inputs": [],
      "name": "InvalidLocalDecimals",
      "type": "error"
    },
    {
      "inputs": [
        {
          "internalType": "bytes",
          "name": "options",
          "type": "bytes"
        }
      ],
      "name": "InvalidOptions",
      "type": "error"
    },
    {
      "inputs": [],
      "name": "LzTokenUnavailable",
      "type": "error"
    },
    {
      "inputs": [
        {
          "internalType": "uint32",
          "name": "eid",
          "type": "uint32"
        }
      ],
      "name": "NoPeer",
      "type": "error"
    },
    {
      "inputs": [
        {
          "internalType": "uint256",
          "name": "msgValue",
          "type": "uint256"
        }
      ],
      "name": "NotEnoughNative",
      "type": "error"
    },
    {
      "inputs": [
        {
          "internalType": "address",
          "name": "addr",
          "type": "address"
        }
      ],
      "name": "OnlyEndpoint",
      "type": "error"
    },
    {
      "inputs": [
        {
          "internalType": "uint32",
          "name": "eid",
          "type": "uint32"
        },
        {
          "internalType": "bytes32",
          "name": "sender",
          "type": "bytes32"
        }
      ],
      "name": "OnlyPeer",
      "type": "error"
    },
    {
      "inputs": [],
      "name": "OnlySelf",
      "type": "error"
    },
    {
      "inputs": [
        {
          "internalType": "address",
          "name": "owner",
          "type": "address"
        }
      ],
      "name": "OwnableInvalidOwner",
      "type": "error"
    },
    {
      "inputs": [
        {
          "internalType": "address",
          "name": "account",
          "type": "address"
        }
      ],
      "name": "OwnableUnauthorizedAccount",
      "type": "error"
    },
    {
      "inputs": [
        {
          "internalType": "address",
          "name": "token",
          "type": "address"
        }
      ],
      "name": "SafeERC20FailedOperation",
      "type": "error"
    },
    {
      "inputs": [
        {
          "internalType": "bytes",
          "name": "result",
          "type": "bytes"
        }
      ],
      "name": "SimulationResult",
      "type": "error"
    },
    {
      "inputs": [
        {
          "internalType": "uint256",
          "name": "amountLD",
          "type": "uint256"
        },
        {
          "internalType": "uint256",
          "name": "minAmountLD",
          "type": "uint256"
        }
      ],
      "name": "SlippageExceeded",
      "type": "error"
    },
    {
      "anonymous": false,
      "inputs": [
        {
          "components": [
            {
              "internalType": "uint32",
              "name": "eid",
              "type": "uint32"
            },
            {
              "internalType": "uint16",
              "name": "msgType",
              "type": "uint16"
            },
            {
              "internalType": "bytes",
              "name": "options",
              "type": "bytes"
            }
          ],
          "indexed": false,
          "internalType": "struct EnforcedOptionParam[]",
          "name": "_enforcedOptions",
          "type": "tuple[]"
        }
      ],
      "name": "EnforcedOptionSet",
      "type": "event"
    },
    {
      "anonymous": false,
      "inputs": [
        {
          "indexed": false,
          "internalType": "address",
          "name": "inspector",
          "type": "address"
        }
      ],
      "name": "MsgInspectorSet",
      "type": "event"
    },
    {
      "anonymous": false,
      "inputs": [
        {
          "indexed": true,
          "internalType": "bytes32",
          "name": "guid",
          "type": "bytes32"
        },
        {
          "indexed": false,
          "internalType": "uint32",
          "name": "srcEid",
          "type": "uint32"
        },
        {
          "indexed": true,
          "internalType": "address",
          "name": "toAddress",
          "type": "address"
        },
        {
          "indexed": false,
          "internalType": "uint256",
          "name": "amountReceivedLD",
          "type": "uint256"
        }
      ],
      "name": "OFTReceived",
      "type": "event"
    },
    {
      "anonymous": false,
      "inputs": [
        {
          "indexed": true,
          "internalType": "bytes32",
          "name": "guid",
          "type": "bytes32"
        },
        {
          "indexed": false,
          "internalType": "uint32",
          "name": "dstEid",
          "type": "uint32"
        },
        {
          "indexed": true,
          "internalType": "address",
          "name": "fromAddress",
          "type": "address"
        },
        {
          "indexed": false,
          "internalType": "uint256",
          "name": "amountSentLD",
          "type": "uint256"
        },
        {
          "indexed": false,
          "internalType": "uint256",
          "name": "amountReceivedLD",
          "type": "uint256"
        }
      ],
      "name": "OFTSent",
      "type": "event"
    },
    {
      "anonymous": false,
      "inputs": [
        {
          "indexed": true,
          "internalType": "address",
          "name": "previousOwner",
          "type": "address"
        },
        {
          "indexed": true,
          "internalType": "address",
          "name": "newOwner",
          "type": "address"
        }
      ],
      "name": "OwnershipTransferred",
      "type": "event"
    },
    {
      "anonymous": false,
      "inputs": [
        {
          "indexed": false,
          "internalType": "uint32",
          "name": "eid",
          "type": "uint32"
        },
        {
          "indexed": false,
          "internalType": "bytes32",
          "name": "peer",
          "type": "bytes32"
        }
      ],
      "name": "PeerSet",
      "type": "event"
    },
    {
      "anonymous": false,
      "inputs": [
        {
          "indexed": false,
          "internalType": "address",
          "name": "preCrimeAddress",
          "type": "address"
        }
      ],
      "name": "PreCrimeSet",
      "type": "event"
    },
    {
      "anonymous": false,
      "inputs": [
        {
          "indexed": true,
          "internalType": "bytes32",
          "name": "lzMsgId",
          "type": "bytes32"
        },
        {
          "indexed": true,
          "internalType": "address",
          "name": "sender",
          "type": "address"
        },
        {
          "indexed": false,
          "internalType": "uint256",
          "name": "amount",
          "type": "uint256"
        }
      ],
      "name": "TransferLocked",
      "type": "event"
    },
    {
      "anonymous": false,
      "inputs": [
        {
          "indexed": true,
          "internalType": "bytes32",
          "name": "lzMsgId",
          "type": "bytes32"
        },
        {
          "indexed": true,
          "internalType": "address",
          "name": "sender",
          "type": "address"
        },
        {
          "indexed": false,
          "internalType": "uint256",
          "name": "amount",
          "type": "uint256"
        }
      ],
      "name": "TransferRefunded",
      "type": "event"
    },
    {
      "inputs": [],
      "name": "SEND",
      "outputs": [
        {
          "internalType": "uint16",
          "name": "",
          "type": "uint16"
        }
      ],
      "stateMutability": "view",
      "type": "function"
    },
    {
      "inputs": [],
      "name": "SEND_AND_CALL",
      "outputs": [
        {
          "internalType": "uint16",
          "name": "",
          "type": "uint16"
        }
      ],
      "stateMutability": "view",
      "type": "function"
    },
    {
      "inputs": [
        {
          "components": [
            {
              "internalType": "uint32",
              "name": "srcEid",
              "type": "uint32"
            },
            {
              "internalType": "bytes32",
              "name": "sender",
              "type": "bytes32"
            },
            {
              "internalType": "uint64",
              "name": "nonce",
              "type": "uint64"
            }
          ],
          "internalType": "struct Origin",
          "name": "origin",
          "type": "tuple"
        }
      ],
      "name": "allowInitializePath",
      "outputs": [
        {
          "internalType": "bool",
          "name": "",
          "type": "bool"
        }
      ],
      "stateMutability": "view",
      "type": "function"
    },
    {
      "inputs": [],
      "name": "approvalRequired",
      "outputs": [
        {
          "internalType": "bool",
          "name": "",
          "type": "bool"
        }
      ],
      "stateMutability": "pure",
      "type": "function"
    },
    {
      "inputs": [
        {
          "internalType": "uint32",
          "name": "_eid",
          "type": "uint32"
        },
        {
          "internalType": "uint16",
          "name": "_msgType",
          "type": "uint16"
        },
        {
          "internalType": "bytes",
          "name": "_extraOptions",
          "type": "bytes"
        }
      ],
      "name": "combineOptions",
      "outputs": [
        {
          "internalType": "bytes",
          "name": "",
          "type": "bytes"
        }
      ],
      "stateMutability": "view",
      "type": "function"
    },
    {
      "inputs": [],
      "name": "decimalConversionRate",
      "outputs": [
        {
          "internalType": "uint256",
          "name": "",
          "type": "uint256"
        }
      ],
      "stateMutability": "view",
      "type": "function"
    },
    {
      "inputs": [],
      "name": "endpoint",
      "outputs": [
        {
          "internalType": "contract ILayerZeroEndpointV2",
          "name": "",
          "type": "address"
        }
      ],
      "stateMutability": "view",
      "type": "function"
    },
    {
      "inputs": [
        {
          "internalType": "uint32",
          "name": "eid",
          "type": "uint32"
        },
        {
          "internalType": "uint16",
          "name": "msgType",
          "type": "uint16"
        }
      ],
      "name": "enforcedOptions",
      "outputs": [
        {
          "internalType": "bytes",
          "name": "enforcedOption",
          "type": "bytes"
        }
      ],
      "stateMutability": "view",
      "type": "function"
    },
    {
      "inputs": [
        {
          "internalType": "address",
          "name": "user",
          "type": "address"
        }
      ],
      "name": "getActiveTransfersByUser",
      "outputs": [
        {
          "internalType": "bytes32[]",
          "name": "activeIds",
          "type": "bytes32[]"
        },
        {
          "internalType": "uint256[]",
          "name": "amounts",
          "type": "uint256[]"
        }
      ],
      "stateMutability": "view",
      "type": "function"
    },
    {
      "inputs": [
        {
          "internalType": "address",
          "name": "user",
          "type": "address"
        }
      ],
      "name": "getTransfersByUser",
      "outputs": [
        {
          "internalType": "bytes32[]",
          "name": "",
          "type": "bytes32[]"
        }
      ],
      "stateMutability": "view",
      "type": "function"
    },
    {
      "inputs": [
        {
          "components": [
            {
              "internalType": "uint32",
              "name": "srcEid",
              "type": "uint32"
            },
            {
              "internalType": "bytes32",
              "name": "sender",
              "type": "bytes32"
            },
            {
              "internalType": "uint64",
              "name": "nonce",
              "type": "uint64"
            }
          ],
          "internalType": "struct Origin",
          "name": "",
          "type": "tuple"
        },
        {
          "internalType": "bytes",
          "name": "",
          "type": "bytes"
        },
        {
          "internalType": "address",
          "name": "_sender",
          "type": "address"
        }
      ],
      "name": "isComposeMsgSender",
      "outputs": [
        {
          "internalType": "bool",
          "name": "",
          "type": "bool"
        }
      ],
      "stateMutability": "view",
      "type": "function"
    },
    {
      "inputs": [
        {
          "internalType": "uint32",
          "name": "_eid",
          "type": "uint32"
        },
        {
          "internalType": "bytes32",
          "name": "_peer",
          "type": "bytes32"
        }
      ],
      "name": "isPeer",
      "outputs": [
        {
          "internalType": "bool",
          "name": "",
          "type": "bool"
        }
      ],
      "stateMutability": "view",
      "type": "function"
    },
    {
      "inputs": [
        {
          "internalType": "bytes32",
          "name": "",
          "type": "bytes32"
        }
      ],
      "name": "lockedTransfers",
      "outputs": [
        {
          "internalType": "address",
          "name": "sender",
          "type": "address"
        },
        {
          "internalType": "uint256",
          "name": "amount",
          "type": "uint256"
        },
        {
          "internalType": "bool",
          "name": "refunded",
          "type": "bool"
        }
      ],
      "stateMutability": "view",
      "type": "function"
    },
    {
      "inputs": [
        {
          "components": [
            {
              "internalType": "uint32",
              "name": "srcEid",
              "type": "uint32"
            },
            {
              "internalType": "bytes32",
              "name": "sender",
              "type": "bytes32"
            },
            {
              "internalType": "uint64",
              "name": "nonce",
              "type": "uint64"
            }
          ],
          "internalType": "struct Origin",
          "name": "_origin",
          "type": "tuple"
        },
        {
          "internalType": "bytes32",
          "name": "_guid",
          "type": "bytes32"
        },
        {
          "internalType": "bytes",
          "name": "_message",
          "type": "bytes"
        },
        {
          "internalType": "address",
          "name": "_executor",
          "type": "address"
        },
        {
          "internalType": "bytes",
          "name": "_extraData",
          "type": "bytes"
        }
      ],
      "name": "lzReceive",
      "outputs": [],
      "stateMutability": "payable",
      "type": "function"
    },
    {
      "inputs": [
        {
          "components": [
            {
              "components": [
                {
                  "internalType": "uint32",
                  "name": "srcEid",
                  "type": "uint32"
                },
                {
                  "internalType": "bytes32",
                  "name": "sender",
                  "type": "bytes32"
                },
                {
                  "internalType": "uint64",
                  "name": "nonce",
                  "type": "uint64"
                }
              ],
              "internalType": "struct Origin",
              "name": "origin",
              "type": "tuple"
            },
            {
              "internalType": "uint32",
              "name": "dstEid",
              "type": "uint32"
            },
            {
              "internalType": "address",
              "name": "receiver",
              "type": "address"
            },
            {
              "internalType": "bytes32",
              "name": "guid",
              "type": "bytes32"
            },
            {
              "internalType": "uint256",
              "name": "value",
              "type": "uint256"
            },
            {
              "internalType": "address",
              "name": "executor",
              "type": "address"
            },
            {
              "internalType": "bytes",
              "name": "message",
              "type": "bytes"
            },
            {
              "internalType": "bytes",
              "name": "extraData",
              "type": "bytes"
            }
          ],
          "internalType": "struct InboundPacket[]",
          "name": "_packets",
          "type": "tuple[]"
        }
      ],
      "name": "lzReceiveAndRevert",
      "outputs": [],
      "stateMutability": "payable",
      "type": "function"
    },
    {
      "inputs": [
        {
          "components": [
            {
              "internalType": "uint32",
              "name": "srcEid",
              "type": "uint32"
            },
            {
              "internalType": "bytes32",
              "name": "sender",
              "type": "bytes32"
            },
            {
              "internalType": "uint64",
              "name": "nonce",
              "type": "uint64"
            }
          ],
          "internalType": "struct Origin",
          "name": "_origin",
          "type": "tuple"
        },
        {
          "internalType": "bytes32",
          "name": "_guid",
          "type": "bytes32"
        },
        {
          "internalType": "bytes",
          "name": "_message",
          "type": "bytes"
        },
        {
          "internalType": "address",
          "name": "_executor",
          "type": "address"
        },
        {
          "internalType": "bytes",
          "name": "_extraData",
          "type": "bytes"
        }
      ],
      "name": "lzReceiveSimulate",
      "outputs": [],
      "stateMutability": "payable",
      "type": "function"
    },
    {
      "inputs": [],
      "name": "msgInspector",
      "outputs": [
        {
          "internalType": "address",
          "name": "",
          "type": "address"
        }
      ],
      "stateMutability": "view",
      "type": "function"
    },
    {
      "inputs": [
        {
          "internalType": "uint32",
          "name": "",
          "type": "uint32"
        },
        {
          "internalType": "bytes32",
          "name": "",
          "type": "bytes32"
        }
      ],
      "name": "nextNonce",
      "outputs": [
        {
          "internalType": "uint64",
          "name": "nonce",
          "type": "uint64"
        }
      ],
      "stateMutability": "view",
      "type": "function"
    },
    {
      "inputs": [],
      "name": "oApp",
      "outputs": [
        {
          "internalType": "address",
          "name": "",
          "type": "address"
        }
      ],
      "stateMutability": "view",
      "type": "function"
    },
    {
      "inputs": [],
      "name": "oAppVersion",
      "outputs": [
        {
          "internalType": "uint64",
          "name": "senderVersion",
          "type": "uint64"
        },
        {
          "internalType": "uint64",
          "name": "receiverVersion",
          "type": "uint64"
        }
      ],
      "stateMutability": "pure",
      "type": "function"
    },
    {
      "inputs": [],
      "name": "oftVersion",
      "outputs": [
        {
          "internalType": "bytes4",
          "name": "interfaceId",
          "type": "bytes4"
        },
        {
          "internalType": "uint64",
          "name": "version",
          "type": "uint64"
        }
      ],
      "stateMutability": "pure",
      "type": "function"
    },
    {
      "inputs": [],
      "name": "owner",
      "outputs": [
        {
          "internalType": "address",
          "name": "",
          "type": "address"
        }
      ],
      "stateMutability": "view",
      "type": "function"
    },
    {
      "inputs": [
        {
          "internalType": "uint32",
          "name": "eid",
          "type": "uint32"
        }
      ],
      "name": "peers",
      "outputs": [
        {
          "internalType": "bytes32",
          "name": "peer",
          "type": "bytes32"
        }
      ],
      "stateMutability": "view",
      "type": "function"
    },
    {
      "inputs": [],
      "name": "preCrime",
      "outputs": [
        {
          "internalType": "address",
          "name": "",
          "type": "address"
        }
      ],
      "stateMutability": "view",
      "type": "function"
    },
    {
      "inputs": [
        {
          "components": [
            {
              "internalType": "uint32",
              "name": "dstEid",
              "type": "uint32"
            },
            {
              "internalType": "bytes32",
              "name": "to",
              "type": "bytes32"
            },
            {
              "internalType": "uint256",
              "name": "amountLD",
              "type": "uint256"
            },
            {
              "internalType": "uint256",
              "name": "minAmountLD",
              "type": "uint256"
            },
            {
              "internalType": "bytes",
              "name": "extraOptions",
              "type": "bytes"
            },
            {
              "internalType": "bytes",
              "name": "composeMsg",
              "type": "bytes"
            },
            {
              "internalType": "bytes",
              "name": "oftCmd",
              "type": "bytes"
            }
          ],
          "internalType": "struct SendParam",
          "name": "_sendParam",
          "type": "tuple"
        }
      ],
      "name": "quoteOFT",
      "outputs": [
        {
          "components": [
            {
              "internalType": "uint256",
              "name": "minAmountLD",
              "type": "uint256"
            },
            {
              "internalType": "uint256",
              "name": "maxAmountLD",
              "type": "uint256"
            }
          ],
          "internalType": "struct OFTLimit",
          "name": "oftLimit",
          "type": "tuple"
        },
        {
          "components": [
            {
              "internalType": "int256",
              "name": "feeAmountLD",
              "type": "int256"
            },
            {
              "internalType": "string",
              "name": "description",
              "type": "string"
            }
          ],
          "internalType": "struct OFTFeeDetail[]",
          "name": "oftFeeDetails",
          "type": "tuple[]"
        },
        {
          "components": [
            {
              "internalType": "uint256",
              "name": "amountSentLD",
              "type": "uint256"
            },
            {
              "internalType": "uint256",
              "name": "amountReceivedLD",
              "type": "uint256"
            }
          ],
          "internalType": "struct OFTReceipt",
          "name": "oftReceipt",
          "type": "tuple"
        }
      ],
      "stateMutability": "view",
      "type": "function"
    },
    {
      "inputs": [
        {
          "components": [
            {
              "internalType": "uint32",
              "name": "dstEid",
              "type": "uint32"
            },
            {
              "internalType": "bytes32",
              "name": "to",
              "type": "bytes32"
            },
            {
              "internalType": "uint256",
              "name": "amountLD",
              "type": "uint256"
            },
            {
              "internalType": "uint256",
              "name": "minAmountLD",
              "type": "uint256"
            },
            {
              "internalType": "bytes",
              "name": "extraOptions",
              "type": "bytes"
            },
            {
              "internalType": "bytes",
              "name": "composeMsg",
              "type": "bytes"
            },
            {
              "internalType": "bytes",
              "name": "oftCmd",
              "type": "bytes"
            }
          ],
          "internalType": "struct SendParam",
          "name": "_sendParam",
          "type": "tuple"
        },
        {
          "internalType": "bool",
          "name": "_payInLzToken",
          "type": "bool"
        }
      ],
      "name": "quoteSend",
      "outputs": [
        {
          "components": [
            {
              "internalType": "uint256",
              "name": "nativeFee",
              "type": "uint256"
            },
            {
              "internalType": "uint256",
              "name": "lzTokenFee",
              "type": "uint256"
            }
          ],
          "internalType": "struct MessagingFee",
          "name": "msgFee",
          "type": "tuple"
        }
      ],
      "stateMutability": "view",
      "type": "function"
    },
    {
      "inputs": [
        {
          "internalType": "bytes32",
          "name": "lzMsgId",
          "type": "bytes32"
        }
      ],
      "name": "refundTransfer",
      "outputs": [],
      "stateMutability": "nonpayable",
      "type": "function"
    },
    {
      "inputs": [],
      "name": "renounceOwnership",
      "outputs": [],
      "stateMutability": "nonpayable",
      "type": "function"
    },
    {
      "inputs": [
        {
          "components": [
            {
              "internalType": "uint32",
              "name": "dstEid",
              "type": "uint32"
            },
            {
              "internalType": "bytes32",
              "name": "to",
              "type": "bytes32"
            },
            {
              "internalType": "uint256",
              "name": "amountLD",
              "type": "uint256"
            },
            {
              "internalType": "uint256",
              "name": "minAmountLD",
              "type": "uint256"
            },
            {
              "internalType": "bytes",
              "name": "extraOptions",
              "type": "bytes"
            },
            {
              "internalType": "bytes",
              "name": "composeMsg",
              "type": "bytes"
            },
            {
              "internalType": "bytes",
              "name": "oftCmd",
              "type": "bytes"
            }
          ],
          "internalType": "struct SendParam",
          "name": "_sendParam",
          "type": "tuple"
        },
        {
          "components": [
            {
              "internalType": "uint256",
              "name": "nativeFee",
              "type": "uint256"
            },
            {
              "internalType": "uint256",
              "name": "lzTokenFee",
              "type": "uint256"
            }
          ],
          "internalType": "struct MessagingFee",
          "name": "_fee",
          "type": "tuple"
        },
        {
          "internalType": "address",
          "name": "_refundAddress",
          "type": "address"
        }
      ],
      "name": "send",
      "outputs": [
        {
          "components": [
            {
              "internalType": "bytes32",
              "name": "guid",
              "type": "bytes32"
            },
            {
              "internalType": "uint64",
              "name": "nonce",
              "type": "uint64"
            },
            {
              "components": [
                {
                  "internalType": "uint256",
                  "name": "nativeFee",
                  "type": "uint256"
                },
                {
                  "internalType": "uint256",
                  "name": "lzTokenFee",
                  "type": "uint256"
                }
              ],
              "internalType": "struct MessagingFee",
              "name": "fee",
              "type": "tuple"
            }
          ],
          "internalType": "struct MessagingReceipt",
          "name": "msgReceipt",
          "type": "tuple"
        },
        {
          "components": [
            {
              "internalType": "uint256",
              "name": "amountSentLD",
              "type": "uint256"
            },
            {
              "internalType": "uint256",
              "name": "amountReceivedLD",
              "type": "uint256"
            }
          ],
          "internalType": "struct OFTReceipt",
          "name": "oftReceipt",
          "type": "tuple"
        }
      ],
      "stateMutability": "payable",
      "type": "function"
    },
    {
      "inputs": [
        {
          "internalType": "address",
          "name": "_delegate",
          "type": "address"
        }
      ],
      "name": "setDelegate",
      "outputs": [],
      "stateMutability": "nonpayable",
      "type": "function"
    },
    {
      "inputs": [
        {
          "components": [
            {
              "internalType": "uint32",
              "name": "eid",
              "type": "uint32"
            },
            {
              "internalType": "uint16",
              "name": "msgType",
              "type": "uint16"
            },
            {
              "internalType": "bytes",
              "name": "options",
              "type": "bytes"
            }
          ],
          "internalType": "struct EnforcedOptionParam[]",
          "name": "_enforcedOptions",
          "type": "tuple[]"
        }
      ],
      "name": "setEnforcedOptions",
      "outputs": [],
      "stateMutability": "nonpayable",
      "type": "function"
    },
    {
      "inputs": [
        {
          "internalType": "address",
          "name": "_msgInspector",
          "type": "address"
        }
      ],
      "name": "setMsgInspector",
      "outputs": [],
      "stateMutability": "nonpayable",
      "type": "function"
    },
    {
      "inputs": [
        {
          "internalType": "uint32",
          "name": "_eid",
          "type": "uint32"
        },
        {
          "internalType": "bytes32",
          "name": "_peer",
          "type": "bytes32"
        }
      ],
      "name": "setPeer",
      "outputs": [],
      "stateMutability": "nonpayable",
      "type": "function"
    },
    {
      "inputs": [
        {
          "internalType": "address",
          "name": "_preCrime",
          "type": "address"
        }
      ],
      "name": "setPreCrime",
      "outputs": [],
      "stateMutability": "nonpayable",
      "type": "function"
    },
    {
      "inputs": [],
      "name": "sharedDecimals",
      "outputs": [
        {
          "internalType": "uint8",
          "name": "",
          "type": "uint8"
        }
      ],
      "stateMutability": "view",
      "type": "function"
    },
    {
      "inputs": [],
      "name": "token",
      "outputs": [
        {
          "internalType": "address",
          "name": "",
          "type": "address"
        }
      ],
      "stateMutability": "view",
      "type": "function"
    },
    {
      "inputs": [
        {
          "internalType": "address",
          "name": "newOwner",
          "type": "address"
        }
      ],
      "name": "transferOwnership",
      "outputs": [],
      "stateMutability": "nonpayable",
      "type": "function"
    },
    {
      "inputs": [
        {
          "internalType": "address",
          "name": "",
          "type": "address"
        },
        {
          "internalType": "uint256",
          "name": "",
          "type": "uint256"
        }
      ],
      "name": "userTransfers",
      "outputs": [
        {
          "internalType": "bytes32",
          "name": "",
          "type": "bytes32"
        }
      ],
      "stateMutability": "view",
      "type": "function"
    }
  ],
  "bytecode": "0x60e06040523480156200001157600080fd5b506040516200367038038062003670833981016040819052620000349162000254565b828282826001600160a01b031663313ce5676040518163ffffffff1660e01b8152600401602060405180830381865afa15801562000076573d6000803e3d6000fd5b505050506040513d601f19601f820116820180604052508101906200009c91906200029e565b8282818181818a6001600160a01b038116620000d257604051631e4fbdf760e01b81526000600482015260240160405180910390fd5b620000dd81620001e2565b506001600160a01b0380831660805281166200010c57604051632d618d8160e21b815260040160405180910390fd5b60805160405163ca5eb5e160e01b81526001600160a01b0383811660048301529091169063ca5eb5e190602401600060405180830381600087803b1580156200015457600080fd5b505af115801562000169573d6000803e3d6000fd5b5050505050505050620001816200023260201b60201c565b60ff168360ff161015620001a8576040516301e9714b60e41b815260040160405180910390fd5b620001b5600684620002e0565b620001c290600a620003ff565b60a0525050506001600160a01b0390921660c05250620004109350505050565b600080546001600160a01b038381166001600160a01b0319831681178455604051919092169283917f8be0079c531659141344cd1fd0a4f28419497f9722a3daafe3b4186f6b6457e09190a35050565b600690565b80516001600160a01b03811681146200024f57600080fd5b919050565b6000806000606084860312156200026a57600080fd5b620002758462000237565b9250620002856020850162000237565b9150620002956040850162000237565b90509250925092565b600060208284031215620002b157600080fd5b815160ff81168114620002c357600080fd5b9392505050565b634e487b7160e01b600052601160045260246000fd5b60ff8281168282160390811115620002fc57620002fc620002ca565b92915050565b600181815b8085111562000343578160001904821115620003275762000327620002ca565b808516156200033557918102915b93841c939080029062000307565b509250929050565b6000826200035c57506001620002fc565b816200036b57506000620002fc565b81600181146200038457600281146200038f57620003af565b6001915050620002fc565b60ff841115620003a357620003a3620002ca565b50506001821b620002fc565b5060208310610133831016604e8410600b8410161715620003d4575081810a620002fc565b620003e0838362000302565b8060001904821115620003f757620003f7620002ca565b029392505050565b6000620002c360ff8416836200034b565b60805160a05160c0516131d56200049b600039600081816107ab01528181610eac01528181611d5a0152611f4301526000818161057501528181611ca101528181611d1d0152611e0d01526000818161041b01528181610982015281816113fe01528181611663015281816118f001528181611fa7015281816120e4015261219d01526131d56000f3fe6080604052600436106102255760003560e01c8063857749b011610123578063bb0b6a53116100ab578063d045a0dc1161006f578063d045a0dc14610749578063d42438851461075c578063f2fde38b1461077c578063fc0c546a1461079c578063ff7bd03d146107cf57600080fd5b8063bb0b6a53146106a8578063bc70b354146106d5578063bd815db0146106f5578063c7c7f5b314610708578063ca5eb5e11461072957600080fd5b8063a1de4c82116100f2578063a1de4c82146105ab578063ad991c151461061b578063b173a6061461063b578063b731ea0a14610668578063b98bd0701461068857600080fd5b8063857749b0146105295780638da5cb5b14610545578063963efcaa146105635780639f68b9641461059757600080fd5b806352ae2879116101b15780636fc1b31e116101755780636fc1b31e1461046b578063715018a61461048b57806374aa1c0d146104a05780637d25a05e146104ce57806382413eac1461050957600080fd5b806352ae2879146103825780635535d461146103955780635a0dfe4d146103c25780635e280f111461040957806361d7194b1461043d57600080fd5b8063156a0d0f116101f8578063156a0d0f146102d757806317442b70146102fe5780631f5e1334146103205780633400288b146103355780633b6f743b1461035557600080fd5b80630d35b4151461022a578063111ecdad1461026257806313137d651461029a578063134d4f25146102af575b600080fd5b34801561023657600080fd5b5061024a610245366004612221565b6107ef565b604051610259939291906122a5565b60405180910390f35b34801561026e57600080fd5b50600454610282906001600160a01b031681565b6040516001600160a01b039091168152602001610259565b6102ad6102a83660046123ad565b610980565b005b3480156102bb57600080fd5b506102c4600281565b60405161ffff9091168152602001610259565b3480156102e357600080fd5b506040805162b9270b60e21b81526001602082015201610259565b34801561030a57600080fd5b5060408051600181526002602082015201610259565b34801561032c57600080fd5b506102c4600181565b34801561034157600080fd5b506102ad610350366004612465565b610a40565b34801561036157600080fd5b5061037561037036600461249d565b610a56565b60405161025991906124ee565b34801561038e57600080fd5b5030610282565b3480156103a157600080fd5b506103b56103b0366004612517565b610abf565b604051610259919061254a565b3480156103ce57600080fd5b506103f96103dd366004612465565b63ffffffff919091166000908152600160205260409020541490565b6040519015158152602001610259565b34801561041557600080fd5b506102827f000000000000000000000000000000000000000000000000000000000000000081565b34801561044957600080fd5b5061045d61045836600461255d565b610b64565b604051908152602001610259565b34801561047757600080fd5b506102ad61048636600461257b565b610b95565b34801561049757600080fd5b506102ad610bf2565b3480156104ac57600080fd5b506104c06104bb36600461257b565b610c06565b6040516102599291906125d4565b3480156104da57600080fd5b506104f16104e9366004612465565b600092915050565b6040516001600160401b039091168152602001610259565b34801561051557600080fd5b506103f961052436600461262b565b610dc0565b34801561053557600080fd5b5060405160068152602001610259565b34801561055157600080fd5b506000546001600160a01b0316610282565b34801561056f57600080fd5b5061045d7f000000000000000000000000000000000000000000000000000000000000000081565b3480156105a357600080fd5b5060016103f9565b3480156105b757600080fd5b506105f46105c6366004612691565b6005602052600090815260409020805460018201546002909201546001600160a01b03909116919060ff1683565b604080516001600160a01b0390941684526020840192909252151590820152606001610259565b34801561062757600080fd5b506102ad610636366004612691565b610dd5565b34801561064757600080fd5b5061065b61065636600461257b565b610f2a565b60405161025991906126aa565b34801561067457600080fd5b50600254610282906001600160a01b031681565b34801561069457600080fd5b506102ad6106a3366004612701565b610f96565b3480156106b457600080fd5b5061045d6106c3366004612742565b60016020526000908152604090205481565b3480156106e157600080fd5b506103b56106f036600461275d565b610fb0565b6102ad610703366004612701565b611158565b61071b6107163660046127bd565b6112e2565b60405161025992919061282a565b34801561073557600080fd5b506102ad61074436600461257b565b6113d7565b6102ad6107573660046123ad565b61145d565b34801561076857600080fd5b506102ad61077736600461257b565b61148c565b34801561078857600080fd5b506102ad61079736600461257b565b6114e2565b3480156107a857600080fd5b507f0000000000000000000000000000000000000000000000000000000000000000610282565b3480156107db57600080fd5b506103f96107ea36600461287c565b611520565b60408051808201909152600080825260208201526060610822604051806040016040528060008152602001600081525090565b600080306001600160a01b031663fc0c546a6040518163ffffffff1660e01b8152600401602060405180830381865afa158015610863573d6000803e3d6000fd5b505050506040513d601f19601f820116820180604052508101906108879190612898565b6001600160a01b03166318160ddd6040518163ffffffff1660e01b8152600401602060405180830381865afa1580156108c4573d6000803e3d6000fd5b505050506040513d601f19601f820116820180604052508101906108e891906128b5565b6040805180820182528481526020808201849052825160008082529181019093529097509192509061093d565b6040805180820190915260008152606060208201528152602001906001900390816109155790505b509350600080610962604089013560608a013561095d60208c018c612742565b611556565b60408051808201909152918252602082015296989597505050505050565b7f00000000000000000000000000000000000000000000000000000000000000006001600160a01b031633146109d0576040516391ac5e4f60e01b81523360048201526024015b60405180910390fd5b602087018035906109ea906109e5908a612742565b611592565b14610a28576109fc6020880188612742565b60405163309afaf360e21b815263ffffffff9091166004820152602088013560248201526044016109c7565b610a37878787878787876115ce565b50505050505050565b610a48611735565b610a528282611762565b5050565b60408051808201909152600080825260208201526000610a866040850135606086013561095d6020880188612742565b915050600080610a9686846117b7565b9092509050610ab3610aab6020880188612742565b8383886118da565b93505050505b92915050565b600360209081526000928352604080842090915290825290208054610ae3906128e4565b80601f0160208091040260200160405190810160405280929190818152602001828054610b0f906128e4565b8015610b5c5780601f10610b3157610100808354040283529160200191610b5c565b820191906000526020600020905b815481529060010190602001808311610b3f57829003601f168201915b505050505081565b60066020528160005260406000208181548110610b8057600080fd5b90600052602060002001600091509150505481565b610b9d611735565b600480546001600160a01b0319166001600160a01b0383169081179091556040519081527ff0be4f1e87349231d80c36b33f9e8639658eeaf474014dee15a3e6a4d4414197906020015b60405180910390a150565b610bfa611735565b610c0460006119bb565b565b6001600160a01b0381166000908152600660209081526040808320805482518185028101850190935280835260609485949093929190830182828015610c6b57602002820191906000526020600020905b815481526020019060010190808311610c57575b5050835193945083925050506001600160401b03811115610c8e57610c8e6128ce565b604051908082528060200260200182016040528015610cb7578160200160208202803683370190505b509350806001600160401b03811115610cd257610cd26128ce565b604051908082528060200260200182016040528015610cfb578160200160208202803683370190505b5092506000805b82811015610db1576000848281518110610d1e57610d1e612918565b6020908102919091018101516000818152600590925260409091206002015490915060ff16610da85780878481518110610d5a57610d5a612918565b6020026020010181815250506005600082815260200190815260200160002060010154868481518110610d8f57610d8f612918565b602090810291909101015282610da481612944565b9350505b50600101610d02565b50808552808452505050915091565b6001600160a01b03811630145b949350505050565b610ddd611735565b600081815260056020526040902080546001600160a01b0316610e395760405162461bcd60e51b81526020600482015260146024820152732737b732bc34b9ba32b73a103a3930b739b332b960611b60448201526064016109c7565b600281015460ff1615610e815760405162461bcd60e51b815260206004820152601060248201526f105b1c9958591e481c99599d5b99195960821b60448201526064016109c7565b60028101805460ff19166001908117909155815490820154610ede916001600160a01b031690610ece7f000000000000000000000000000000000000000000000000000000000000000090565b6001600160a01b03169190611a0b565b805460018201546040519081526001600160a01b039091169083907f04f52f70a574c3facc8188d13efa4536b1ab3b9571e5ed36201886191c4686ce9060200160405180910390a35050565b6001600160a01b038116600090815260066020908152604091829020805483518184028101840190945280845260609392830182828015610f8a57602002820191906000526020600020905b815481526020019060010190808311610f76575b50505050509050919050565b610f9e611735565b610a52610fab82846129fe565b611a6f565b63ffffffff8416600090815260036020908152604080832061ffff87168452909152812080546060929190610fe4906128e4565b80601f0160208091040260200160405190810160405280929190818152602001828054611010906128e4565b801561105d5780601f106110325761010080835404028352916020019161105d565b820191906000526020600020905b81548152906001019060200180831161104057829003601f168201915b5050505050905080516000036110ad5783838080601f016020809104026020016040519081016040528093929190818152602001838380828437600092019190915250929450610dcd9350505050565b60008390036110bd579050610dcd565b6002831061113b5761110484848080601f016020809104026020016040519081016040528093929190818152602001838380828437600092019190915250611b7692505050565b806111128460028188612b13565b60405160200161112493929190612b3d565b604051602081830303815290604052915050610dcd565b8383604051639a6d49cd60e01b81526004016109c7929190612b8e565b60005b81811015611261573683838381811061117657611176612918565b90506020028101906111889190612ba2565b90506111bb61119a6020830183612742565b602083013563ffffffff919091166000908152600160205260409020541490565b6111c55750611259565b3063d045a0dc60c08301358360a08101356111e4610100830183612bc3565b6111f5610100890160e08a0161257b565b6112036101208a018a612bc3565b6040518963ffffffff1660e01b81526004016112259796959493929190612c1e565b6000604051808303818588803b15801561123e57600080fd5b505af1158015611252573d6000803e3d6000fd5b5050505050505b60010161115b565b50336001600160a01b0316638e9e70996040518163ffffffff1660e01b8152600401600060405180830381865afa1580156112a0573d6000803e3d6000fd5b505050506040513d6000823e601f3d908101601f191682016040526112c89190810190612ca4565b604051638351eea760e01b81526004016109c7919061254a565b6112ea6121c2565b6040805180820190915260008082526020820152611309858585611ba2565b815160408051606081018252338082528a8301356020808401828152600085870181815288825260058452878220965187546001600160a01b0319166001600160a01b03909116178755915160018088019190915591516002909601805460ff1916961515969096179095558385526006825285852080549182018155855293819020909301859055925192835294965092945090929183917f23e130dd4f559327be4dda1610ddd007df851f723ac83e1fbbaccd8d4d7ec5a0910160405180910390a3505b935093915050565b6113df611735565b60405163ca5eb5e160e01b81526001600160a01b0382811660048301527f0000000000000000000000000000000000000000000000000000000000000000169063ca5eb5e190602401600060405180830381600087803b15801561144257600080fd5b505af1158015611456573d6000803e3d6000fd5b5050505050565b33301461147d5760405163029a949d60e31b815260040160405180910390fd5b610a3787878787878787610a28565b611494611735565b600280546001600160a01b0319166001600160a01b0383169081179091556040519081527fd48d879cef83a1c0bdda516f27b13ddb1b3f8bbac1c9e1511bb2a659c242776090602001610be7565b6114ea611735565b6001600160a01b03811661151457604051631e4fbdf760e01b8152600060048201526024016109c7565b61151d816119bb565b50565b60006020820180359060019083906115389086612742565b63ffffffff1681526020810191909152604001600020541492915050565b60008061156285611c9d565b9150819050838110156113cf576040516371c4efed60e01b815260048101829052602481018590526044016109c7565b63ffffffff811660009081526001602052604081205480610ab95760405163f6ff4fb760e01b815263ffffffff841660048201526024016109c7565b60006115e06115dd8787611cd4565b90565b9050600061160c826115fa6115f58a8a611cf3565b611d16565b61160760208d018d612742565b611d4b565b905060288611156116d357600061164961162c60608c0160408d01612d11565b61163960208d018d612742565b846116448c8c611d89565b611dd4565b604051633e5ac80960e11b81529091506001600160a01b037f00000000000000000000000000000000000000000000000000000000000000001690637cb590129061169f9086908d906000908790600401612d2e565b600060405180830381600087803b1580156116b957600080fd5b505af11580156116cd573d6000803e3d6000fd5b50505050505b6001600160a01b038216887fefed6d3500546b29533b128a29e3a94d70788727f0507505ac12eaf2e578fd9c61170c60208d018d612742565b6040805163ffffffff9092168252602082018690520160405180910390a3505050505050505050565b6000546001600160a01b03163314610c045760405163118cdaa760e01b81523360048201526024016109c7565b63ffffffff8216600081815260016020908152604091829020849055815192835282018390527f238399d427b947898edb290f5ff0f9109849b1c3ba196a42e35f00c50a54b98b910160405180910390a15050565b606080600061181485602001356117cd86611e06565b6117da60a0890189612bc3565b8080601f016020809104026020016040519081016040528093929190818152602001838380828437600092019190915250611e3292505050565b909350905060008161182757600161182a565b60025b905061184a61183c6020880188612742565b826106f060808a018a612bc3565b6004549093506001600160a01b031680156118d05760405163043a78eb60e01b81526001600160a01b0382169063043a78eb9061188d9088908890600401612d69565b602060405180830381865afa1580156118aa573d6000803e3d6000fd5b505050506040513d601f19601f820116820180604052508101906118ce9190612d8e565b505b5050509250929050565b60408051808201909152600080825260208201527f00000000000000000000000000000000000000000000000000000000000000006001600160a01b031663ddc28c586040518060a001604052808863ffffffff16815260200161193d89611592565b8152602001878152602001868152602001851515815250306040518363ffffffff1660e01b8152600401611972929190612dab565b6040805180830381865afa15801561198e573d6000803e3d6000fd5b505050506040513d601f19601f820116820180604052508101906119b29190612e54565b95945050505050565b600080546001600160a01b038381166001600160a01b0319831681178455604051919092169283917f8be0079c531659141344cd1fd0a4f28419497f9722a3daafe3b4186f6b6457e09190a35050565b6040516001600160a01b03838116602483015260448201839052611a6a91859182169063a9059cbb906064015b604051602081830303815290604052915060e01b6020820180516001600160e01b038381831617835250505050611eac565b505050565b60005b8151811015611b4657611aa1828281518110611a9057611a90612918565b602002602001015160400151611b76565b818181518110611ab357611ab3612918565b60200260200101516040015160036000848481518110611ad557611ad5612918565b60200260200101516000015163ffffffff1663ffffffff1681526020019081526020016000206000848481518110611b0f57611b0f612918565b60200260200101516020015161ffff1661ffff1681526020019081526020016000209081611b3d9190612ec0565b50600101611a72565b507fbe4864a8e820971c0247f5992e2da559595f7bf076a21cb5928d443d2a13b67481604051610be79190612f7f565b600281015161ffff8116600314610a525781604051639a6d49cd60e01b81526004016109c7919061254a565b611baa6121c2565b6040805180820190915260008082526020820152600080611be133604089013560608a0135611bdc60208c018c612742565b611f23565b91509150600080611bf289846117b7565b9092509050611c1e611c0760208b018b612742565b8383611c18368d90038d018d61300a565b8b611f74565b60408051808201909152858152602080820186905282519298509096503391907f85496b760a4b7f8d66384b9df21b381f5d1b1e79f229a47aaf4c232edc2fe59a90611c6c908d018d612742565b6040805163ffffffff909216825260208201899052810187905260600160405180910390a350505050935093915050565b60007f0000000000000000000000000000000000000000000000000000000000000000611cca818461303c565b610ab9919061305e565b6000611ce36020828486612b13565b611cec91613075565b9392505050565b6000611d03602860208486612b13565b611d0c91613093565b60c01c9392505050565b6000610ab97f00000000000000000000000000000000000000000000000000000000000000006001600160401b03841661305e565b6000611d816001600160a01b037f0000000000000000000000000000000000000000000000000000000000000000168585611a0b565b509092915050565b6060611d988260288186612b13565b8080601f016020809104026020016040519081016040528093929190818152602001838380828437600092019190915250929695505050505050565b606084848484604051602001611ded94939291906130c3565b6040516020818303038152906040529050949350505050565b6000610ab97f00000000000000000000000000000000000000000000000000000000000000008361303c565b8051606090151580611e7b578484604051602001611e6792919091825260c01b6001600160c01b031916602082015260280190565b604051602081830303815290604052611ea2565b84843385604051602001611e929493929190613112565b6040516020818303038152906040525b9150935093915050565b600080602060008451602086016000885af180611ecf576040513d6000823e3d81fd5b50506000513d91508115611ee7578060011415611ef4565b6001600160a01b0384163b155b15611f1d57604051635274afe760e01b81526001600160a01b03851660048201526024016109c7565b50505050565b600080611f31858585611556565b9092509050611f6b6001600160a01b037f00000000000000000000000000000000000000000000000000000000000000001687308561207f565b94509492505050565b611f7c6121c2565b6000611f8b84600001516120b8565b602085015190915015611fa557611fa584602001516120e0565b7f00000000000000000000000000000000000000000000000000000000000000006001600160a01b0316632637a450826040518060a001604052808b63ffffffff168152602001611ff58c611592565b81526020018a815260200189815260200160008960200151111515815250866040518463ffffffff1660e01b8152600401612031929190612dab565b60806040518083038185885af115801561204f573d6000803e3d6000fd5b50505050506040513d601f19601f820116820180604052508101906120749190613155565b979650505050505050565b6040516001600160a01b038481166024830152838116604483015260648201839052611f1d9186918216906323b872dd90608401611a38565b60008134146120dc576040516304fb820960e51b81523460048201526024016109c7565b5090565b60007f00000000000000000000000000000000000000000000000000000000000000006001600160a01b031663e4fe1d946040518163ffffffff1660e01b8152600401602060405180830381865afa158015612140573d6000803e3d6000fd5b505050506040513d601f19601f820116820180604052508101906121649190612898565b90506001600160a01b03811661218d576040516329b99a9560e11b815260040160405180910390fd5b610a526001600160a01b038216337f00000000000000000000000000000000000000000000000000000000000000008561207f565b60405180606001604052806000801916815260200160006001600160401b03168152602001612204604051806040016040528060008152602001600081525090565b905290565b600060e0828403121561221b57600080fd5b50919050565b60006020828403121561223357600080fd5b81356001600160401b0381111561224957600080fd5b610dcd84828501612209565b60005b83811015612270578181015183820152602001612258565b50506000910152565b60008151808452612291816020860160208601612255565b601f01601f19169290920160200192915050565b8351815260208085015190820152600060a08201604060a0604085015281865180845260c08601915060c08160051b8701019350602080890160005b838110156123205788870360bf1901855281518051885283015183880187905261230d87890182612279565b97505093820193908201906001016122e1565b50508751606088015250505060208501516080850152509050610dcd565b60006060828403121561221b57600080fd5b60008083601f84011261236257600080fd5b5081356001600160401b0381111561237957600080fd5b60208301915083602082850101111561239157600080fd5b9250929050565b6001600160a01b038116811461151d57600080fd5b600080600080600080600060e0888a0312156123c857600080fd5b6123d2898961233e565b96506060880135955060808801356001600160401b03808211156123f557600080fd5b6124018b838c01612350565b909750955060a08a0135915061241682612398565b90935060c0890135908082111561242c57600080fd5b506124398a828b01612350565b989b979a50959850939692959293505050565b803563ffffffff8116811461246057600080fd5b919050565b6000806040838503121561247857600080fd5b6124818361244c565b946020939093013593505050565b801515811461151d57600080fd5b600080604083850312156124b057600080fd5b82356001600160401b038111156124c657600080fd5b6124d285828601612209565b92505060208301356124e38161248f565b809150509250929050565b815181526020808301519082015260408101610ab9565b803561ffff8116811461246057600080fd5b6000806040838503121561252a57600080fd5b6125338361244c565b915061254160208401612505565b90509250929050565b602081526000611cec6020830184612279565b6000806040838503121561257057600080fd5b823561248181612398565b60006020828403121561258d57600080fd5b8135611cec81612398565b60008151808452602080850194506020840160005b838110156125c9578151875295820195908201906001016125ad565b509495945050505050565b6040815260006125e76040830185612598565b82810360208481019190915284518083528582019282019060005b8181101561261e57845183529383019391830191600101612602565b5090979650505050505050565b60008060008060a0858703121561264157600080fd5b61264b868661233e565b935060608501356001600160401b0381111561266657600080fd5b61267287828801612350565b909450925050608085013561268681612398565b939692955090935050565b6000602082840312156126a357600080fd5b5035919050565b602081526000611cec6020830184612598565b60008083601f8401126126cf57600080fd5b5081356001600160401b038111156126e657600080fd5b6020830191508360208260051b850101111561239157600080fd5b6000806020838503121561271457600080fd5b82356001600160401b0381111561272a57600080fd5b612736858286016126bd565b90969095509350505050565b60006020828403121561275457600080fd5b611cec8261244c565b6000806000806060858703121561277357600080fd5b61277c8561244c565b935061278a60208601612505565b925060408501356001600160401b038111156127a557600080fd5b6127b187828801612350565b95989497509550505050565b600080600083850360808112156127d357600080fd5b84356001600160401b038111156127e957600080fd5b6127f587828801612209565b9450506040601f198201121561280a57600080fd5b50602084019150606084013561281f81612398565b809150509250925092565b600060c082019050835182526001600160401b0360208501511660208301526040840151612865604084018280518252602090810151910152565b5082516080830152602083015160a0830152611cec565b60006060828403121561288e57600080fd5b611cec838361233e565b6000602082840312156128aa57600080fd5b8151611cec81612398565b6000602082840312156128c757600080fd5b5051919050565b634e487b7160e01b600052604160045260246000fd5b600181811c908216806128f857607f821691505b60208210810361221b57634e487b7160e01b600052602260045260246000fd5b634e487b7160e01b600052603260045260246000fd5b634e487b7160e01b600052601160045260246000fd5b6000600182016129565761295661292e565b5060010190565b604051606081016001600160401b038111828210171561297f5761297f6128ce565b60405290565b604080519081016001600160401b038111828210171561297f5761297f6128ce565b604051601f8201601f191681016001600160401b03811182821017156129cf576129cf6128ce565b604052919050565b60006001600160401b038211156129f0576129f06128ce565b50601f01601f191660200190565b60006001600160401b0380841115612a1857612a186128ce565b8360051b6020612a298183016129a7565b868152918501918181019036841115612a4157600080fd5b865b84811015612b0757803586811115612a5b5760008081fd5b88016060368290031215612a6f5760008081fd5b612a7761295d565b612a808261244c565b8152612a8d868301612505565b8682015260408083013589811115612aa55760008081fd5b929092019136601f840112612aba5760008081fd5b8235612acd612ac8826129d7565b6129a7565b8181523689838701011115612ae25760008081fd5b818986018a830137600091810189019190915290820152845250918301918301612a43565b50979650505050505050565b60008085851115612b2357600080fd5b83861115612b3057600080fd5b5050820193919092039150565b60008451612b4f818460208901612255565b8201838582376000930192835250909392505050565b81835281816020850137506000828201602090810191909152601f909101601f19169091010190565b602081526000610dcd602083018486612b65565b6000823561013e19833603018112612bb957600080fd5b9190910192915050565b6000808335601e19843603018112612bda57600080fd5b8301803591506001600160401b03821115612bf457600080fd5b60200191503681900382131561239157600080fd5b6001600160401b038116811461151d57600080fd5b63ffffffff612c2c8961244c565b1681526020880135602082015260006040890135612c4981612c09565b6001600160401b03811660408401525087606083015260e06080830152612c7460e083018789612b65565b6001600160a01b03861660a084015282810360c0840152612c96818587612b65565b9a9950505050505050505050565b600060208284031215612cb657600080fd5b81516001600160401b03811115612ccc57600080fd5b8201601f81018413612cdd57600080fd5b8051612ceb612ac8826129d7565b818152856020838501011115612d0057600080fd5b6119b2826020830160208601612255565b600060208284031215612d2357600080fd5b8135611cec81612c09565b60018060a01b038516815283602082015261ffff83166040820152608060608201526000612d5f6080830184612279565b9695505050505050565b604081526000612d7c6040830185612279565b82810360208401526119b28185612279565b600060208284031215612da057600080fd5b8151611cec8161248f565b6040815263ffffffff8351166040820152602083015160608201526000604084015160a06080840152612de160e0840182612279565b90506060850151603f198483030160a0850152612dfe8282612279565b60809690960151151560c08501525050506001600160a01b039190911660209091015290565b600060408284031215612e3657600080fd5b612e3e612985565b9050815181526020820151602082015292915050565b600060408284031215612e6657600080fd5b611cec8383612e24565b601f821115611a6a576000816000526020600020601f850160051c81016020861015612e995750805b601f850160051c820191505b81811015612eb857828155600101612ea5565b505050505050565b81516001600160401b03811115612ed957612ed96128ce565b612eed81612ee784546128e4565b84612e70565b602080601f831160018114612f225760008415612f0a5750858301515b600019600386901b1c1916600185901b178555612eb8565b600085815260208120601f198616915b82811015612f5157888601518255948401946001909101908401612f32565b5085821015612f6f5787850151600019600388901b60f8161c191681555b5050505050600190811b01905550565b600060208083018184528085518083526040925060408601915060408160051b87010184880160005b83811015612ffc57888303603f190185528151805163ffffffff1684528781015161ffff16888501528601516060878501819052612fe881860183612279565b968901969450505090860190600101612fa8565b509098975050505050505050565b60006040828403121561301c57600080fd5b613024612985565b82358152602083013560208201528091505092915050565b60008261305957634e487b7160e01b600052601260045260246000fd5b500490565b8082028115828204841417610ab957610ab961292e565b80356020831015610ab957600019602084900360031b1b1692915050565b6001600160c01b031981358181169160088510156130bb5780818660080360031b1b83161692505b505092915050565b6001600160401b0360c01b8560c01b16815263ffffffff60e01b8460e01b16600882015282600c8201526000825161310281602c850160208701612255565b91909101602c0195945050505050565b8481526001600160401b0360c01b8460c01b16602082015282602882015260008251613145816048850160208701612255565b9190910160480195945050505050565b60006080828403121561316757600080fd5b61316f61295d565b82518152602083015161318181612c09565b60208201526131938460408501612e24565b6040820152939250505056fea26469706673582212201fe75e9457406f6f4ee8e4d2884fd45e5c36cd2dc7fbad240a747ad34e9e8b3664736f6c63430008180033",
  "linkReferences": {},
  "deployedLinkReferences": {}
}