{
  "_format": "hh-sol-artifact-1",
  "contractName": "MockERC20",
  "sourceName": "contracts/mocks/MockERC20.sol",
  "abi": [
    {
      "inputs": [
        {
          "internalType": "string",
          "name": "name",
          "type": "string"
        },
        {
          "internalType": "string",
          "name": "symbol",
          "type": "string"
        },
        {
          "internalType": "uint8",
          "name": "decimalsValue",
          "type": "uint8"
        }
      ],
      "stateMutability": "nonpayable",
      "type": "constructor"
    },
    {
      "inputs": [
        {
          "internalType": "address",
          "name": "spender",
          "type": "address"
        },
        {
          "internalType": "uint256",
          "name": "allowance",
          "type": "uint256"
        },
        {
          "internalType": "uint256",
          "name": "needed",
          "type": "uint256"
        }
      ],
      "name": "ERC20InsufficientAllowance",
      "type": "error"
    },
    {
      "inputs": [
        {
          "internalType": "address",
          "name": "sender",
          "type": "address"
        },
        {
          "internalType": "uint256",
          "name": "balance",
          "type": "uint256"
        },
        {
          "internalType": "uint256",
          "name": "needed",
          "type": "uint256"
        }
      ],
      "name": "ERC20InsufficientBalance",
      "type": "error"
    },
    {
      "inputs": [
        {
          "internalType": "address",
          "name": "approver",
          "type": "address"
        }
      ],
      "name": "ERC20InvalidApprover",
      "type": "error"
    },
    {
      "inputs": [
        {
          "internalType": "address",
          "name": "receiver",
          "type": "address"
        }
      ],
      "name": "ERC20InvalidReceiver",
      "type": "error"
    },
    {
      "inputs": [
        {
          "internalType": "address",
          "name": "sender",
          "type": "address"
        }
      ],
      "name": "ERC20InvalidSender",
      "type": "error"
    },
    {
      "inputs": [
        {
          "internalType": "address",
          "name": "spender",
          "type": "address"
        }
      ],
      "name": "ERC20InvalidSpender",
      "type": "error"
    },
    {
      "anonymous": false,
      "inputs": [
        {
          "indexed": true,
          "internalType": "address",
          "name": "owner",
          "type": "address"
        },
        {
          "indexed": true,
          "internalType": "address",
          "name": "spender",
          "type": "address"
        },
        {
          "indexed": false,
          "internalType": "uint256",
          "name": "value",
          "type": "uint256"
        }
      ],
      "name": "Approval",
      "type": "event"
    },
    {
      "anonymous": false,
      "inputs": [
        {
          "indexed": true,
          "internalType": "address",
          "name": "from",
          "type": "address"
        },
        {
          "indexed": true,
          "internalType": "address",
          "name": "to",
          "type": "address"
        },
        {
          "indexed": false,
          "internalType": "uint256",
          "name": "value",
          "type": "uint256"
        }
      ],
      "name": "Transfer",
      "type": "event"
    },
    {
      "inputs": [
        {
          "internalType": "address",
          "name": "owner",
          "type": "address"
        },
        {
          "internalType": "address",
          "name": "spender",
          "type": "address"
        }
      ],
      "name": "allowance",
      "outputs": [
        {
          "internalType": "uint256",
          "name": "",
          "type": "uint256"
        }
      ],
      "stateMutability": "view",
      "type": "function"
    },
    {
      "inputs": [
        {
          "internalType": "address",
          "name": "spender",
          "type": "address"
        },
        {
          "internalType": "uint256",
          "name": "value",
          "type": "uint256"
        }
      ],
      "name": "approve",
      "outputs": [
        {
          "internalType": "bool",
          "name": "",
          "type": "bool"
        }
      ],
      "stateMutability": "nonpayable",
      "type": "function"
    },
    {
      "inputs": [
        {
          "internalType": "address",
          "name": "account",
          "type": "address"
        }
      ],
      "name": "balanceOf",
      "outputs": [
        {
          "internalType": "uint256",
          "name": "",
          "type": "uint256"
        }
      ],
      "stateMutability": "view",
      "type": "function"
    },
    {
      "inputs": [
        {
          "internalType": "address",
          "name": "from",
          "type": "address"
        },
        {
          "internalType": "uint256",
          "name": "amount",
          "type": "uint256"
        }
      ],
      "name": "burn",
      "outputs": [],
      "stateMutability": "nonpayable",
      "type": "function"
    },
    {
      "inputs": [],
      "name": "decimals",
      "outputs": [
        {
          "internalType": "uint8",
          "name": "",
          "type": "uint8"
        }
      ],
      "stateMutability": "view",
      "type": "function"
    },
    {
      "inputs": [
        {
          "internalType": "uint8",
          "name": "precision",
          "type": "uint8"
        }
      ],
      "name": "getTotalSupplyWithPrecision",
      "outputs": [
        {
          "internalType": "uint256",
          "name": "",
          "type": "uint256"
        }
      ],
      "stateMutability": "view",
      "type": "function"
    },
    {
      "inputs": [
        {
          "internalType": "address",
          "name": "to",
          "type": "address"
        },
        {
          "internalType": "uint256",
          "name": "amount",
          "type": "uint256"
        }
      ],
      "name": "mint",
      "outputs": [],
      "stateMutability": "nonpayable",
      "type": "function"
    },
    {
      "inputs": [],
      "name": "name",
      "outputs": [
        {
          "internalType": "string",
          "name": "",
          "type": "string"
        }
      ],
      "stateMutability": "view",
      "type": "function"
    },
    {
      "inputs": [],
      "name": "symbol",
      "outputs": [
        {
          "internalType": "string",
          "name": "",
          "type": "string"
        }
      ],
      "stateMutability": "view",
      "type": "function"
    },
    {
      "inputs": [],
      "name": "totalSupply",
      "outputs": [
        {
          "internalType": "uint256",
          "name": "",
          "type": "uint256"
        }
      ],
      "stateMutability": "view",
      "type": "function"
    },
    {
      "inputs": [
        {
          "internalType": "address",
          "name": "to",
          "type": "address"
        },
        {
          "internalType": "uint256",
          "name": "value",
          "type": "uint256"
        }
      ],
      "name": "transfer",
      "outputs": [
        {
          "internalType": "bool",
          "name": "",
          "type": "bool"
        }
      ],
      "stateMutability": "nonpayable",
      "type": "function"
    },
    {
      "inputs": [
        {
          "internalType": "address",
          "name": "from",
          "type": "address"
        },
        {
          "internalType": "address",
          "name": "to",
          "type": "address"
        },
        {
          "internalType": "uint256",
          "name": "value",
          "type": "uint256"
        }
      ],
      "name": "transferFrom",
      "outputs": [
        {
          "internalType": "bool",
          "name": "",
          "type": "bool"
        }
      ],
      "stateMutability": "nonpayable",
      "type": "function"
    }
  ],
  "bytecode": "0x60806040523480156200001157600080fd5b5060405162000cc038038062000cc083398101604081905262000034916200013c565b8282600362000044838262000252565b50600462000053828262000252565b50506005805460ff191660ff9390931692909217909155506200031e915050565b634e487b7160e01b600052604160045260246000fd5b600082601f8301126200009c57600080fd5b81516001600160401b0380821115620000b957620000b962000074565b604051601f8301601f19908116603f01168101908282118183101715620000e457620000e462000074565b81604052838152602092508660208588010111156200010257600080fd5b600091505b8382101562000126578582018301518183018401529082019062000107565b6000602085830101528094505050505092915050565b6000806000606084860312156200015257600080fd5b83516001600160401b03808211156200016a57600080fd5b62000178878388016200008a565b945060208601519150808211156200018f57600080fd5b506200019e868287016200008a565b925050604084015160ff81168114620001b657600080fd5b809150509250925092565b600181811c90821680620001d657607f821691505b602082108103620001f757634e487b7160e01b600052602260045260246000fd5b50919050565b601f8211156200024d576000816000526020600020601f850160051c81016020861015620002285750805b601f850160051c820191505b81811015620002495782815560010162000234565b5050505b505050565b81516001600160401b038111156200026e576200026e62000074565b62000286816200027f8454620001c1565b84620001fd565b602080601f831160018114620002be5760008415620002a55750858301515b600019600386901b1c1916600185901b17855562000249565b600085815260208120601f198616915b82811015620002ef57888601518255948401946001909101908401620002ce565b50858210156200030e5787850151600019600388901b60f8161c191681555b5050505050600190811b01905550565b610992806200032e6000396000f3fe608060405234801561001057600080fd5b50600436106100b45760003560e01c806370a082311161007157806370a082311461014957806395d89b41146101725780639dc29fac1461017a578063a9059cbb1461018d578063dd62ed3e146101a0578063ed09c8ca146101d957600080fd5b806306fdde03146100b9578063095ea7b3146100d757806318160ddd146100fa57806323b872dd1461010c578063313ce5671461011f57806340c10f1914610134575b600080fd5b6100c16101ec565b6040516100ce9190610682565b60405180910390f35b6100ea6100e53660046106ed565b61027e565b60405190151581526020016100ce565b6002545b6040519081526020016100ce565b6100ea61011a366004610717565b610298565b60055460405160ff90911681526020016100ce565b6101476101423660046106ed565b6102bc565b005b6100fe610157366004610753565b6001600160a01b031660009081526020819052604090205490565b6100c16102ca565b6101476101883660046106ed565b6102d9565b6100ea61019b3660046106ed565b6102e3565b6100fe6101ae366004610775565b6001600160a01b03918216600090815260016020908152604080832093909416825291909152205490565b6100fe6101e73660046107a8565b6102f1565b6060600380546101fb906107cb565b80601f0160208091040260200160405190810160405280929190818152602001828054610227906107cb565b80156102745780601f1061024957610100808354040283529160200191610274565b820191906000526020600020905b81548152906001019060200180831161025757829003601f168201915b5050505050905090565b60003361028c818585610322565b60019150505b92915050565b6000336102a6858285610334565b6102b18585856103b8565b506001949350505050565b6102c68282610417565b5050565b6060600480546101fb906107cb565b6102c6828261044d565b60003361028c8185856103b8565b60008161030060055460ff1690565b61030a919061081b565b61031590600a610918565b6002546102929190610927565b61032f8383836001610483565b505050565b6001600160a01b038381166000908152600160209081526040808320938616835292905220546000198110156103b257818110156103a357604051637dc7a0d960e11b81526001600160a01b038416600482015260248101829052604481018390526064015b60405180910390fd5b6103b284848484036000610483565b50505050565b6001600160a01b0383166103e257604051634b637e8f60e11b81526000600482015260240161039a565b6001600160a01b03821661040c5760405163ec442f0560e01b81526000600482015260240161039a565b61032f838383610558565b6001600160a01b0382166104415760405163ec442f0560e01b81526000600482015260240161039a565b6102c660008383610558565b6001600160a01b03821661047757604051634b637e8f60e11b81526000600482015260240161039a565b6102c682600083610558565b6001600160a01b0384166104ad5760405163e602df0560e01b81526000600482015260240161039a565b6001600160a01b0383166104d757604051634a1406b160e11b81526000600482015260240161039a565b6001600160a01b03808516600090815260016020908152604080832093871683529290522082905580156103b257826001600160a01b0316846001600160a01b03167f8c5be1e5ebec7d5bd14f71427d1e84f3dd0314c0f7b2291e5b200ac8c7c3b9258460405161054a91815260200190565b60405180910390a350505050565b6001600160a01b0383166105835780600260008282546105789190610949565b909155506105f59050565b6001600160a01b038316600090815260208190526040902054818110156105d65760405163391434e360e21b81526001600160a01b0385166004820152602481018290526044810183905260640161039a565b6001600160a01b03841660009081526020819052604090209082900390555b6001600160a01b03821661061157600280548290039055610630565b6001600160a01b03821660009081526020819052604090208054820190555b816001600160a01b0316836001600160a01b03167fddf252ad1be2c89b69c2b068fc378daa952ba7f163c4a11628f55a4df523b3ef8360405161067591815260200190565b60405180910390a3505050565b60006020808352835180602085015260005b818110156106b057858101830151858201604001528201610694565b506000604082860101526040601f19601f8301168501019250505092915050565b80356001600160a01b03811681146106e857600080fd5b919050565b6000806040838503121561070057600080fd5b610709836106d1565b946020939093013593505050565b60008060006060848603121561072c57600080fd5b610735846106d1565b9250610743602085016106d1565b9150604084013590509250925092565b60006020828403121561076557600080fd5b61076e826106d1565b9392505050565b6000806040838503121561078857600080fd5b610791836106d1565b915061079f602084016106d1565b90509250929050565b6000602082840312156107ba57600080fd5b813560ff8116811461076e57600080fd5b600181811c908216806107df57607f821691505b6020821081036107ff57634e487b7160e01b600052602260045260246000fd5b50919050565b634e487b7160e01b600052601160045260246000fd5b60ff828116828216039081111561029257610292610805565b600181815b8085111561086f57816000190482111561085557610855610805565b8085161561086257918102915b93841c9390800290610839565b509250929050565b60008261088657506001610292565b8161089357506000610292565b81600181146108a957600281146108b3576108cf565b6001915050610292565b60ff8411156108c4576108c4610805565b50506001821b610292565b5060208310610133831016604e8410600b84101617156108f2575081810a610292565b6108fc8383610834565b806000190482111561091057610910610805565b029392505050565b600061076e60ff841683610877565b60008261094457634e487b7160e01b600052601260045260246000fd5b500490565b808201808211156102925761029261080556fea2646970667358221220059e4562f327576fd73a956950bb06e033b24af39cf1051f92302350d1a7fb3564736f6c63430008160033",
  "linkReferences": {},
  "deployedLinkReferences": {}
}