{
  "_format": "hh-sol-artifact-1",
  "contractName": "MyOFT",
  "sourceName": "contracts/MyOFT.sol",
  "abi": [
    {
      "inputs": [
        {
          "internalType": "string",
          "name": "_name",
          "type": "string"
        },
        {
          "internalType": "string",
          "name": "_symbol",
          "type": "string"
        },
        {
          "internalType": "address",
          "name": "_lzEndpoint",
          "type": "address"
        },
        {
          "internalType": "address",
          "name": "_delegate",
          "type": "address"
        }
      ],
      "stateMutability": "nonpayable",
      "type": "constructor"
    },
    {
      "inputs": [
        {
          "internalType": "address",
          "name": "spender",
          "type": "address"
        },
        {
          "internalType": "uint256",
          "name": "allowance",
          "type": "uint256"
        },
        {
          "internalType": "uint256",
          "name": "needed",
          "type": "uint256"
        }
      ],
      "name": "ERC20InsufficientAllowance",
      "type": "error"
    },
    {
      "inputs": [
        {
          "internalType": "address",
          "name": "sender",
          "type": "address"
        },
        {
          "internalType": "uint256",
          "name": "balance",
          "type": "uint256"
        },
        {
          "internalType": "uint256",
          "name": "needed",
          "type": "uint256"
        }
      ],
      "name": "ERC20InsufficientBalance",
      "type": "error"
    },
    {
      "inputs": [
        {
          "internalType": "address",
          "name": "approver",
          "type": "address"
        }
      ],
      "name": "ERC20InvalidApprover",
      "type": "error"
    },
    {
      "inputs": [
        {
          "internalType": "address",
          "name": "receiver",
          "type": "address"
        }
      ],
      "name": "ERC20InvalidReceiver",
      "type": "error"
    },
    {
      "inputs": [
        {
          "internalType": "address",
          "name": "sender",
          "type": "address"
        }
      ],
      "name": "ERC20InvalidSender",
      "type": "error"
    },
    {
      "inputs": [
        {
          "internalType": "address",
          "name": "spender",
          "type": "address"
        }
      ],
      "name": "ERC20InvalidSpender",
      "type": "error"
    },
    {
      "inputs": [],
      "name": "InvalidDelegate",
      "type": "error"
    },
    {
      "inputs": [],
      "name": "InvalidEndpointCall",
      "type": "error"
    },
    {
      "inputs": [],
      "name": "InvalidLocalDecimals",
      "type": "error"
    },
    {
      "inputs": [
        {
          "internalType": "bytes",
          "name": "options",
          "type": "bytes"
        }
      ],
      "name": "InvalidOptions",
      "type": "error"
    },
    {
      "inputs": [],
      "name": "LzTokenUnavailable",
      "type": "error"
    },
    {
      "inputs": [
        {
          "internalType": "uint32",
          "name": "eid",
          "type": "uint32"
        }
      ],
      "name": "NoPeer",
      "type": "error"
    },
    {
      "inputs": [
        {
          "internalType": "uint256",
          "name": "msgValue",
          "type": "uint256"
        }
      ],
      "name": "NotEnoughNative",
      "type": "error"
    },
    {
      "inputs": [
        {
          "internalType": "address",
          "name": "addr",
          "type": "address"
        }
      ],
      "name": "OnlyEndpoint",
      "type": "error"
    },
    {
      "inputs": [
        {
          "internalType": "uint32",
          "name": "eid",
          "type": "uint32"
        },
        {
          "internalType": "bytes32",
          "name": "sender",
          "type": "bytes32"
        }
      ],
      "name": "OnlyPeer",
      "type": "error"
    },
    {
      "inputs": [],
      "name": "OnlySelf",
      "type": "error"
    },
    {
      "inputs": [
        {
          "internalType": "address",
          "name": "owner",
          "type": "address"
        }
      ],
      "name": "OwnableInvalidOwner",
      "type": "error"
    },
    {
      "inputs": [
        {
          "internalType": "address",
          "name": "account",
          "type": "address"
        }
      ],
      "name": "OwnableUnauthorizedAccount",
      "type": "error"
    },
    {
      "inputs": [
        {
          "internalType": "address",
          "name": "token",
          "type": "address"
        }
      ],
      "name": "SafeERC20FailedOperation",
      "type": "error"
    },
    {
      "inputs": [
        {
          "internalType": "bytes",
          "name": "result",
          "type": "bytes"
        }
      ],
      "name": "SimulationResult",
      "type": "error"
    },
    {
      "inputs": [
        {
          "internalType": "uint256",
          "name": "amountLD",
          "type": "uint256"
        },
        {
          "internalType": "uint256",
          "name": "minAmountLD",
          "type": "uint256"
        }
      ],
      "name": "SlippageExceeded",
      "type": "error"
    },
    {
      "anonymous": false,
      "inputs": [
        {
          "indexed": true,
          "internalType": "address",
          "name": "owner",
          "type": "address"
        },
        {
          "indexed": true,
          "internalType": "address",
          "name": "spender",
          "type": "address"
        },
        {
          "indexed": false,
          "internalType": "uint256",
          "name": "value",
          "type": "uint256"
        }
      ],
      "name": "Approval",
      "type": "event"
    },
    {
      "anonymous": false,
      "inputs": [
        {
          "components": [
            {
              "internalType": "uint32",
              "name": "eid",
              "type": "uint32"
            },
            {
              "internalType": "uint16",
              "name": "msgType",
              "type": "uint16"
            },
            {
              "internalType": "bytes",
              "name": "options",
              "type": "bytes"
            }
          ],
          "indexed": false,
          "internalType": "struct EnforcedOptionParam[]",
          "name": "_enforcedOptions",
          "type": "tuple[]"
        }
      ],
      "name": "EnforcedOptionSet",
      "type": "event"
    },
    {
      "anonymous": false,
      "inputs": [
        {
          "indexed": false,
          "internalType": "address",
          "name": "inspector",
          "type": "address"
        }
      ],
      "name": "MsgInspectorSet",
      "type": "event"
    },
    {
      "anonymous": false,
      "inputs": [
        {
          "indexed": true,
          "internalType": "bytes32",
          "name": "guid",
          "type": "bytes32"
        },
        {
          "indexed": false,
          "internalType": "uint32",
          "name": "srcEid",
          "type": "uint32"
        },
        {
          "indexed": true,
          "internalType": "address",
          "name": "toAddress",
          "type": "address"
        },
        {
          "indexed": false,
          "internalType": "uint256",
          "name": "amountReceivedLD",
          "type": "uint256"
        }
      ],
      "name": "OFTReceived",
      "type": "event"
    },
    {
      "anonymous": false,
      "inputs": [
        {
          "indexed": true,
          "internalType": "bytes32",
          "name": "guid",
          "type": "bytes32"
        },
        {
          "indexed": false,
          "internalType": "uint32",
          "name": "dstEid",
          "type": "uint32"
        },
        {
          "indexed": true,
          "internalType": "address",
          "name": "fromAddress",
          "type": "address"
        },
        {
          "indexed": false,
          "internalType": "uint256",
          "name": "amountSentLD",
          "type": "uint256"
        },
        {
          "indexed": false,
          "internalType": "uint256",
          "name": "amountReceivedLD",
          "type": "uint256"
        }
      ],
      "name": "OFTSent",
      "type": "event"
    },
    {
      "anonymous": false,
      "inputs": [
        {
          "indexed": true,
          "internalType": "address",
          "name": "previousOwner",
          "type": "address"
        },
        {
          "indexed": true,
          "internalType": "address",
          "name": "newOwner",
          "type": "address"
        }
      ],
      "name": "OwnershipTransferred",
      "type": "event"
    },
    {
      "anonymous": false,
      "inputs": [
        {
          "indexed": false,
          "internalType": "uint32",
          "name": "eid",
          "type": "uint32"
        },
        {
          "indexed": false,
          "internalType": "bytes32",
          "name": "peer",
          "type": "bytes32"
        }
      ],
      "name": "PeerSet",
      "type": "event"
    },
    {
      "anonymous": false,
      "inputs": [
        {
          "indexed": false,
          "internalType": "address",
          "name": "preCrimeAddress",
          "type": "address"
        }
      ],
      "name": "PreCrimeSet",
      "type": "event"
    },
    {
      "anonymous": false,
      "inputs": [
        {
          "indexed": true,
          "internalType": "address",
          "name": "from",
          "type": "address"
        },
        {
          "indexed": true,
          "internalType": "address",
          "name": "to",
          "type": "address"
        },
        {
          "indexed": false,
          "internalType": "uint256",
          "name": "value",
          "type": "uint256"
        }
      ],
      "name": "Transfer",
      "type": "event"
    },
    {
      "stateMutability": "payable",
      "type": "fallback"
    },
    {
      "inputs": [],
      "name": "SEND",
      "outputs": [
        {
          "internalType": "uint16",
          "name": "",
          "type": "uint16"
        }
      ],
      "stateMutability": "view",
      "type": "function"
    },
    {
      "inputs": [],
      "name": "SEND_AND_CALL",
      "outputs": [
        {
          "internalType": "uint16",
          "name": "",
          "type": "uint16"
        }
      ],
      "stateMutability": "view",
      "type": "function"
    },
    {
      "inputs": [
        {
          "components": [
            {
              "internalType": "uint32",
              "name": "srcEid",
              "type": "uint32"
            },
            {
              "internalType": "bytes32",
              "name": "sender",
              "type": "bytes32"
            },
            {
              "internalType": "uint64",
              "name": "nonce",
              "type": "uint64"
            }
          ],
          "internalType": "struct Origin",
          "name": "origin",
          "type": "tuple"
        }
      ],
      "name": "allowInitializePath",
      "outputs": [
        {
          "internalType": "bool",
          "name": "",
          "type": "bool"
        }
      ],
      "stateMutability": "view",
      "type": "function"
    },
    {
      "inputs": [
        {
          "internalType": "address",
          "name": "owner",
          "type": "address"
        },
        {
          "internalType": "address",
          "name": "spender",
          "type": "address"
        }
      ],
      "name": "allowance",
      "outputs": [
        {
          "internalType": "uint256",
          "name": "",
          "type": "uint256"
        }
      ],
      "stateMutability": "view",
      "type": "function"
    },
    {
      "inputs": [],
      "name": "approvalRequired",
      "outputs": [
        {
          "internalType": "bool",
          "name": "",
          "type": "bool"
        }
      ],
      "stateMutability": "pure",
      "type": "function"
    },
    {
      "inputs": [
        {
          "internalType": "address",
          "name": "spender",
          "type": "address"
        },
        {
          "internalType": "uint256",
          "name": "value",
          "type": "uint256"
        }
      ],
      "name": "approve",
      "outputs": [
        {
          "internalType": "bool",
          "name": "",
          "type": "bool"
        }
      ],
      "stateMutability": "nonpayable",
      "type": "function"
    },
    {
      "inputs": [
        {
          "internalType": "address",
          "name": "account",
          "type": "address"
        }
      ],
      "name": "balanceOf",
      "outputs": [
        {
          "internalType": "uint256",
          "name": "",
          "type": "uint256"
        }
      ],
      "stateMutability": "view",
      "type": "function"
    },
    {
      "inputs": [
        {
          "internalType": "address",
          "name": "_from",
          "type": "address"
        },
        {
          "internalType": "uint256",
          "name": "_amount",
          "type": "uint256"
        }
      ],
      "name": "burn",
      "outputs": [],
      "stateMutability": "nonpayable",
      "type": "function"
    },
    {
      "inputs": [
        {
          "internalType": "uint32",
          "name": "_eid",
          "type": "uint32"
        },
        {
          "internalType": "uint16",
          "name": "_msgType",
          "type": "uint16"
        },
        {
          "internalType": "bytes",
          "name": "_extraOptions",
          "type": "bytes"
        }
      ],
      "name": "combineOptions",
      "outputs": [
        {
          "internalType": "bytes",
          "name": "",
          "type": "bytes"
        }
      ],
      "stateMutability": "view",
      "type": "function"
    },
    {
      "inputs": [],
      "name": "decimalConversionRate",
      "outputs": [
        {
          "internalType": "uint256",
          "name": "",
          "type": "uint256"
        }
      ],
      "stateMutability": "view",
      "type": "function"
    },
    {
      "inputs": [],
      "name": "decimals",
      "outputs": [
        {
          "internalType": "uint8",
          "name": "",
          "type": "uint8"
        }
      ],
      "stateMutability": "view",
      "type": "function"
    },
    {
      "inputs": [],
      "name": "endpoint",
      "outputs": [
        {
          "internalType": "contract ILayerZeroEndpointV2",
          "name": "",
          "type": "address"
        }
      ],
      "stateMutability": "view",
      "type": "function"
    },
    {
      "inputs": [
        {
          "internalType": "uint32",
          "name": "eid",
          "type": "uint32"
        },
        {
          "internalType": "uint16",
          "name": "msgType",
          "type": "uint16"
        }
      ],
      "name": "enforcedOptions",
      "outputs": [
        {
          "internalType": "bytes",
          "name": "enforcedOption",
          "type": "bytes"
        }
      ],
      "stateMutability": "view",
      "type": "function"
    },
    {
      "inputs": [
        {
          "components": [
            {
              "internalType": "uint32",
              "name": "srcEid",
              "type": "uint32"
            },
            {
              "internalType": "bytes32",
              "name": "sender",
              "type": "bytes32"
            },
            {
              "internalType": "uint64",
              "name": "nonce",
              "type": "uint64"
            }
          ],
          "internalType": "struct Origin",
          "name": "",
          "type": "tuple"
        },
        {
          "internalType": "bytes",
          "name": "",
          "type": "bytes"
        },
        {
          "internalType": "address",
          "name": "_sender",
          "type": "address"
        }
      ],
      "name": "isComposeMsgSender",
      "outputs": [
        {
          "internalType": "bool",
          "name": "",
          "type": "bool"
        }
      ],
      "stateMutability": "view",
      "type": "function"
    },
    {
      "inputs": [
        {
          "internalType": "uint32",
          "name": "_eid",
          "type": "uint32"
        },
        {
          "internalType": "bytes32",
          "name": "_peer",
          "type": "bytes32"
        }
      ],
      "name": "isPeer",
      "outputs": [
        {
          "internalType": "bool",
          "name": "",
          "type": "bool"
        }
      ],
      "stateMutability": "view",
      "type": "function"
    },
    {
      "inputs": [
        {
          "components": [
            {
              "internalType": "uint32",
              "name": "srcEid",
              "type": "uint32"
            },
            {
              "internalType": "bytes32",
              "name": "sender",
              "type": "bytes32"
            },
            {
              "internalType": "uint64",
              "name": "nonce",
              "type": "uint64"
            }
          ],
          "internalType": "struct Origin",
          "name": "_origin",
          "type": "tuple"
        },
        {
          "internalType": "bytes32",
          "name": "_guid",
          "type": "bytes32"
        },
        {
          "internalType": "bytes",
          "name": "_message",
          "type": "bytes"
        },
        {
          "internalType": "address",
          "name": "_executor",
          "type": "address"
        },
        {
          "internalType": "bytes",
          "name": "_extraData",
          "type": "bytes"
        }
      ],
      "name": "lzReceive",
      "outputs": [],
      "stateMutability": "payable",
      "type": "function"
    },
    {
      "inputs": [
        {
          "components": [
            {
              "components": [
                {
                  "internalType": "uint32",
                  "name": "srcEid",
                  "type": "uint32"
                },
                {
                  "internalType": "bytes32",
                  "name": "sender",
                  "type": "bytes32"
                },
                {
                  "internalType": "uint64",
                  "name": "nonce",
                  "type": "uint64"
                }
              ],
              "internalType": "struct Origin",
              "name": "origin",
              "type": "tuple"
            },
            {
              "internalType": "uint32",
              "name": "dstEid",
              "type": "uint32"
            },
            {
              "internalType": "address",
              "name": "receiver",
              "type": "address"
            },
            {
              "internalType": "bytes32",
              "name": "guid",
              "type": "bytes32"
            },
            {
              "internalType": "uint256",
              "name": "value",
              "type": "uint256"
            },
            {
              "internalType": "address",
              "name": "executor",
              "type": "address"
            },
            {
              "internalType": "bytes",
              "name": "message",
              "type": "bytes"
            },
            {
              "internalType": "bytes",
              "name": "extraData",
              "type": "bytes"
            }
          ],
          "internalType": "struct InboundPacket[]",
          "name": "_packets",
          "type": "tuple[]"
        }
      ],
      "name": "lzReceiveAndRevert",
      "outputs": [],
      "stateMutability": "payable",
      "type": "function"
    },
    {
      "inputs": [
        {
          "components": [
            {
              "internalType": "uint32",
              "name": "srcEid",
              "type": "uint32"
            },
            {
              "internalType": "bytes32",
              "name": "sender",
              "type": "bytes32"
            },
            {
              "internalType": "uint64",
              "name": "nonce",
              "type": "uint64"
            }
          ],
          "internalType": "struct Origin",
          "name": "_origin",
          "type": "tuple"
        },
        {
          "internalType": "bytes32",
          "name": "_guid",
          "type": "bytes32"
        },
        {
          "internalType": "bytes",
          "name": "_message",
          "type": "bytes"
        },
        {
          "internalType": "address",
          "name": "_executor",
          "type": "address"
        },
        {
          "internalType": "bytes",
          "name": "_extraData",
          "type": "bytes"
        }
      ],
      "name": "lzReceiveSimulate",
      "outputs": [],
      "stateMutability": "payable",
      "type": "function"
    },
    {
      "inputs": [
        {
          "internalType": "address",
          "name": "_to",
          "type": "address"
        },
        {
          "internalType": "uint256",
          "name": "_amount",
          "type": "uint256"
        }
      ],
      "name": "mint",
      "outputs": [],
      "stateMutability": "nonpayable",
      "type": "function"
    },
    {
      "inputs": [],
      "name": "msgInspector",
      "outputs": [
        {
          "internalType": "address",
          "name": "",
          "type": "address"
        }
      ],
      "stateMutability": "view",
      "type": "function"
    },
    {
      "inputs": [],
      "name": "name",
      "outputs": [
        {
          "internalType": "string",
          "name": "",
          "type": "string"
        }
      ],
      "stateMutability": "view",
      "type": "function"
    },
    {
      "inputs": [
        {
          "internalType": "uint32",
          "name": "",
          "type": "uint32"
        },
        {
          "internalType": "bytes32",
          "name": "",
          "type": "bytes32"
        }
      ],
      "name": "nextNonce",
      "outputs": [
        {
          "internalType": "uint64",
          "name": "nonce",
          "type": "uint64"
        }
      ],
      "stateMutability": "view",
      "type": "function"
    },
    {
      "inputs": [],
      "name": "oApp",
      "outputs": [
        {
          "internalType": "address",
          "name": "",
          "type": "address"
        }
      ],
      "stateMutability": "view",
      "type": "function"
    },
    {
      "inputs": [],
      "name": "oAppVersion",
      "outputs": [
        {
          "internalType": "uint64",
          "name": "senderVersion",
          "type": "uint64"
        },
        {
          "internalType": "uint64",
          "name": "receiverVersion",
          "type": "uint64"
        }
      ],
      "stateMutability": "pure",
      "type": "function"
    },
    {
      "inputs": [],
      "name": "oftVersion",
      "outputs": [
        {
          "internalType": "bytes4",
          "name": "interfaceId",
          "type": "bytes4"
        },
        {
          "internalType": "uint64",
          "name": "version",
          "type": "uint64"
        }
      ],
      "stateMutability": "pure",
      "type": "function"
    },
    {
      "inputs": [],
      "name": "owner",
      "outputs": [
        {
          "internalType": "address",
          "name": "",
          "type": "address"
        }
      ],
      "stateMutability": "view",
      "type": "function"
    },
    {
      "inputs": [
        {
          "internalType": "uint32",
          "name": "eid",
          "type": "uint32"
        }
      ],
      "name": "peers",
      "outputs": [
        {
          "internalType": "bytes32",
          "name": "peer",
          "type": "bytes32"
        }
      ],
      "stateMutability": "view",
      "type": "function"
    },
    {
      "inputs": [],
      "name": "preCrime",
      "outputs": [
        {
          "internalType": "address",
          "name": "",
          "type": "address"
        }
      ],
      "stateMutability": "view",
      "type": "function"
    },
    {
      "inputs": [
        {
          "components": [
            {
              "internalType": "uint32",
              "name": "dstEid",
              "type": "uint32"
            },
            {
              "internalType": "bytes32",
              "name": "to",
              "type": "bytes32"
            },
            {
              "internalType": "uint256",
              "name": "amountLD",
              "type": "uint256"
            },
            {
              "internalType": "uint256",
              "name": "minAmountLD",
              "type": "uint256"
            },
            {
              "internalType": "bytes",
              "name": "extraOptions",
              "type": "bytes"
            },
            {
              "internalType": "bytes",
              "name": "composeMsg",
              "type": "bytes"
            },
            {
              "internalType": "bytes",
              "name": "oftCmd",
              "type": "bytes"
            }
          ],
          "internalType": "struct SendParam",
          "name": "_sendParam",
          "type": "tuple"
        }
      ],
      "name": "quoteOFT",
      "outputs": [
        {
          "components": [
            {
              "internalType": "uint256",
              "name": "minAmountLD",
              "type": "uint256"
            },
            {
              "internalType": "uint256",
              "name": "maxAmountLD",
              "type": "uint256"
            }
          ],
          "internalType": "struct OFTLimit",
          "name": "oftLimit",
          "type": "tuple"
        },
        {
          "components": [
            {
              "internalType": "int256",
              "name": "feeAmountLD",
              "type": "int256"
            },
            {
              "internalType": "string",
              "name": "description",
              "type": "string"
            }
          ],
          "internalType": "struct OFTFeeDetail[]",
          "name": "oftFeeDetails",
          "type": "tuple[]"
        },
        {
          "components": [
            {
              "internalType": "uint256",
              "name": "amountSentLD",
              "type": "uint256"
            },
            {
              "internalType": "uint256",
              "name": "amountReceivedLD",
              "type": "uint256"
            }
          ],
          "internalType": "struct OFTReceipt",
          "name": "oftReceipt",
          "type": "tuple"
        }
      ],
      "stateMutability": "view",
      "type": "function"
    },
    {
      "inputs": [
        {
          "components": [
            {
              "internalType": "uint32",
              "name": "dstEid",
              "type": "uint32"
            },
            {
              "internalType": "bytes32",
              "name": "to",
              "type": "bytes32"
            },
            {
              "internalType": "uint256",
              "name": "amountLD",
              "type": "uint256"
            },
            {
              "internalType": "uint256",
              "name": "minAmountLD",
              "type": "uint256"
            },
            {
              "internalType": "bytes",
              "name": "extraOptions",
              "type": "bytes"
            },
            {
              "internalType": "bytes",
              "name": "composeMsg",
              "type": "bytes"
            },
            {
              "internalType": "bytes",
              "name": "oftCmd",
              "type": "bytes"
            }
          ],
          "internalType": "struct SendParam",
          "name": "_sendParam",
          "type": "tuple"
        },
        {
          "internalType": "bool",
          "name": "_payInLzToken",
          "type": "bool"
        }
      ],
      "name": "quoteSend",
      "outputs": [
        {
          "components": [
            {
              "internalType": "uint256",
              "name": "nativeFee",
              "type": "uint256"
            },
            {
              "internalType": "uint256",
              "name": "lzTokenFee",
              "type": "uint256"
            }
          ],
          "internalType": "struct MessagingFee",
          "name": "msgFee",
          "type": "tuple"
        }
      ],
      "stateMutability": "view",
      "type": "function"
    },
    {
      "inputs": [],
      "name": "renounceOwnership",
      "outputs": [],
      "stateMutability": "nonpayable",
      "type": "function"
    },
    {
      "inputs": [
        {
          "components": [
            {
              "internalType": "uint32",
              "name": "dstEid",
              "type": "uint32"
            },
            {
              "internalType": "bytes32",
              "name": "to",
              "type": "bytes32"
            },
            {
              "internalType": "uint256",
              "name": "amountLD",
              "type": "uint256"
            },
            {
              "internalType": "uint256",
              "name": "minAmountLD",
              "type": "uint256"
            },
            {
              "internalType": "bytes",
              "name": "extraOptions",
              "type": "bytes"
            },
            {
              "internalType": "bytes",
              "name": "composeMsg",
              "type": "bytes"
            },
            {
              "internalType": "bytes",
              "name": "oftCmd",
              "type": "bytes"
            }
          ],
          "internalType": "struct SendParam",
          "name": "_sendParam",
          "type": "tuple"
        },
        {
          "components": [
            {
              "internalType": "uint256",
              "name": "nativeFee",
              "type": "uint256"
            },
            {
              "internalType": "uint256",
              "name": "lzTokenFee",
              "type": "uint256"
            }
          ],
          "internalType": "struct MessagingFee",
          "name": "_fee",
          "type": "tuple"
        },
        {
          "internalType": "address",
          "name": "_refundAddress",
          "type": "address"
        }
      ],
      "name": "send",
      "outputs": [
        {
          "components": [
            {
              "internalType": "bytes32",
              "name": "guid",
              "type": "bytes32"
            },
            {
              "internalType": "uint64",
              "name": "nonce",
              "type": "uint64"
            },
            {
              "components": [
                {
                  "internalType": "uint256",
                  "name": "nativeFee",
                  "type": "uint256"
                },
                {
                  "internalType": "uint256",
                  "name": "lzTokenFee",
                  "type": "uint256"
                }
              ],
              "internalType": "struct MessagingFee",
              "name": "fee",
              "type": "tuple"
            }
          ],
          "internalType": "struct MessagingReceipt",
          "name": "msgReceipt",
          "type": "tuple"
        },
        {
          "components": [
            {
              "internalType": "uint256",
              "name": "amountSentLD",
              "type": "uint256"
            },
            {
              "internalType": "uint256",
              "name": "amountReceivedLD",
              "type": "uint256"
            }
          ],
          "internalType": "struct OFTReceipt",
          "name": "oftReceipt",
          "type": "tuple"
        }
      ],
      "stateMutability": "payable",
      "type": "function"
    },
    {
      "inputs": [
        {
          "internalType": "address",
          "name": "_delegate",
          "type": "address"
        }
      ],
      "name": "setDelegate",
      "outputs": [],
      "stateMutability": "nonpayable",
      "type": "function"
    },
    {
      "inputs": [
        {
          "components": [
            {
              "internalType": "uint32",
              "name": "eid",
              "type": "uint32"
            },
            {
              "internalType": "uint16",
              "name": "msgType",
              "type": "uint16"
            },
            {
              "internalType": "bytes",
              "name": "options",
              "type": "bytes"
            }
          ],
          "internalType": "struct EnforcedOptionParam[]",
          "name": "_enforcedOptions",
          "type": "tuple[]"
        }
      ],
      "name": "setEnforcedOptions",
      "outputs": [],
      "stateMutability": "nonpayable",
      "type": "function"
    },
    {
      "inputs": [
        {
          "internalType": "address",
          "name": "_msgInspector",
          "type": "address"
        }
      ],
      "name": "setMsgInspector",
      "outputs": [],
      "stateMutability": "nonpayable",
      "type": "function"
    },
    {
      "inputs": [
        {
          "internalType": "uint32",
          "name": "_eid",
          "type": "uint32"
        },
        {
          "internalType": "bytes32",
          "name": "_peer",
          "type": "bytes32"
        }
      ],
      "name": "setPeer",
      "outputs": [],
      "stateMutability": "nonpayable",
      "type": "function"
    },
    {
      "inputs": [
        {
          "internalType": "address",
          "name": "_preCrime",
          "type": "address"
        }
      ],
      "name": "setPreCrime",
      "outputs": [],
      "stateMutability": "nonpayable",
      "type": "function"
    },
    {
      "inputs": [],
      "name": "sharedDecimals",
      "outputs": [
        {
          "internalType": "uint8",
          "name": "",
          "type": "uint8"
        }
      ],
      "stateMutability": "view",
      "type": "function"
    },
    {
      "inputs": [],
      "name": "symbol",
      "outputs": [
        {
          "internalType": "string",
          "name": "",
          "type": "string"
        }
      ],
      "stateMutability": "view",
      "type": "function"
    },
    {
      "inputs": [],
      "name": "token",
      "outputs": [
        {
          "internalType": "address",
          "name": "",
          "type": "address"
        }
      ],
      "stateMutability": "view",
      "type": "function"
    },
    {
      "inputs": [],
      "name": "totalSupply",
      "outputs": [
        {
          "internalType": "uint256",
          "name": "",
          "type": "uint256"
        }
      ],
      "stateMutability": "view",
      "type": "function"
    },
    {
      "inputs": [
        {
          "internalType": "address",
          "name": "to",
          "type": "address"
        },
        {
          "internalType": "uint256",
          "name": "value",
          "type": "uint256"
        }
      ],
      "name": "transfer",
      "outputs": [
        {
          "internalType": "bool",
          "name": "",
          "type": "bool"
        }
      ],
      "stateMutability": "nonpayable",
      "type": "function"
    },
    {
      "inputs": [
        {
          "internalType": "address",
          "name": "from",
          "type": "address"
        },
        {
          "internalType": "address",
          "name": "to",
          "type": "address"
        },
        {
          "internalType": "uint256",
          "name": "value",
          "type": "uint256"
        }
      ],
      "name": "transferFrom",
      "outputs": [
        {
          "internalType": "bool",
          "name": "",
          "type": "bool"
        }
      ],
      "stateMutability": "nonpayable",
      "type": "function"
    },
    {
      "inputs": [
        {
          "internalType": "address",
          "name": "newOwner",
          "type": "address"
        }
      ],
      "name": "transferOwnership",
      "outputs": [],
      "stateMutability": "nonpayable",
      "type": "function"
    },
    {
      "stateMutability": "payable",
      "type": "receive"
    }
  ],
  "bytecode": "0x60c06040523480156200001157600080fd5b506040516200379c3803806200379c8339810160408190526200003491620002d2565b83838383838360128484818181818d6001600160a01b0381166200007257604051631e4fbdf760e01b81526000600482015260240160405180910390fd5b6200007d8162000198565b506001600160a01b038083166080528116620000ac57604051632d618d8160e21b815260040160405180910390fd5b60805160405163ca5eb5e160e01b81526001600160a01b0383811660048301529091169063ca5eb5e190602401600060405180830381600087803b158015620000f457600080fd5b505af115801562000109573d6000803e3d6000fd5b505050505050505062000121620001e860201b60201c565b60ff168360ff16101562000148576040516301e9714b60e41b815260040160405180910390fd5b6200015560068462000377565b6200016290600a62000496565b60a052506008915062000178905083826200053f565b5060096200018782826200053f565b50505050505050505050506200060b565b600080546001600160a01b038381166001600160a01b0319831681178455604051919092169283917f8be0079c531659141344cd1fd0a4f28419497f9722a3daafe3b4186f6b6457e09190a35050565b600690565b634e487b7160e01b600052604160045260246000fd5b600082601f8301126200021557600080fd5b81516001600160401b0380821115620002325762000232620001ed565b604051601f8301601f19908116603f011681019082821181831017156200025d576200025d620001ed565b81604052838152602092508660208588010111156200027b57600080fd5b600091505b838210156200029f578582018301518183018401529082019062000280565b6000602085830101528094505050505092915050565b80516001600160a01b0381168114620002cd57600080fd5b919050565b60008060008060808587031215620002e957600080fd5b84516001600160401b03808211156200030157600080fd5b6200030f8883890162000203565b955060208701519150808211156200032657600080fd5b50620003358782880162000203565b9350506200034660408601620002b5565b91506200035660608601620002b5565b905092959194509250565b634e487b7160e01b600052601160045260246000fd5b60ff828116828216039081111562000393576200039362000361565b92915050565b600181815b80851115620003da578160001904821115620003be57620003be62000361565b80851615620003cc57918102915b93841c93908002906200039e565b509250929050565b600082620003f35750600162000393565b81620004025750600062000393565b81600181146200041b5760028114620004265762000446565b600191505062000393565b60ff8411156200043a576200043a62000361565b50506001821b62000393565b5060208310610133831016604e8410600b84101617156200046b575081810a62000393565b62000477838362000399565b80600019048211156200048e576200048e62000361565b029392505050565b6000620004a760ff841683620003e2565b9392505050565b600181811c90821680620004c357607f821691505b602082108103620004e457634e487b7160e01b600052602260045260246000fd5b50919050565b601f8211156200053a576000816000526020600020601f850160051c81016020861015620005155750805b601f850160051c820191505b81811015620005365782815560010162000521565b5050505b505050565b81516001600160401b038111156200055b576200055b620001ed565b62000573816200056c8454620004ae565b84620004ea565b602080601f831160018114620005ab5760008415620005925750858301515b600019600386901b1c1916600185901b17855562000536565b600085815260208120601f198616915b82811015620005dc57888601518255948401946001909101908401620005bb565b5085821015620005fb5787850151600019600388901b60f8161c191681555b5050505050600190811b01905550565b60805160a051613125620006776000396000818161064201528181611b6501528181611bda0152611dde01526000818161050101528181610a91015281816110f50152818161136c015281816116d701528181611ed601528181611fda015261209101526131256000f3fe6080604052600436106102535760003560e01c80637d25a05e11610138578063bb0b6a53116100b0578063d045a0dc11610077578063d045a0dc14610799578063d4243885146107ac578063dd62ed3e146107cc578063f2fde38b14610812578063fc0c546a14610485578063ff7bd03d1461083257005b8063bb0b6a53146106f8578063bc70b35414610725578063bd815db014610745578063c7c7f5b314610758578063ca5eb5e11461077957005b8063963efcaa116100ff578063963efcaa146106305780639dc29fac146106645780639f68b96414610684578063a9059cbb14610698578063b731ea0a146106b8578063b98bd070146106d857005b80637d25a05e1461058e57806382413eac146105c9578063857749b0146105e95780638da5cb5b146105fd57806395d89b411461061b57005b8063313ce567116101cb5780635535d461116101925780635535d461146104985780635a0dfe4d146104b85780635e280f11146104ef5780636fc1b31e1461052357806370a0823114610543578063715018a61461057957005b8063313ce567146103f65780633400288b146104185780633b6f743b1461043857806340c10f191461046557806352ae28791461048557005b8063134d4f251161021a578063134d4f2514610331578063156a0d0f1461035957806317442b701461038057806318160ddd146103a25780631f5e1334146103c157806323b872dd146103d657005b806306fdde031461025c578063095ea7b3146102875780630d35b415146102b7578063111ecdad146102e657806313137d651461031e57005b3661025a57005b005b34801561026857600080fd5b50610271610852565b60405161027e9190612209565b60405180910390f35b34801561029357600080fd5b506102a76102a2366004612231565b6108e4565b604051901515815260200161027e565b3480156102c357600080fd5b506102d76102d2366004612275565b6108fe565b60405161027e939291906122a9565b3480156102f257600080fd5b50600454610306906001600160a01b031681565b6040516001600160a01b03909116815260200161027e565b61025a61032c36600461239c565b610a8f565b34801561033d57600080fd5b50610346600281565b60405161ffff909116815260200161027e565b34801561036557600080fd5b506040805162b9270b60e21b8152600160208201520161027e565b34801561038c57600080fd5b506040805160018152600260208201520161027e565b3480156103ae57600080fd5b506007545b60405190815260200161027e565b3480156103cd57600080fd5b50610346600181565b3480156103e257600080fd5b506102a76103f136600461243b565b610b4f565b34801561040257600080fd5b5060125b60405160ff909116815260200161027e565b34801561042457600080fd5b5061025a610433366004612495565b610b75565b34801561044457600080fd5b506104586104533660046124bf565b610b8b565b60405161027e9190612510565b34801561047157600080fd5b5061025a610480366004612231565b610bf2565b34801561049157600080fd5b5030610306565b3480156104a457600080fd5b506102716104b3366004612539565b610bfc565b3480156104c457600080fd5b506102a76104d3366004612495565b63ffffffff919091166000908152600160205260409020541490565b3480156104fb57600080fd5b506103067f000000000000000000000000000000000000000000000000000000000000000081565b34801561052f57600080fd5b5061025a61053e36600461256c565b610ca1565b34801561054f57600080fd5b506103b361055e36600461256c565b6001600160a01b031660009081526005602052604090205490565b34801561058557600080fd5b5061025a610cfe565b34801561059a57600080fd5b506105b16105a9366004612495565b600092915050565b6040516001600160401b03909116815260200161027e565b3480156105d557600080fd5b506102a76105e4366004612589565b610d12565b3480156105f557600080fd5b506006610406565b34801561060957600080fd5b506000546001600160a01b0316610306565b34801561062757600080fd5b50610271610d27565b34801561063c57600080fd5b506103b37f000000000000000000000000000000000000000000000000000000000000000081565b34801561067057600080fd5b5061025a61067f366004612231565b610d36565b34801561069057600080fd5b5060006102a7565b3480156106a457600080fd5b506102a76106b3366004612231565b610d40565b3480156106c457600080fd5b50600254610306906001600160a01b031681565b3480156106e457600080fd5b5061025a6106f3366004612633565b610d4e565b34801561070457600080fd5b506103b3610713366004612674565b60016020526000908152604090205481565b34801561073157600080fd5b5061027161074036600461268f565b610d68565b61025a610753366004612633565b610f10565b61076b6107663660046126ef565b61109a565b60405161027e92919061275c565b34801561078557600080fd5b5061025a61079436600461256c565b6110ce565b61025a6107a736600461239c565b611154565b3480156107b857600080fd5b5061025a6107c736600461256c565b611183565b3480156107d857600080fd5b506103b36107e73660046127ae565b6001600160a01b03918216600090815260066020908152604080832093909416825291909152205490565b34801561081e57600080fd5b5061025a61082d36600461256c565b6111d9565b34801561083e57600080fd5b506102a761084d3660046127dc565b611217565b606060088054610861906127f8565b80601f016020809104026020016040519081016040528092919081815260200182805461088d906127f8565b80156108da5780601f106108af576101008083540402835291602001916108da565b820191906000526020600020905b8154815290600101906020018083116108bd57829003601f168201915b5050505050905090565b6000336108f281858561124d565b60019150505b92915050565b60408051808201909152600080825260208201526060610931604051806040016040528060008152602001600081525090565b600080306001600160a01b031663fc0c546a6040518163ffffffff1660e01b8152600401602060405180830381865afa158015610972573d6000803e3d6000fd5b505050506040513d601f19601f82011682018060405250810190610996919061282c565b6001600160a01b03166318160ddd6040518163ffffffff1660e01b8152600401602060405180830381865afa1580156109d3573d6000803e3d6000fd5b505050506040513d601f19601f820116820180604052508101906109f79190612849565b60408051808201825284815260208082018490528251600080825291810190935290975091925090610a4c565b604080518082019091526000815260606020820152815260200190600190039081610a245790505b509350600080610a71604089013560608a0135610a6c60208c018c612674565b61125f565b60408051808201909152918252602082015296989597505050505050565b7f00000000000000000000000000000000000000000000000000000000000000006001600160a01b03163314610adf576040516391ac5e4f60e01b81523360048201526024015b60405180910390fd5b60208701803590610af990610af4908a612674565b61129b565b14610b3757610b0b6020880188612674565b60405163309afaf360e21b815263ffffffff909116600482015260208801356024820152604401610ad6565b610b46878787878787876112d7565b50505050505050565b600033610b5d85828561143e565b610b688585856114bd565b60019150505b9392505050565b610b7d61151c565b610b878282611549565b5050565b60408051808201909152600080825260208201526000610bbb60408501356060860135610a6c6020880188612674565b915050600080610bcb868461159e565b9092509050610be8610be06020880188612674565b8383886116c1565b9695505050505050565b610b8782826117a2565b600360209081526000928352604080842090915290825290208054610c20906127f8565b80601f0160208091040260200160405190810160405280929190818152602001828054610c4c906127f8565b8015610c995780601f10610c6e57610100808354040283529160200191610c99565b820191906000526020600020905b815481529060010190602001808311610c7c57829003601f168201915b505050505081565b610ca961151c565b600480546001600160a01b0319166001600160a01b0383169081179091556040519081527ff0be4f1e87349231d80c36b33f9e8639658eeaf474014dee15a3e6a4d4414197906020015b60405180910390a150565b610d0661151c565b610d1060006117d8565b565b6001600160a01b03811630145b949350505050565b606060098054610861906127f8565b610b878282611828565b6000336108f28185856114bd565b610d5661151c565b610b87610d638284612919565b61185e565b63ffffffff8416600090815260036020908152604080832061ffff87168452909152812080546060929190610d9c906127f8565b80601f0160208091040260200160405190810160405280929190818152602001828054610dc8906127f8565b8015610e155780601f10610dea57610100808354040283529160200191610e15565b820191906000526020600020905b815481529060010190602001808311610df857829003601f168201915b505050505090508051600003610e655783838080601f016020809104026020016040519081016040528093929190818152602001838380828437600092019190915250929450610d1f9350505050565b6000839003610e75579050610d1f565b60028310610ef357610ebc84848080601f01602080910402602001604051908101604052809392919081815260200183838082843760009201919091525061196592505050565b80610eca8460028188612a2e565b604051602001610edc93929190612a58565b604051602081830303815290604052915050610d1f565b8383604051639a6d49cd60e01b8152600401610ad6929190612aa9565b60005b818110156110195736838383818110610f2e57610f2e612abd565b9050602002810190610f409190612ad3565b9050610f73610f526020830183612674565b602083013563ffffffff919091166000908152600160205260409020541490565b610f7d5750611011565b3063d045a0dc60c08301358360a0810135610f9c610100830183612af4565b610fad610100890160e08a0161256c565b610fbb6101208a018a612af4565b6040518963ffffffff1660e01b8152600401610fdd9796959493929190612b4f565b6000604051808303818588803b158015610ff657600080fd5b505af115801561100a573d6000803e3d6000fd5b5050505050505b600101610f13565b50336001600160a01b0316638e9e70996040518163ffffffff1660e01b8152600401600060405180830381865afa158015611058573d6000803e3d6000fd5b505050506040513d6000823e601f3d908101601f191682016040526110809190810190612bd5565b604051638351eea760e01b8152600401610ad69190612209565b6110a2612172565b60408051808201909152600080825260208201526110c1858585611991565b915091505b935093915050565b6110d661151c565b60405163ca5eb5e160e01b81526001600160a01b0382811660048301527f0000000000000000000000000000000000000000000000000000000000000000169063ca5eb5e190602401600060405180830381600087803b15801561113957600080fd5b505af115801561114d573d6000803e3d6000fd5b5050505050565b3330146111745760405163029a949d60e31b815260040160405180910390fd5b610b4687878787878787610b37565b61118b61151c565b600280546001600160a01b0319166001600160a01b0383169081179091556040519081527fd48d879cef83a1c0bdda516f27b13ddb1b3f8bbac1c9e1511bb2a659c242776090602001610cf3565b6111e161151c565b6001600160a01b03811661120b57604051631e4fbdf760e01b815260006004820152602401610ad6565b611214816117d8565b50565b600060208201803590600190839061122f9086612674565b63ffffffff1681526020810191909152604001600020541492915050565b61125a8383836001611a8c565b505050565b60008061126b85611b61565b9150819050838110156110c6576040516371c4efed60e01b81526004810182905260248101859052604401610ad6565b63ffffffff8116600090815260016020526040812054806108f85760405163f6ff4fb760e01b815263ffffffff84166004820152602401610ad6565b60006112e96112e68787611b98565b90565b90506000611315826113036112fe8a8a611bb0565b611bd3565b61131060208d018d612674565b611c08565b905060288611156113dc57600061135261133560608c0160408d01612c42565b61134260208d018d612674565b8461134d8c8c611c30565b611c7b565b604051633e5ac80960e11b81529091506001600160a01b037f00000000000000000000000000000000000000000000000000000000000000001690637cb59012906113a89086908d906000908790600401612c5f565b600060405180830381600087803b1580156113c257600080fd5b505af11580156113d6573d6000803e3d6000fd5b50505050505b6001600160a01b038216887fefed6d3500546b29533b128a29e3a94d70788727f0507505ac12eaf2e578fd9c61141560208d018d612674565b6040805163ffffffff9092168252602082018690520160405180910390a3505050505050505050565b6001600160a01b038381166000908152600660209081526040808320938616835292905220546000198110156114b757818110156114a857604051637dc7a0d960e11b81526001600160a01b03841660048201526024810182905260448101839052606401610ad6565b6114b784848484036000611a8c565b50505050565b6001600160a01b0383166114e757604051634b637e8f60e11b815260006004820152602401610ad6565b6001600160a01b0382166115115760405163ec442f0560e01b815260006004820152602401610ad6565b61125a838383611cad565b6000546001600160a01b03163314610d105760405163118cdaa760e01b8152336004820152602401610ad6565b63ffffffff8216600081815260016020908152604091829020849055815192835282018390527f238399d427b947898edb290f5ff0f9109849b1c3ba196a42e35f00c50a54b98b910160405180910390a15050565b60608060006115fb85602001356115b486611dd7565b6115c160a0890189612af4565b8080601f016020809104026020016040519081016040528093929190818152602001838380828437600092019190915250611e0392505050565b909350905060008161160e576001611611565b60025b90506116316116236020880188612674565b8261074060808a018a612af4565b6004549093506001600160a01b031680156116b75760405163043a78eb60e01b81526001600160a01b0382169063043a78eb906116749088908890600401612c90565b602060405180830381865afa158015611691573d6000803e3d6000fd5b505050506040513d601f19601f820116820180604052508101906116b59190612cb5565b505b5050509250929050565b60408051808201909152600080825260208201527f00000000000000000000000000000000000000000000000000000000000000006001600160a01b031663ddc28c586040518060a001604052808863ffffffff1681526020016117248961129b565b8152602001878152602001868152602001851515815250306040518363ffffffff1660e01b8152600401611759929190612cd2565b6040805180830381865afa158015611775573d6000803e3d6000fd5b505050506040513d601f19601f820116820180604052508101906117999190612d7b565b95945050505050565b6001600160a01b0382166117cc5760405163ec442f0560e01b815260006004820152602401610ad6565b610b8760008383611cad565b600080546001600160a01b038381166001600160a01b0319831681178455604051919092169283917f8be0079c531659141344cd1fd0a4f28419497f9722a3daafe3b4186f6b6457e09190a35050565b6001600160a01b03821661185257604051634b637e8f60e11b815260006004820152602401610ad6565b610b8782600083611cad565b60005b81518110156119355761189082828151811061187f5761187f612abd565b602002602001015160400151611965565b8181815181106118a2576118a2612abd565b602002602001015160400151600360008484815181106118c4576118c4612abd565b60200260200101516000015163ffffffff1663ffffffff16815260200190815260200160002060008484815181106118fe576118fe612abd565b60200260200101516020015161ffff1661ffff168152602001908152602001600020908161192c9190612de7565b50600101611861565b507fbe4864a8e820971c0247f5992e2da559595f7bf076a21cb5928d443d2a13b67481604051610cf39190612ea6565b600281015161ffff8116600314610b875781604051639a6d49cd60e01b8152600401610ad69190612209565b611999612172565b60408051808201909152600080825260208201526000806119d033604089013560608a01356119cb60208c018c612674565b611e7d565b915091506000806119e1898461159e565b9092509050611a0d6119f660208b018b612674565b8383611a07368d90038d018d612f31565b8b611ea3565b60408051808201909152858152602080820186905282519298509096503391907f85496b760a4b7f8d66384b9df21b381f5d1b1e79f229a47aaf4c232edc2fe59a90611a5b908d018d612674565b6040805163ffffffff909216825260208201899052810187905260600160405180910390a350505050935093915050565b6001600160a01b038416611ab65760405163e602df0560e01b815260006004820152602401610ad6565b6001600160a01b038316611ae057604051634a1406b160e11b815260006004820152602401610ad6565b6001600160a01b03808516600090815260066020908152604080832093871683529290522082905580156114b757826001600160a01b0316846001600160a01b03167f8c5be1e5ebec7d5bd14f71427d1e84f3dd0314c0f7b2291e5b200ac8c7c3b92584604051611b5391815260200190565b60405180910390a350505050565b60007f0000000000000000000000000000000000000000000000000000000000000000611b8e8184612f79565b6108f89190612f9b565b6000611ba76020828486612a2e565b610b6e91612fb2565b6000611bc0602860208486612a2e565b611bc991612fd0565b60c01c9392505050565b60006108f87f00000000000000000000000000000000000000000000000000000000000000006001600160401b038416612f9b565b60006001600160a01b038416611c1e5761dead93505b611c2884846117a2565b509092915050565b6060611c3f8260288186612a2e565b8080601f016020809104026020016040519081016040528093929190818152602001838380828437600092019190915250929695505050505050565b606084848484604051602001611c949493929190613000565b6040516020818303038152906040529050949350505050565b6001600160a01b038316611cd8578060076000828254611ccd919061304f565b90915550611d4a9050565b6001600160a01b03831660009081526005602052604090205481811015611d2b5760405163391434e360e21b81526001600160a01b03851660048201526024810182905260448101839052606401610ad6565b6001600160a01b03841660009081526005602052604090209082900390555b6001600160a01b038216611d6657600780548290039055611d85565b6001600160a01b03821660009081526005602052604090208054820190555b816001600160a01b0316836001600160a01b03167fddf252ad1be2c89b69c2b068fc378daa952ba7f163c4a11628f55a4df523b3ef83604051611dca91815260200190565b60405180910390a3505050565b60006108f87f000000000000000000000000000000000000000000000000000000000000000083612f79565b8051606090151580611e4c578484604051602001611e3892919091825260c01b6001600160c01b031916602082015260280190565b604051602081830303815290604052611e73565b84843385604051602001611e639493929190613062565b6040516020818303038152906040525b9150935093915050565b600080611e8b85858561125f565b9092509050611e9a8683611828565b94509492505050565b611eab612172565b6000611eba8460000151611fae565b602085015190915015611ed457611ed48460200151611fd6565b7f00000000000000000000000000000000000000000000000000000000000000006001600160a01b0316632637a450826040518060a001604052808b63ffffffff168152602001611f248c61129b565b81526020018a815260200189815260200160008960200151111515815250866040518463ffffffff1660e01b8152600401611f60929190612cd2565b60806040518083038185885af1158015611f7e573d6000803e3d6000fd5b50505050506040513d601f19601f82011682018060405250810190611fa391906130a5565b979650505050505050565b6000813414611fd2576040516304fb820960e51b8152346004820152602401610ad6565b5090565b60007f00000000000000000000000000000000000000000000000000000000000000006001600160a01b031663e4fe1d946040518163ffffffff1660e01b8152600401602060405180830381865afa158015612036573d6000803e3d6000fd5b505050506040513d601f19601f8201168201806040525081019061205a919061282c565b90506001600160a01b038116612083576040516329b99a9560e11b815260040160405180910390fd5b6040805133602482018190527f00000000000000000000000000000000000000000000000000000000000000006001600160a01b0381811660448501526064808501889052855180860390910181526084909401909452602080840180516001600160e01b03166323b872dd60e01b1781528451610b879688169589936114b793889360009283929091839182885af180612124576040513d6000823e3d81fd5b50506000513d9150811561213c578060011415612149565b6001600160a01b0384163b155b156114b757604051635274afe760e01b81526001600160a01b0385166004820152602401610ad6565b60405180606001604052806000801916815260200160006001600160401b031681526020016121b4604051806040016040528060008152602001600081525090565b905290565b60005b838110156121d45781810151838201526020016121bc565b50506000910152565b600081518084526121f58160208601602086016121b9565b601f01601f19169290920160200192915050565b602081526000610b6e60208301846121dd565b6001600160a01b038116811461121457600080fd5b6000806040838503121561224457600080fd5b823561224f8161221c565b946020939093013593505050565b600060e0828403121561226f57600080fd5b50919050565b60006020828403121561228757600080fd5b81356001600160401b0381111561229d57600080fd5b610d1f8482850161225d565b8351815260208085015190820152600060a08201604060a0604085015281865180845260c08601915060c08160051b8701019350602080890160005b838110156123245788870360bf19018552815180518852830151838801879052612311878901826121dd565b97505093820193908201906001016122e5565b50508751606088015250505060208501516080850152509050610d1f565b60006060828403121561226f57600080fd5b60008083601f84011261236657600080fd5b5081356001600160401b0381111561237d57600080fd5b60208301915083602082850101111561239557600080fd5b9250929050565b600080600080600080600060e0888a0312156123b757600080fd5b6123c18989612342565b96506060880135955060808801356001600160401b03808211156123e457600080fd5b6123f08b838c01612354565b909750955060a08a013591506124058261221c565b90935060c0890135908082111561241b57600080fd5b506124288a828b01612354565b989b979a50959850939692959293505050565b60008060006060848603121561245057600080fd5b833561245b8161221c565b9250602084013561246b8161221c565b929592945050506040919091013590565b803563ffffffff8116811461249057600080fd5b919050565b600080604083850312156124a857600080fd5b61224f8361247c565b801515811461121457600080fd5b600080604083850312156124d257600080fd5b82356001600160401b038111156124e857600080fd5b6124f48582860161225d565b9250506020830135612505816124b1565b809150509250929050565b8151815260208083015190820152604081016108f8565b803561ffff8116811461249057600080fd5b6000806040838503121561254c57600080fd5b6125558361247c565b915061256360208401612527565b90509250929050565b60006020828403121561257e57600080fd5b8135610b6e8161221c565b60008060008060a0858703121561259f57600080fd5b6125a98686612342565b935060608501356001600160401b038111156125c457600080fd5b6125d087828801612354565b90945092505060808501356125e48161221c565b939692955090935050565b60008083601f84011261260157600080fd5b5081356001600160401b0381111561261857600080fd5b6020830191508360208260051b850101111561239557600080fd5b6000806020838503121561264657600080fd5b82356001600160401b0381111561265c57600080fd5b612668858286016125ef565b90969095509350505050565b60006020828403121561268657600080fd5b610b6e8261247c565b600080600080606085870312156126a557600080fd5b6126ae8561247c565b93506126bc60208601612527565b925060408501356001600160401b038111156126d757600080fd5b6126e387828801612354565b95989497509550505050565b6000806000838503608081121561270557600080fd5b84356001600160401b0381111561271b57600080fd5b6127278782880161225d565b9450506040601f198201121561273c57600080fd5b5060208401915060608401356127518161221c565b809150509250925092565b600060c082019050835182526001600160401b0360208501511660208301526040840151612797604084018280518252602090810151910152565b5082516080830152602083015160a0830152610b6e565b600080604083850312156127c157600080fd5b82356127cc8161221c565b915060208301356125058161221c565b6000606082840312156127ee57600080fd5b610b6e8383612342565b600181811c9082168061280c57607f821691505b60208210810361226f57634e487b7160e01b600052602260045260246000fd5b60006020828403121561283e57600080fd5b8151610b6e8161221c565b60006020828403121561285b57600080fd5b5051919050565b634e487b7160e01b600052604160045260246000fd5b604051606081016001600160401b038111828210171561289a5761289a612862565b60405290565b604080519081016001600160401b038111828210171561289a5761289a612862565b604051601f8201601f191681016001600160401b03811182821017156128ea576128ea612862565b604052919050565b60006001600160401b0382111561290b5761290b612862565b50601f01601f191660200190565b60006001600160401b038084111561293357612933612862565b8360051b60206129448183016128c2565b86815291850191818101903684111561295c57600080fd5b865b84811015612a22578035868111156129765760008081fd5b8801606036829003121561298a5760008081fd5b612992612878565b61299b8261247c565b81526129a8868301612527565b86820152604080830135898111156129c05760008081fd5b929092019136601f8401126129d55760008081fd5b82356129e86129e3826128f2565b6128c2565b81815236898387010111156129fd5760008081fd5b818986018a83013760009181018901919091529082015284525091830191830161295e565b50979650505050505050565b60008085851115612a3e57600080fd5b83861115612a4b57600080fd5b5050820193919092039150565b60008451612a6a8184602089016121b9565b8201838582376000930192835250909392505050565b81835281816020850137506000828201602090810191909152601f909101601f19169091010190565b602081526000610d1f602083018486612a80565b634e487b7160e01b600052603260045260246000fd5b6000823561013e19833603018112612aea57600080fd5b9190910192915050565b6000808335601e19843603018112612b0b57600080fd5b8301803591506001600160401b03821115612b2557600080fd5b60200191503681900382131561239557600080fd5b6001600160401b038116811461121457600080fd5b63ffffffff612b5d8961247c565b1681526020880135602082015260006040890135612b7a81612b3a565b6001600160401b03811660408401525087606083015260e06080830152612ba560e083018789612a80565b6001600160a01b03861660a084015282810360c0840152612bc7818587612a80565b9a9950505050505050505050565b600060208284031215612be757600080fd5b81516001600160401b03811115612bfd57600080fd5b8201601f81018413612c0e57600080fd5b8051612c1c6129e3826128f2565b818152856020838501011115612c3157600080fd5b6117998260208301602086016121b9565b600060208284031215612c5457600080fd5b8135610b6e81612b3a565b60018060a01b038516815283602082015261ffff83166040820152608060608201526000610be860808301846121dd565b604081526000612ca360408301856121dd565b828103602084015261179981856121dd565b600060208284031215612cc757600080fd5b8151610b6e816124b1565b6040815263ffffffff8351166040820152602083015160608201526000604084015160a06080840152612d0860e08401826121dd565b90506060850151603f198483030160a0850152612d2582826121dd565b60809690960151151560c08501525050506001600160a01b039190911660209091015290565b600060408284031215612d5d57600080fd5b612d656128a0565b9050815181526020820151602082015292915050565b600060408284031215612d8d57600080fd5b610b6e8383612d4b565b601f82111561125a576000816000526020600020601f850160051c81016020861015612dc05750805b601f850160051c820191505b81811015612ddf57828155600101612dcc565b505050505050565b81516001600160401b03811115612e0057612e00612862565b612e1481612e0e84546127f8565b84612d97565b602080601f831160018114612e495760008415612e315750858301515b600019600386901b1c1916600185901b178555612ddf565b600085815260208120601f198616915b82811015612e7857888601518255948401946001909101908401612e59565b5085821015612e965787850151600019600388901b60f8161c191681555b5050505050600190811b01905550565b600060208083018184528085518083526040925060408601915060408160051b87010184880160005b83811015612f2357888303603f190185528151805163ffffffff1684528781015161ffff16888501528601516060878501819052612f0f818601836121dd565b968901969450505090860190600101612ecf565b509098975050505050505050565b600060408284031215612f4357600080fd5b612f4b6128a0565b82358152602083013560208201528091505092915050565b634e487b7160e01b600052601160045260246000fd5b600082612f9657634e487b7160e01b600052601260045260246000fd5b500490565b80820281158282048414176108f8576108f8612f63565b803560208310156108f857600019602084900360031b1b1692915050565b6001600160c01b03198135818116916008851015612ff85780818660080360031b1b83161692505b505092915050565b6001600160401b0360c01b8560c01b16815263ffffffff60e01b8460e01b16600882015282600c8201526000825161303f81602c8501602087016121b9565b91909101602c0195945050505050565b808201808211156108f8576108f8612f63565b8481526001600160401b0360c01b8460c01b166020820152826028820152600082516130958160488501602087016121b9565b9190910160480195945050505050565b6000608082840312156130b757600080fd5b6130bf612878565b8251815260208301516130d181612b3a565b60208201526130e38460408501612d4b565b6040820152939250505056fea264697066735822122086e686f0286d27ea863d907e5005cf510f1a11e2ed1e0e2d195294967cf904e364736f6c63430008180033",
  "linkReferences": {},
  "deployedLinkReferences": {}
}